S11HDR001                    202302010034320000000               
S11H  J2520231017000120101D I ESTEE LAUDER DISTRIBUTION CENTER PL24 Penjuru Road #09-05/06 CWT Commodity HUB Singapore 609128                                             B452192H       ESTEE LAUDER MALAYSIA SDN. BHD.    S 18.01, LEVEL 18, CENTREPOINT SOUTH THE BOULEVARD, MID VALLEY CITY, LING SYED PUTRA 59200 KUALA LUMPUR                                           320230104                                       00000000BQT5557     T/N5412     TKPMYTUASG                    00000000                                         0000              0000                     00000             sg0000116450000000000000001176667000011645220000000050000000475200000000026300000010000MYR20230105103120230104120020230105103620230104120000078857450000000000590816085127THAI SEONG                         WAREHOUSE MANAGER                                                                                                                                               JOB01012023A- COSMETICS                                                                                                                        0000        JOB01012023A                                        0000              0000                                            
S11D  J25202310170001200101Lip make-up preparations                                              330410000BE00000842000000KGM00000842000000KGM0000002002640000001686223N00000000000000000000   0000000000261 00500000000000000000   0000084309054N00000000000000000000   0000000000 00000000000000000000   00000000000000084309000000000000000000000MYR00000000000MYR00000000000MYR00000000000MYR000000000000000             
S11D  J25202310170001200102Eye make-up preparations                                              330420000BE00000070000000KGM00000070000000KGM0000001985550000000138989N00000000000000000000   0000000000261 00500000000000000000   0000006949054N00000000000000000000   0000000000 00000000000000000000   00000000000000006949000000000000000000000MYR00000000000MYR00000000000MYR00000000000MYR000000000000000             
S11D  J25202310170001200103Manicure or pedicure preparations                                     330430000BE00000015000000KGM00000015000000KGM0000003048400000000045726N00000000000000000000   0000000000261 00500000000000000000   0000002286054N00000000000000000000   0000000000 00000000000000000000   00000000000000002286000000000000000000000MYR00000000000MYR00000000000MYR00000000000MYR000000000000000             
S11D  J25202310170001200104Powders- whether or not compressed                                    330491000BE00000196000000KGM00000196000000KGM0000004495590000000881136N00000000000000000000   0000000000261 00500000000000000000   0000044057054N00000000000000000000   0000000000 00000000000000000000   00000000000000044057000000000000000000000MYR00000000000MYR00000000000MYR00000000000MYR000000000000000             
S11D  J25202310170001200105Other face or skin creams and lotions                                 330499300BE00000379000000KGM00000379000000KGM0000002370110000000898272N00000000000000000000   0000000000261 00500000000000000000   0000044914054N00000000000000000000   0000000000 00000000000000000000   00000000000000044914000000000000000000000MYR00000000000MYR00000000000MYR00000000000MYR000000000000000             
S11D  J25202310170001200106Other face or skin creams and lotions - others                        330499900BE00001619000000KGM00001619000000KGM0000003139850000005083417N00000000000000000000   0000000000261 00500000000000000000   0000254171054N00000000000000000000   0000000000 00000000000000000000   00000000000000254171000000000000000000000MYR00000000000MYR00000000000MYR00000000000MYR000000000000000             
S11D  J25202310170001200107Organic surface-active preparations for washing skin                  340130000BE00000213000000KGM00000213000000KGM0000002675860000000569958N00000000000000000000   0000000000278 01000000000000000000   0000056996040N00000000000000000000   0000000000 00000000000000000000   00000000000000056996000000000000000000000MYR00000000000MYR00000000000MYR00000000000MYR000000000000000             
S11R  J252023101700012001Lip make-up preparations                                              Eye make-up preparations                                              Manicure or pedicure preparations                                     Powders- whether or not compressed                                    Other face or skin creams and lotions                                 Other face or skin creams and lotions - others                        Organic surface-active preparations for washing skin                  
S11D  J25202310170001200201Perfumes and toilet waters                                            330300000CA00000048000000KGM00000048000000KGM0000002647110000000127061N00000000000000000000   0000000000253 00500000000000000000   0000006353057N00000000000000000000   0000000000 00000000000000000000   00000000000000006353000000000000000000000MYR00000000000MYR00000000000MYR00000000000MYR000000000000000             
S11D  J25202310170001200202Lip make-up preparations                                              330410000CA00004586000000KGM00004586000000KGM0000001211630000005556535N00000000000000000000   0000000000261 00500000000000000000   0000277827054N00000000000000000000   0000000000 00000000000000000000   00000000000000277827000000000000000000000MYR00000000000MYR00000000000MYR00000000000MYR000000000000000             
S11D  J25202310170001200203Eye make-up preparations                                              330420000CA00000768000000KGM00000768000000KGM0000002128110000001634388N00000000000000000000   0000000000261 00500000000000000000   0000081719054N00000000000000000000   0000000000 00000000000000000000   00000000000000081719000000000000000000000MYR00000000000MYR00000000000MYR00000000000MYR000000000000000             
S11D  J25202310170001200204Anti-acne preparations                                                330499200CA00000166000000KGM00000166000000KGM0000004321610000000717387N00000000000000000000   0000000000261 00500000000000000000   0000035869054N00000000000000000000   0000000000 00000000000000000000   00000000000000035869000000000000000000000MYR00000000000MYR00000000000MYR00000000000MYR000000000000000             
S11D  J25202310170001200205Other face or skin creams and lotions                                 330499300CA00000951000000KGM00000951000000KGM0000001997290000001899423N00000000000000000000   0000000000261 00500000000000000000   0000094971054N00000000000000000000   0000000000 00000000000000000000   00000000000000094971000000000000000000000MYR00000000000MYR00000000000MYR00000000000MYR000000000000000             
S11D  J25202310170001200206Other face or skin creams and lotions - others                        330499900CA00001313000000KGM00001313000000KGM0000003431620000004505717N00000000000000000000   0000000000261 00500000000000000000   0000225286054N00000000000000000000   0000000000 00000000000000000000   00000000000000225286000000000000000000000MYR00000000000MYR00000000000MYR00000000000MYR000000000000000             
S11D  J25202310170001200207Organic surface-active agents - other - other                         340290990CA00000001000000KGM00000001000000KGM0000002500800000000002501N00000000000000000000   0000000000278 01000000000000000000   0000000250040N00000000000000000000   0000000000 00000000000000000000   00000000000000000250000000000000000000000MYR00000000000MYR00000000000MYR00000000000MYR000000000000000             
S11R  J252023101700012002Perfumes and toilet waters                                            Lip make-up preparations                                              Eye make-up preparations                                              Anti-acne preparations                                                Other face or skin creams and lotions                                 Other face or skin creams and lotions - others                        Organic surface-active agents - other - other                         
S11D  J25202310170001200301Perfumes and toilet waters                                            330300000CH00000213000000KGM00000213000000KGM0000004711950000001003645N00000000000000000000   0000000000253 00500000000000000000   0000050182057N00000000000000000000   0000000000 00000000000000000000   00000000000000050182000000000000000000000MYR00000000000MYR00000000000MYR00000000000MYR000000000000000             
S11D  J25202310170001200302Other face or skin creams and lotions - others                        330499900CH00000013000000KGM00000013000000KGM0000002632170000000034218N00000000000000000000   0000000000261 00500000000000000000   0000001711054N00000000000000000000   0000000000 00000000000000000000   00000000000000001711000000000000000000000MYR00000000000MYR00000000000MYR00000000000MYR000000000000000             
S11D  J25202310170001200303Tweezers_ pliers                                                      820320000CH00000001000000KGM00000001000000KGM0000009219200000000009219A00500000000000000000   0000000461292 01000000000000000000   0000000968057N00000000000000000000   0000000000 00000000000000000000   00000000000000001429000000000000000000000MYR00000000000MYR00000000000MYR00000000000MYR000000000000000             
S11D 1J25202310170001200304Lip make-up preparations                                              000000000CN00000063000000KGM00000063000000KGM0000010794160000000680032N00000000000000000000   0000000000261 00500000000000000000   0000034002054N00000000000000000000   0000000000 00000000000000000000   00000000000000034002000000000000000000000MYR00000000000MYR00000000000MYR00000000000MYR000000000000000   3304100000
S11D 1J25202310170001200305Other face or skin creams and lotions - others                        000000000CN00002800000000KGM00002800000000KGM0000003306110000009257108N00000000000000000000   0000000000261 00500000000000000000   0000462855054N00000000000000000000   0000000000 00000000000000000000   00000000000000462855000000000000000000000MYR00000000000MYR00000000000MYR00000000000MYR000000000000000   3304999000
S11D 1J25202310170001200306Plastic boxes_ cases_ crate - other                                   000000000CN00000377000000KGM00000377000000KGM0000002823560000001064482A02000000000000000000   0000212896242 01000000000000000000   0000127738042N00000000000000000000   0000000000 00000000000000000000   00000000000000340634000000000000000000000MYR00000000000MYR00000000000MYR00000000000MYR000000000000000   3923109000
S11D 1J25202310170001200307Other bags of outer surface of plastics or textile                    000000000CN00000593000000KGM00000593000000KGM0000001535580000000910599N00000000000000000000   0000000000253 01000000000000000000   0000091060057N00000000000000000000   0000000000 00000000000000000000   00000000000000091060000000000000000000000MYR00000000000MYR00000000000MYR00000000000MYR000000000000000   4202929000
S11R  J252023101700012003Perfumes and toilet waters                                            Other face or skin creams and lotions - others                        Tweezers_ pliers                                                      Lip make-up preparations                                              Other face or skin creams and lotions - others                        Plastic boxes_ cases_ crate - other                                   Other bags of outer surface of plastics or textile                    
S11D 1J25202310170001200401Kraft Paper More Than 225g/M2-other                                   000000000CN00000003000000KGM00000003000000KGM0000000086570000000000260A01000000000000000000   0000000026262 01000000000000000000   0000000029055N00000000000000000000   0000000000 00000000000000000000   00000000000000000055000000000000000000000MYR00000000000MYR00000000000MYR00000000000MYR000000000000000   4804399000
S11D 1J25202310170001200402Sacks and bags_ including cones                                       000000000CN00004600000000KGM00004600000000KGM0000000137640000000633144A02500000000000000000   0000158286262 01000000000000000000   0000079143055N00000000000000000000   0000000000 00000000000000000000   00000000000000237429000000000000000000000MYR00000000000MYR00000000000MYR00000000000MYR000000000000000   4819400000
S11D 1J25202310170001200403Other packing containers_ including record sleeves                    000000000CN00001262000000KGM00001262000000KGM0000000424890000000536211A02500000000000000000   0000134053262 01000000000000000000   0000067026055N00000000000000000000   0000000000 00000000000000000000   00000000000000201079000000000000000000000MYR00000000000MYR00000000000MYR00000000000MYR000000000000000   4819500000
S11D 1J25202310170001200404Box files_ letter trays_ storage boxes or similar articles            000000000CN00001500000000KGM00001500000000KGM0000000349310000000523965A02500000000000000000   0000130991262 01000000000000000000   0000065496055N00000000000000000000   0000000000 00000000000000000000   00000000000000196487000000000000000000000MYR00000000000MYR00000000000MYR00000000000MYR000000000000000   4819600000
S11D 1J25202310170001200405Ribbon - other material                                               000000000CN00000066000000KGM00000066000000KGM0000002639260000000174191A02000000000000000000   0000034838225 01000000000000000000   0000020903025N00000000000000000000   0000000000 00000000000000000000   00000000000000055741000000000000000000000MYR00000000000MYR00000000000MYR00000000000MYR000000000000000   5806329000
S11D 1J25202310170001200406Articles of iron or steel - wire - others                             000000000CN00000002000000KGM00000002000000KGM0000021343800000000042688A00500000000000000000   0000002134292 01000000000000000000   0000004482057N00000000000000000000   0000000000 00000000000000000000   00000000000000006616000000000000000000000MYR00000000000MYR00000000000MYR00000000000MYR000000000000000   7326209000
S11D 1J25202310170001200407Furniture of plastics                                                 000000000CN00000020000000KGM00000020000000KGM0000004489240000000089785N00000000000000000000   0000000000234 01000000000000000000   0000008979034N00000000000000000000   0000000000 00000000000000000000   00000000000000008979000000000000000000000MYR00000000000MYR00000000000MYR00000000000MYR000000000000000   9403709000
S11R  J252023101700012004Kraft Paper More Than 225g/M2-other                                   Sacks and bags_ including cones                                       Other packing containers_ including record sleeves                    Box files_ letter trays_ storage boxes or similar articles            Ribbon - other material                                               Articles of iron or steel - wire - others                             Furniture of plastics                                                 
S11D 1J25202310170001200501Brushes for application of cosmetics                                  000000000CN00000669000000UNT00000669000000UNT0000003526200000002359028A00500000000000000000   0000117951253 01000000000000000000   0000247698057N00000000000000000000   0000000000 00000000000000000000   00000000000000365649000000000000000000000MYR00000000000MYR00000000000MYR00000000000MYR000000000000000   9603300000
S11D  J25202310170001200502Lip make-up preparations                                              330410000CZ00000249000000KGM00000249000000KGM0000000919800000000229030N00000000000000000000   0000000000261 00500000000000000000   0000011452054N00000000000000000000   0000000000 00000000000000000000   00000000000000011452000000000000000000000MYR00000000000MYR00000000000MYR00000000000MYR000000000000000             
S11D  J25202310170001200503Eye make-up preparations                                              330420000CZ00000202000000KGM00000202000000KGM0000001937490000000391373N00000000000000000000   0000000000261 00500000000000000000   0000019569054N00000000000000000000   0000000000 00000000000000000000   00000000000000019569000000000000000000000MYR00000000000MYR00000000000MYR00000000000MYR000000000000000             
S11D  J25202310170001200504Lip make-up preparations                                              330410000DE00000208000000KGM00000208000000KGM0000001493480000000310644N00000000000000000000   0000000000261 00500000000000000000   0000015532054N00000000000000000000   0000000000 00000000000000000000   00000000000000015532000000000000000000000MYR00000000000MYR00000000000MYR00000000000MYR000000000000000             
S11D  J25202310170001200505Eye make-up preparations                                              330420000DE00000704000000KGM00000704000000KGM0000001634440000001150646N00000000000000000000   0000000000261 00500000000000000000   0000057532054N00000000000000000000   0000000000 00000000000000000000   00000000000000057532000000000000000000000MYR00000000000MYR00000000000MYR00000000000MYR000000000000000             
S11D  J25202310170001200506Knives- sharpeners- blades thereof                                    821410000DE00000029000000KGM00000029000000KGM0000000742000000000021518A02500000000000000000   0000005380292 01000000000000000000   0000002690057N00000000000000000000   0000000000 00000000000000000000   00000000000000008070000000000000000000000MYR00000000000MYR00000000000MYR00000000000MYR000000000000000             
S11D  J25202310170001200507Bottle caps screw caps of others                                      830990990DE00000006000000KGM00000006000000KGM0000002064820000000012389A00500000000000000000   0000000619292 01000000000000000000   0000001301057N00000000000000000000   0000000000 00000000000000000000   00000000000000001920000000000000000000000MYR00000000000MYR00000000000MYR00000000000MYR000000000000000             
S11R  J252023101700012005Brushes for application of cosmetics                                  Lip make-up preparations                                              Eye make-up preparations                                              Lip make-up preparations                                              Eye make-up preparations                                              Knives- sharpeners- blades thereof                                    Bottle caps screw caps of others                                      
S11D  J25202310170001200601Hand-operated household sprayers                                      842489100DE00000582000000UNT00000582000000UNT0000000853510000000496743N00000000000000000000   0000000000233 00000000000000000000   0000000000033N00000000000000000000   0000000000 00000000000000000000   00000000000000000000000000000000000000000MYR00000000000MYR00000000000MYR00000000000MYR000000000000000             
S11D  J25202310170001200602Other face or skin creams and lotions - others                        330499900FR00000010000000KGM00000010000000KGM0000015075710000000150757N00000000000000000000   0000000000261 00500000000000000000   0000007538054N00000000000000000000   0000000000 00000000000000000000   00000000000000007538000000000000000000000MYR00000000000MYR00000000000MYR00000000000MYR000000000000000             
S11D  J25202310170001200603Room perfuming preparations                                           330749100FR00000084000000KGM00000084000000KGM0000005030160000000422533N00000000000000000000   0000000000253 01000000000000000000   0000042253057N00000000000000000000   0000000000 00000000000000000000   00000000000000042253000000000000000000000MYR00000000000MYR00000000000MYR00000000000MYR000000000000000             
S11D  J25202310170001200604Other articles of plastics or other materials - other                 392690990FR00000045000000KGM00000045000000KGM0000007644730000000344013A02000000000000000000   0000068803242 01000000000000000000   0000041282042N00000000000000000000   0000000000 00000000000000000000   00000000000000110085000000000000000000000MYR00000000000MYR00000000000MYR00000000000MYR000000000000000             
S11D  J25202310170001200605Hand-operated household sprayers                                      842489100FR00000134000000UNT00000134000000UNT0000000849530000000113837N00000000000000000000   0000000000233 00000000000000000000   0000000000033N00000000000000000000   0000000000 00000000000000000000   00000000000000000000000000000000000000000MYR00000000000MYR00000000000MYR00000000000MYR000000000000000             
S11D  J25202310170001200606Brushes for application of cosmetics                                  960330000FR00000053000000UNT00000053000000UNT0000002125320000000112642A00500000000000000000   0000005632253 01000000000000000000   0000011827057N00000000000000000000   0000000000 00000000000000000000   00000000000000017459000000000000000000000MYR00000000000MYR00000000000MYR00000000000MYR000000000000000             
S11D  J25202310170001200607Perfumes and toilet waters                                            330300000GB00003064000000KGM00003064000000KGM0000003773970000011563444N00000000000000000000   0000000000253 00500000000000000000   0000578172057N00000000000000000000   0000000000 00000000000000000000   00000000000000578172000000000000000000000MYR00000000000MYR00000000000MYR00000000000MYR000000000000000             
S11R  J252023101700012006Hand-operated household sprayers                                      Other face or skin creams and lotions - others                        Room perfuming preparations                                           Other articles of plastics or other materials - other                 Hand-operated household sprayers                                      Brushes for application of cosmetics                                  Perfumes and toilet waters                                            
S11D  J25202310170001200701Eye make-up preparations                                              330420000GB00000011000000KGM00000011000000KGM0000004368080000000048049N00000000000000000000   0000000000261 00500000000000000000   0000002402054N00000000000000000000   0000000000 00000000000000000000   00000000000000002402000000000000000000000MYR00000000000MYR00000000000MYR00000000000MYR000000000000000             
S11D  J25202310170001200702Anti-acne preparations                                                330499200GB00000015000000KGM00000015000000KGM0000001737810000000026067N00000000000000000000   0000000000261 00500000000000000000   0000001303054N00000000000000000000   0000000000 00000000000000000000   00000000000000001303000000000000000000000MYR00000000000MYR00000000000MYR00000000000MYR000000000000000             
S11D  J25202310170001200703Other face or skin creams and lotions                                 330499300GB00000276000000KGM00000276000000KGM0000004481730000001236957N00000000000000000000   0000000000261 00500000000000000000   0000061848054N00000000000000000000   0000000000 00000000000000000000   00000000000000061848000000000000000000000MYR00000000000MYR00000000000MYR00000000000MYR000000000000000             
S11D  J25202310170001200704Other face or skin creams and lotions - others                        330499900GB00001403000000KGM00001403000000KGM0000002573870000003611140N00000000000000000000   0000000000261 00500000000000000000   0000180557054N00000000000000000000   0000000000 00000000000000000000   00000000000000180557000000000000000000000MYR00000000000MYR00000000000MYR00000000000MYR000000000000000             
S11D  J25202310170001200705Shampoos - other                                                      330510900GB00000021000000KGM00000021000000KGM0000003158700000000066333N00000000000000000000   0000000000261 01000000000000000000   0000006633054N00000000000000000000   0000000000 00000000000000000000   00000000000000006633000000000000000000000MYR00000000000MYR00000000000MYR00000000000MYR000000000000000             
S11D  J25202310170001200706Hair Lacquers                                                         330530000GB00000012000000KGM00000012000000KGM0000003888050000000046657N00000000000000000000   0000000000261 01000000000000000000   0000004666054N00000000000000000000   0000000000 00000000000000000000   00000000000000004666000000000000000000000MYR00000000000MYR00000000000MYR00000000000MYR000000000000000             
S11D  J25202310170001200707Personal deodorants and antiperspirants                               330720000GB00000006000000KGM00000006000000KGM0000001082170000000006493N00000000000000000000   0000000000261 01000000000000000000   0000000649054N00000000000000000000   0000000000 00000000000000000000   00000000000000000649000000000000000000000MYR00000000000MYR00000000000MYR00000000000MYR000000000000000             
S11R  J252023101700012007Eye make-up preparations                                              Anti-acne preparations                                                Other face or skin creams and lotions                                 Other face or skin creams and lotions - others                        Shampoos - other                                                      Hair Lacquers                                                         Personal deodorants and antiperspirants                               
S11D  J25202310170001200801Perfumed bath salts and other bath preparations                       330730000GB00000006000000KGM00000006000000KGM0000005228630000000031372N00000000000000000000   0000000000261 01000000000000000000   0000003137054N00000000000000000000   0000000000 00000000000000000000   00000000000000003137000000000000000000000MYR00000000000MYR00000000000MYR00000000000MYR000000000000000             
S11D  J25202310170001200802Room perfuming preparations                                           330749100GB00000221000000KGM00000221000000KGM0000008736970000001930870N00000000000000000000   0000000000253 01000000000000000000   0000193087057N00000000000000000000   0000000000 00000000000000000000   00000000000000193087000000000000000000000MYR00000000000MYR00000000000MYR00000000000MYR000000000000000             
S11D  J25202310170001200803Other perfumery- cosmetic or toilet preparations                      330790900GB00000022000000KGM00000022000000KGM0000008157010000000179454N00000000000000000000   0000000000261 01000000000000000000   0000017945054N00000000000000000000   0000000000 00000000000000000000   00000000000000017945000000000000000000000MYR00000000000MYR00000000000MYR00000000000MYR000000000000000             
S11D  J25202310170001200804Soap for Toilet Use - others                                          340111900GB00000018000000KGM00000018000000KGM0000002042690000000036768N00000000000000000000   0000000000278 01000000000000000000   0000003677040N00000000000000000000   0000000000 00000000000000000000   00000000000000003677000000000000000000000MYR00000000000MYR00000000000MYR00000000000MYR000000000000000             
S11D  J25202310170001200805Organic surface-active preparations for washing skin                  340130000GB00000278000000KGM00000278000000KGM0000003496030000000971896N00000000000000000000   0000000000278 01000000000000000000   0000097190040N00000000000000000000   0000000000 00000000000000000000   00000000000000097190000000000000000000000MYR00000000000MYR00000000000MYR00000000000MYR000000000000000             
S11D  J25202310170001200806Candles_ tapers and the like                                          340600000GB00000370000000KGM00000370000000KGM0000006274900000002321713A01500000000000000000   0000348257253 00000000000000000000   0000000000057N00000000000000000000   0000000000 00000000000000000000   00000000000000348257000000000000000000000MYR00000000000MYR00000000000MYR00000000000MYR000000000000000             
S11D  J25202310170001200807Other toilet_ household artticles of plastic                          392490900GB00000009000000KGM00000009000000KGM0000008337060000000075034A02000000000000000000   0000015007242 01000000000000000000   0000009004042N00000000000000000000   0000000000 00000000000000000000   00000000000000024011000000000000000000000MYR00000000000MYR00000000000MYR00000000000MYR000000000000000             
S11R  J252023101700012008Perfumed bath salts and other bath preparations                       Room perfuming preparations                                           Other perfumery- cosmetic or toilet preparations                      Soap for Toilet Use - others                                          Organic surface-active preparations for washing skin                  Candles_ tapers and the like                                          Other toilet_ household artticles of plastic                          
S11D  J25202310170001200901Kraft Paper More Than 225g/M2-other                                   480439900GB00000008000000KGM00000008000000KGM0000013848810000000110790A01000000000000000000   0000011079262 01000000000000000000   0000012187055N00000000000000000000   0000000000 00000000000000000000   00000000000000023266000000000000000000000MYR00000000000MYR00000000000MYR00000000000MYR000000000000000             
S11D 1J25202310170001200902Plastic boxes_ cases_ crate - other                                   000000000ID00000006000000KGM00000006000000KGM0000003047280000000018284A02000000000000000000   0000003657242 01000000000000000000   0000002194042N00000000000000000000   0000000000 00000000000000000000   00000000000000005851000000000000000000000MYR00000000000MYR00000000000MYR00000000000MYR000000000000000   3923109000
S11D 1J25202310170001200903Wigs_ eyelashes_ switches of human hair                               000000000ID00000006000000KGM00000006000000KGM0000001490880000000008945A01000000000000000000   0000000895253 01000000000000000000   0000000984057N00000000000000000000   0000000000 00000000000000000000   00000000000000001879000000000000000000000MYR00000000000MYR00000000000MYR00000000000MYR000000000000000   6704200000
S11D 1J25202310170001200904Wigs_ eyelashes_ switches - synthetic material- other                 000000000ID00000026000000KGM00000026000000KGM0000001771050000000046047A01000000000000000000   0000004605253 01000000000000000000   0000005065057N00000000000000000000   0000000000 00000000000000000000   00000000000000009670000000000000000000000MYR00000000000MYR00000000000MYR00000000000MYR000000000000000   6704900000
S11D  J25202310170001200905Sacks and bags_ including cones                                       481940000IN00000020000000KGM00000020000000KGM0000000207090000000004142A02500000000000000000   0000001036262 01000000000000000000   0000000518055N00000000000000000000   0000000000 00000000000000000000   00000000000000001554000000000000000000000MYR00000000000MYR00000000000MYR00000000000MYR000000000000000             
S11D  J25202310170001200906Lip make-up preparations                                              330410000IT00002660000000KGM00002660000000KGM0000001835920000004883547N00000000000000000000   0000000000261 00500000000000000000   0000244177054N00000000000000000000   0000000000 00000000000000000000   00000000000000244177000000000000000000000MYR00000000000MYR00000000000MYR00000000000MYR000000000000000             
S11D  J25202310170001200907Eye make-up preparations                                              330420000IT00000445000000KGM00000445000000KGM0000002171450000000966295N00000000000000000000   0000000000261 00500000000000000000   0000048315054N00000000000000000000   0000000000 00000000000000000000   00000000000000048315000000000000000000000MYR00000000000MYR00000000000MYR00000000000MYR000000000000000             
S11R  J252023101700012009Kraft Paper More Than 225g/M2-other                                   Plastic boxes_ cases_ crate - other                                   Wigs_ eyelashes_ switches of human hair                               Wigs_ eyelashes_ switches - synthetic material- other                 Sacks and bags_ including cones                                       Lip make-up preparations                                              Eye make-up preparations                                              
S11D  J25202310170001201001Powders- whether or not compressed                                    330491000IT00001260000000KGM00001260000000KGM0000003527230000004444310N00000000000000000000   0000000000261 00500000000000000000   0000222216054N00000000000000000000   0000000000 00000000000000000000   00000000000000222216000000000000000000000MYR00000000000MYR00000000000MYR00000000000MYR000000000000000             
S11D  J25202310170001201002Other face or skin creams and lotions - others                        330499900IT00000087000000KGM00000087000000KGM0000003793670000000330049N00000000000000000000   0000000000261 00500000000000000000   0000016502054N00000000000000000000   0000000000 00000000000000000000   00000000000000016502000000000000000000000MYR00000000000MYR00000000000MYR00000000000MYR000000000000000             
S11D  J25202310170001201003Lip make-up preparations                                              330410000JP00000006000000KGM00000006000000KGM0000003144620000000018868N00000000000000000000   0000000000261 00500000000000000000   0000000943054N00000000000000000000   0000000000 00000000000000000000   00000000000000000943000000000000000000000MYR00000000000MYR00000000000MYR00000000000MYR000000000000000             
S11D  J25202310170001201004Eye make-up preparations                                              330420000JP00000663000000KGM00000663000000KGM0000002344810000001554609N00000000000000000000   0000000000261 00500000000000000000   0000077730054N00000000000000000000   0000000000 00000000000000000000   00000000000000077730000000000000000000000MYR00000000000MYR00000000000MYR00000000000MYR000000000000000             
S11D  J25202310170001201005Powders- whether or not compressed                                    330491000JP00001064000000KGM00001064000000KGM0000003848640000004094953N00000000000000000000   0000000000261 00500000000000000000   0000204748054N00000000000000000000   0000000000 00000000000000000000   00000000000000204748000000000000000000000MYR00000000000MYR00000000000MYR00000000000MYR000000000000000             
S11D  J25202310170001201006Anti-acne preparations                                                330499200JP00000007000000KGM00000007000000KGM0000006927940000000048496N00000000000000000000   0000000000261 00500000000000000000   0000002425054N00000000000000000000   0000000000 00000000000000000000   00000000000000002425000000000000000000000MYR00000000000MYR00000000000MYR00000000000MYR000000000000000             
S11D  J25202310170001201007Other face or skin creams and lotions                                 330499300JP00000436000000KGM00000436000000KGM0000002546650000001110339N00000000000000000000   0000000000261 00500000000000000000   0000055517054N00000000000000000000   0000000000 00000000000000000000   00000000000000055517000000000000000000000MYR00000000000MYR00000000000MYR00000000000MYR000000000000000             
S11R  J252023101700012010Powders- whether or not compressed                                    Other face or skin creams and lotions - others                        Lip make-up preparations                                              Eye make-up preparations                                              Powders- whether or not compressed                                    Anti-acne preparations                                                Other face or skin creams and lotions                                 
S11D  J25202310170001201101Other face or skin creams and lotions - others                        330499900JP00000971000000KGM00000971000000KGM0000004595620000004462347N00000000000000000000   0000000000261 00500000000000000000   0000223117054N00000000000000000000   0000000000 00000000000000000000   00000000000000223117000000000000000000000MYR00000000000MYR00000000000MYR00000000000MYR000000000000000             
S11D  J25202310170001201102Other perfumery- cosmetic or toilet preparations                      330790900JP00000008000000KGM00000008000000KGM0000012976560000000103812N00000000000000000000   0000000000261 01000000000000000000   0000010381054N00000000000000000000   0000000000 00000000000000000000   00000000000000010381000000000000000000000MYR00000000000MYR00000000000MYR00000000000MYR000000000000000             
S11D  J25202310170001201103Organic surface-active preparations for washing skin                  340130000JP00000059000000KGM00000059000000KGM0000002375260000000140140N00000000000000000000   0000000000278 01000000000000000000   0000014014040N00000000000000000000   0000000000 00000000000000000000   00000000000000014014000000000000000000000MYR00000000000MYR00000000000MYR00000000000MYR000000000000000             
S11D  J25202310170001201104Brushes for application of cosmetics                                  960330000JP00000051000000UNT00000051000000UNT0000002618970000000133567A00500000000000000000   0000006678253 01000000000000000000   0000014025057N00000000000000000000   0000000000 00000000000000000000   00000000000000020703000000000000000000000MYR00000000000MYR00000000000MYR00000000000MYR000000000000000             
S11D  J25202310170001201105Scent Sprayer                                                         961590990JP00000034000000KGM00000034000000KGM0000003595550000000122249A01000000000000000000   0000012225253 01000000000000000000   0000013447057N00000000000000000000   0000000000 00000000000000000000   00000000000000025672000000000000000000000MYR00000000000MYR00000000000MYR00000000000MYR000000000000000             
S11D 1J25202310170001201106Lip make-up preparations                                              000000000KR00001215000000KGM00001215000000KGM0000002448780000002975268N00000000000000000000   0000000000261 00500000000000000000   0000148763054N00000000000000000000   0000000000 00000000000000000000   00000000000000148763000000000000000000000MYR00000000000MYR00000000000MYR00000000000MYR000000000000000   3304100000
S11D 1J25202310170001201107Eye make-up preparations                                              000000000KR00000410000000KGM00000410000000KGM0000001663160000000681896N00000000000000000000   0000000000261 00500000000000000000   0000034095054N00000000000000000000   0000000000 00000000000000000000   00000000000000034095000000000000000000000MYR00000000000MYR00000000000MYR00000000000MYR000000000000000   3304200000
S11R  J252023101700012011Other face or skin creams and lotions - others                        Other perfumery- cosmetic or toilet preparations                      Organic surface-active preparations for washing skin                  Brushes for application of cosmetics                                  Scent Sprayer                                                         Lip make-up preparations                                              Eye make-up preparations                                              
S11D 1J25202310170001201201Other face or skin creams and lotions - others                        000000000KR00000016000000KGM00000016000000KGM0000005843820000000093501N00000000000000000000   0000000000261 00500000000000000000   0000004675054N00000000000000000000   0000000000 00000000000000000000   00000000000000004675000000000000000000000MYR00000000000MYR00000000000MYR00000000000MYR000000000000000   3304999000
S11D 1J25202310170001201202Organic surface-active preparations for washing skin                  000000000KR00000036000000KGM00000036000000KGM0000002157010000000077652N00000000000000000000   0000000000278 01000000000000000000   0000007765040N00000000000000000000   0000000000 00000000000000000000   00000000000000007765000000000000000000000MYR00000000000MYR00000000000MYR00000000000MYR000000000000000   3401300000
S11D 1J25202310170001201203Other articles of plastics or other materials - other                 000000000KR00000200000000KGM00000200000000KGM0000000009560000000001912A02000000000000000000   0000000382242 01000000000000000000   0000000229042N00000000000000000000   0000000000 00000000000000000000   00000000000000000611000000000000000000000MYR00000000000MYR00000000000MYR00000000000MYR000000000000000   3926909900
S11D  J25202310170001201204Perfumes and toilet waters                                            330300000PL00000004000000KGM00000004000000KGM0000002736500000000010946N00000000000000000000   0000000000253 00500000000000000000   0000000547057N00000000000000000000   0000000000 00000000000000000000   00000000000000000547000000000000000000000MYR00000000000MYR00000000000MYR00000000000MYR000000000000000             
S11D 1J25202310170001201205Other face or skin creams and lotions - others                        000000000SG00000051000000KGM00000051000000KGM0000002594410000000132315N00000000000000000000   0000000000261 00500000000000000000   0000006616054N00000000000000000000   0000000000 00000000000000000000   00000000000000006616000000000000000000000MYR00000000000MYR00000000000MYR00000000000MYR000000000000000   3304999000
S11D 1J25202310170001201206Natural Sponges_ powder-puff for applying cosmetics                   000000000TH00000042000000KGM00000042000000KGM0000000901950000000037882A02000000000000000000   0000007576253 01000000000000000000   0000004546057N00000000000000000000   0000000000 00000000000000000000   00000000000000012122000000000000000000000MYR00000000000MYR00000000000MYR00000000000MYR000000000000000   9616200000
S11D  J25202310170001201207Perfumes and toilet waters                                            330300000US00001025000000KGM00001025000000KGM0000001690490000001732752N00000000000000000000   0000000000253 00500000000000000000   0000086638057N00000000000000000000   0000000000 00000000000000000000   00000000000000086638000000000000000000000MYR00000000000MYR00000000000MYR00000000000MYR000000000000000             
S11R  J252023101700012012Other face or skin creams and lotions - others                        Organic surface-active preparations for washing skin                  Other articles of plastics or other materials - other                 Perfumes and toilet waters                                            Other face or skin creams and lotions - others                        Natural Sponges_ powder-puff for applying cosmetics                   Perfumes and toilet waters                                            
S11D  J25202310170001201301Lip make-up preparations                                              330410000US00001826000000KGM00001826000000KGM0000002647020000004833459N00000000000000000000   0000000000261 00500000000000000000   0000241673054N00000000000000000000   0000000000 00000000000000000000   00000000000000241673000000000000000000000MYR00000000000MYR00000000000MYR00000000000MYR000000000000000             
S11D  J25202310170001201302Eye make-up preparations                                              330420000US00000776000000KGM00000776000000KGM0000002400590000001862858N00000000000000000000   0000000000261 00500000000000000000   0000093143054N00000000000000000000   0000000000 00000000000000000000   00000000000000093143000000000000000000000MYR00000000000MYR00000000000MYR00000000000MYR000000000000000             
S11D  J25202310170001201303Powders- whether or not compressed                                    330491000US00001958000000KGM00001958000000KGM0000003240290000006344488N00000000000000000000   0000000000261 00500000000000000000   0000317224054N00000000000000000000   0000000000 00000000000000000000   00000000000000317224000000000000000000000MYR00000000000MYR00000000000MYR00000000000MYR000000000000000             
S11D  J25202310170001201304Other face or skin creams and lotions                                 330499300US00000505000000KGM00000505000000KGM0000003980450000002010127N00000000000000000000   0000000000261 00500000000000000000   0000100506054N00000000000000000000   0000000000 00000000000000000000   00000000000000100506000000000000000000000MYR00000000000MYR00000000000MYR00000000000MYR000000000000000             
S11D  J25202310170001201305Other face or skin creams and lotions - others                        330499900US00001924000000KGM00001924000000KGM0000002935160000005647248N00000000000000000000   0000000000261 00500000000000000000   0000282362054N00000000000000000000   0000000000 00000000000000000000   00000000000000282362000000000000000000000MYR00000000000MYR00000000000MYR00000000000MYR000000000000000             
S11D  J25202310170001201306Shampoos - other                                                      330510900US00000080000000KGM00000080000000KGM0000000100770000000008062N00000000000000000000   0000000000261 01000000000000000000   0000000806054N00000000000000000000   0000000000 00000000000000000000   00000000000000000806000000000000000000000MYR00000000000MYR00000000000MYR00000000000MYR000000000000000             
S11D  J25202310170001201307Preparations for use on the hair - other                              330590000US00000140000000KGM00000140000000KGM0000000100170000000014024N00000000000000000000   0000000000261 01000000000000000000   0000001402054N00000000000000000000   0000000000 00000000000000000000   00000000000000001402000000000000000000000MYR00000000000MYR00000000000MYR00000000000MYR000000000000000             
S11R  J252023101700012013Lip make-up preparations                                              Eye make-up preparations                                              Powders- whether or not compressed                                    Other face or skin creams and lotions                                 Other face or skin creams and lotions - others                        Shampoos - other                                                      Preparations for use on the hair - other                              
S11D  J25202310170001201401Pre-shave_ Shaving and after shave preparations                       330710000US00000033000000KGM00000033000000KGM0000000376800000000012434N00000000000000000000   0000000000261 01000000000000000000   0000001243054N00000000000000000000   0000000000 00000000000000000000   00000000000000001243000000000000000000000MYR00000000000MYR00000000000MYR00000000000MYR000000000000000             
S11D  J25202310170001201402Soap for Toilet Use - others                                          340111900US00000019000000KGM00000019000000KGM0000004647340000000088299N00000000000000000000   0000000000278 01000000000000000000   0000008830040N00000000000000000000   0000000000 00000000000000000000   00000000000000008830000000000000000000000MYR00000000000MYR00000000000MYR00000000000MYR000000000000000             
S11D  J25202310170001201403Organic surface-active preparations for washing skin                  340130000US00000301000000KGM00000301000000KGM0000002457670000000739759N00000000000000000000   0000000000278 01000000000000000000   0000073976040N00000000000000000000   0000000000 00000000000000000000   00000000000000073976000000000000000000000MYR00000000000MYR00000000000MYR00000000000MYR000000000000000             
S11D  J25202310170001201404Organic surface-active agents - other - other                         340290990US00000002000000KGM00000002000000KGM0000001890500000000003781N00000000000000000000   0000000000278 01000000000000000000   0000000378040N00000000000000000000   0000000000 00000000000000000000   00000000000000000378000000000000000000000MYR00000000000MYR00000000000MYR00000000000MYR000000000000000             
S11D  J25202310170001201405Candles_ tapers and the like                                          340600000US00000041000000KGM00000041000000KGM0000012396960000000508275A01500000000000000000   0000076241253 00000000000000000000   0000000000057N00000000000000000000   0000000000 00000000000000000000   00000000000000076241000000000000000000000MYR00000000000MYR00000000000MYR00000000000MYR000000000000000             
S11D  J25202310170001201406Prepared glues - adhesive - other                                     350699000US00000060000000KGM00000060000000KGM0000002724940000000163496A02500000000000000000   0000040874281 01000000000000000000   0000020437057N00000000000000000000   0000000000 00000000000000000000   00000000000000061311000000000000000000000MYR00000000000MYR00000000000MYR00000000000MYR000000000000000             
S11D  J25202310170001201407Kraft Paper More Than 225g/M2-other                                   480439900US00000040000000KGM00000040000000KGM0000000031450000000001258A01000000000000000000   0000000126262 01000000000000000000   0000000138055N00000000000000000000   0000000000 00000000000000000000   00000000000000000264000000000000000000000MYR00000000000MYR00000000000MYR00000000000MYR000000000000000             
S11R  J252023101700012014Pre-shave_ Shaving and after shave preparations                       Soap for Toilet Use - others                                          Organic surface-active preparations for washing skin                  Organic surface-active agents - other - other                         Candles_ tapers and the like                                          Prepared glues - adhesive - other                                     Kraft Paper More Than 225g/M2-other                                   
S11D  J25202310170001201501Letter cards_ postcards and corresponding cards                       481720000US00005000000000KGM00005000000000KGM0000000013520000000067600A02000000000000000000   0000013520262 01000000000000000000   0000008112055N00000000000000000000   0000000000 00000000000000000000   00000000000000021632000000000000000000000MYR00000000000MYR00000000000MYR00000000000MYR000000000000000             
S11D  J25202310170001201502Other packing containers_ including record sleeves                    481950000US00000250000000KGM00000250000000KGM0000000053140000000013285A02500000000000000000   0000003321262 01000000000000000000   0000001661055N00000000000000000000   0000000000 00000000000000000000   00000000000000004982000000000000000000000MYR00000000000MYR00000000000MYR00000000000MYR000000000000000             
S11D  J25202310170001201503Brushes for application of cosmetics                                  960330000US00000005000000UNT00000005000000UNT0000005742680000000028713A00500000000000000000   0000001436253 01000000000000000000   0000003015057N00000000000000000000   0000000000 00000000000000000000   00000000000000004451000000000000000000000MYR00000000000MYR00000000000MYR00000000000MYR000000000000000             
S11R  J252023101700012015Letter cards_ postcards and corresponding cards                       Other packing containers_ including record sleeves                    Brushes for application of cosmetics                                                                                                                                                                                                                                                                                                                          
S11H  J2520231017000130090D I ESTEE LAUDER DISTRIBUTION CENTER PL24 Penjuru Road #09-05/06 CWT Commodity HUB Singapore 609128                                             B452192H       ESTEE LAUDER MALAYSIA SDN. BHD.    S 18.01, LEVEL 18, CENTREPOINT SOUTH THE BOULEVARD, MID VALLEY CITY, LING SYED PUTRA 59200 KUALA LUMPUR                                           320230104                                       00000000NDC7775     T/BD4750    TKPMYTUASG                    00000000                                         0000              0000                     00000             sg0000056790000000000000000574103000005679240000000050000000224100000000010500000010000MYR20230105103220230104120020230105103620230104120000041263000000000000590816085127THAI SEONG                         WAREHOUSE MANAGER                                                                                                                                               JOB01012023B - COSMETICS                                                                                                                       0000        JOB01012023B                                        0000              0000                                            
S11D  J25202310170001300101Lip make-up preparations                                              330410000BE00000336000000KGM00000336000000KGM0000002842910000000955218N00000000000000000000   0000000000261 00500000000000000000   0000047761054N00000000000000000000   0000000000 00000000000000000000   00000000000000047761000000000000000000000MYR00000000000MYR00000000000MYR00000000000MYR000000000000000             
S11D  J25202310170001300102Eye make-up preparations                                              330420000BE00000020000000KGM00000020000000KGM0000001636420000000032728N00000000000000000000   0000000000261 00500000000000000000   0000001636054N00000000000000000000   0000000000 00000000000000000000   00000000000000001636000000000000000000000MYR00000000000MYR00000000000MYR00000000000MYR000000000000000             
S11D  J25202310170001300103Powders- whether or not compressed                                    330491000BE00000027000000KGM00000027000000KGM0000005210680000000140688N00000000000000000000   0000000000261 00500000000000000000   0000007034054N00000000000000000000   0000000000 00000000000000000000   00000000000000007034000000000000000000000MYR00000000000MYR00000000000MYR00000000000MYR000000000000000             
S11D  J25202310170001300104Other face or skin creams and lotions                                 330499300BE00000030000000KGM00000030000000KGM0000001806780000000054203N00000000000000000000   0000000000261 00500000000000000000   0000002710054N00000000000000000000   0000000000 00000000000000000000   00000000000000002710000000000000000000000MYR00000000000MYR00000000000MYR00000000000MYR000000000000000             
S11D  J25202310170001300105Other face or skin creams and lotions - others                        330499900BE00000351000000KGM00000351000000KGM0000004632410000001625976N00000000000000000000   0000000000261 00500000000000000000   0000081299054N00000000000000000000   0000000000 00000000000000000000   00000000000000081299000000000000000000000MYR00000000000MYR00000000000MYR00000000000MYR000000000000000             
S11D  J25202310170001300106Organic surface-active preparations for washing skin                  340130000BE00000006000000KGM00000006000000KGM0000002693830000000016163N00000000000000000000   0000000000278 01000000000000000000   0000001616040N00000000000000000000   0000000000 00000000000000000000   00000000000000001616000000000000000000000MYR00000000000MYR00000000000MYR00000000000MYR000000000000000             
S11D  J25202310170001300107Perfumes and toilet waters                                            330300000CA00000020000000KGM00000020000000KGM0000002480100000000049602N00000000000000000000   0000000000253 00500000000000000000   0000002480057N00000000000000000000   0000000000 00000000000000000000   00000000000000002480000000000000000000000MYR00000000000MYR00000000000MYR00000000000MYR000000000000000             
S11R  J252023101700013001Lip make-up preparations                                              Eye make-up preparations                                              Powders- whether or not compressed                                    Other face or skin creams and lotions                                 Other face or skin creams and lotions - others                        Organic surface-active preparations for washing skin                  Perfumes and toilet waters                                            
S11D  J25202310170001300201Lip make-up preparations                                              330410000CA00001417000000KGM00001417000000KGM0000001435010000002033409N00000000000000000000   0000000000261 00500000000000000000   0000101670054N00000000000000000000   0000000000 00000000000000000000   00000000000000101670000000000000000000000MYR00000000000MYR00000000000MYR00000000000MYR000000000000000             
S11D  J25202310170001300202Eye make-up preparations                                              330420000CA00000119000000KGM00000119000000KGM0000002264120000000269430N00000000000000000000   0000000000261 00500000000000000000   0000013472054N00000000000000000000   0000000000 00000000000000000000   00000000000000013472000000000000000000000MYR00000000000MYR00000000000MYR00000000000MYR000000000000000             
S11D  J25202310170001300203Other face or skin creams and lotions                                 330499300CA00000237000000KGM00000237000000KGM0000001939160000000459581N00000000000000000000   0000000000261 00500000000000000000   0000022979054N00000000000000000000   0000000000 00000000000000000000   00000000000000022979000000000000000000000MYR00000000000MYR00000000000MYR00000000000MYR000000000000000             
S11D  J25202310170001300204Other face or skin creams and lotions - others                        330499900CA00000328000000KGM00000328000000KGM0000004973400000001631275N00000000000000000000   0000000000261 00500000000000000000   0000081564054N00000000000000000000   0000000000 00000000000000000000   00000000000000081564000000000000000000000MYR00000000000MYR00000000000MYR00000000000MYR000000000000000             
S11D  J25202310170001300205Pre-shave_ Shaving and after shave preparations                       330710000CA00000012000000KGM00000012000000KGM0000006509650000000078116N00000000000000000000   0000000000261 01000000000000000000   0000007812054N00000000000000000000   0000000000 00000000000000000000   00000000000000007812000000000000000000000MYR00000000000MYR00000000000MYR00000000000MYR000000000000000             
S11D  J25202310170001300206Soap in other forms:                                                  340120990CA00000002000000KGM00000002000000KGM0000006416050000000012832N00000000000000000000   0000000000278 01000000000000000000   0000001283040N00000000000000000000   0000000000 00000000000000000000   00000000000000001283000000000000000000000MYR00000000000MYR00000000000MYR00000000000MYR000000000000000             
S11D  J25202310170001300207Organic surface-active preparations for washing skin                  340130000CA00000027000000KGM00000027000000KGM0000006546570000000176757N00000000000000000000   0000000000278 01000000000000000000   0000017676040N00000000000000000000   0000000000 00000000000000000000   00000000000000017676000000000000000000000MYR00000000000MYR00000000000MYR00000000000MYR000000000000000             
S11R  J252023101700013002Lip make-up preparations                                              Eye make-up preparations                                              Other face or skin creams and lotions                                 Other face or skin creams and lotions - others                        Pre-shave_ Shaving and after shave preparations                       Soap in other forms:                                                  Organic surface-active preparations for washing skin                  
S11D  J25202310170001300301Printed  or illustrated postcards; greetings_ messages                490900000CA00000200000000KGM00000200000000KGM0000000410930000000082186A02000000000000000000   0000016437262 00000000000000000000   0000000000055N00000000000000000000   0000000000 00000000000000000000   00000000000000016437000000000000000000000MYR00000000000MYR00000000000MYR00000000000MYR000000000000000             
S11D  J25202310170001300302Perfumes and toilet waters                                            330300000CH00000080000000KGM00000080000000KGM0000010965060000000877205N00000000000000000000   0000000000253 00500000000000000000   0000043860057N00000000000000000000   0000000000 00000000000000000000   00000000000000043860000000000000000000000MYR00000000000MYR00000000000MYR00000000000MYR000000000000000             
S11D  J25202310170001300303Other face or skin creams and lotions - others                        330499900CH00000005000000KGM00000005000000KGM0000002633340000000013167N00000000000000000000   0000000000261 00500000000000000000   0000000658054N00000000000000000000   0000000000 00000000000000000000   00000000000000000658000000000000000000000MYR00000000000MYR00000000000MYR00000000000MYR000000000000000             
S11D 1J25202310170001300304Lip make-up preparations                                              000000000CN00000023000000KGM00000023000000KGM0000010798930000000248375N00000000000000000000   0000000000261 00500000000000000000   0000012419054N00000000000000000000   0000000000 00000000000000000000   00000000000000012419000000000000000000000MYR00000000000MYR00000000000MYR00000000000MYR000000000000000   3304100000
S11D 1J25202310170001300305Other face or skin creams and lotions - others                        000000000CN00000616000000KGM00000616000000KGM0000003859260000002377304N00000000000000000000   0000000000261 00500000000000000000   0000118865054N00000000000000000000   0000000000 00000000000000000000   00000000000000118865000000000000000000000MYR00000000000MYR00000000000MYR00000000000MYR000000000000000   3304999000
S11D 1J25202310170001300306Room perfuming preparations                                           000000000CN00000009000000KGM00000009000000KGM0000001183070000000010648N00000000000000000000   0000000000253 01000000000000000000   0000001065057N00000000000000000000   0000000000 00000000000000000000   00000000000000001065000000000000000000000MYR00000000000MYR00000000000MYR00000000000MYR000000000000000   3307499000
S11D 1J25202310170001300307Plastic boxes_ cases_ crate - other                                   000000000CN00000054000000KGM00000054000000KGM0000002887320000000155915A02000000000000000000   0000031183242 01000000000000000000   0000018710042N00000000000000000000   0000000000 00000000000000000000   00000000000000049893000000000000000000000MYR00000000000MYR00000000000MYR00000000000MYR000000000000000   3923109000
S11R  J252023101700013003Printed  or illustrated postcards; greetings_ messages                Perfumes and toilet waters                                            Other face or skin creams and lotions - others                        Lip make-up preparations                                              Other face or skin creams and lotions - others                        Room perfuming preparations                                           Plastic boxes_ cases_ crate - other                                   
S11D 1J25202310170001300401Other bags of outer surface of plastics or textile                    000000000CN00000400000000KGM00000400000000KGM0000001501860000000600744N00000000000000000000   0000000000253 01000000000000000000   0000060074057N00000000000000000000   0000000000 00000000000000000000   00000000000000060074000000000000000000000MYR00000000000MYR00000000000MYR00000000000MYR000000000000000   4202929000
S11D 1J25202310170001300402Sacks and bags_ including cones                                       000000000CN00001750000000KGM00001750000000KGM0000000126090000000220658A02500000000000000000   0000055165262 01000000000000000000   0000027582055N00000000000000000000   0000000000 00000000000000000000   00000000000000082747000000000000000000000MYR00000000000MYR00000000000MYR00000000000MYR000000000000000   4819400000
S11D 1J25202310170001300403Other packing containers_ including record sleeves                    000000000CN00000770000000KGM00000770000000KGM0000000359430000000276761A02500000000000000000   0000069190262 01000000000000000000   0000034595055N00000000000000000000   0000000000 00000000000000000000   00000000000000103785000000000000000000000MYR00000000000MYR00000000000MYR00000000000MYR000000000000000   4819500000
S11D 1J25202310170001300404Box files_ letter trays_ storage boxes or similar articles            000000000CN00000852000000KGM00000852000000KGM0000000357730000000304786A02500000000000000000   0000076197262 01000000000000000000   0000038098055N00000000000000000000   0000000000 00000000000000000000   00000000000000114295000000000000000000000MYR00000000000MYR00000000000MYR00000000000MYR000000000000000   4819600000
S11D 1J25202310170001300405Ribbon - other material                                               000000000CN00000006000000KGM00000006000000KGM0000003382570000000020295A02000000000000000000   0000004059225 01000000000000000000   0000002435025N00000000000000000000   0000000000 00000000000000000000   00000000000000006494000000000000000000000MYR00000000000MYR00000000000MYR00000000000MYR000000000000000   5806329000
S11D 1J25202310170001300406Footwear-  other                                                      000000000CN00000012000000KGM00000012000000KGM0000000630790000000007569A02000000000000000000   0000001514225 01000000000000000000   0000000908025N00000000000000000000   0000000000 00000000000000000000   00000000000000002422000000000000000000000MYR00000000000MYR00000000000MYR00000000000MYR000000000000000   6307909000
S11D 1J25202310170001300407Bottle caps screw caps of others                                      000000000CN00000336000000KGM00000336000000KGM0000000622230000000209069A00500000000000000000   0000010453292 01000000000000000000   0000021952057N00000000000000000000   0000000000 00000000000000000000   00000000000000032405000000000000000000000MYR00000000000MYR00000000000MYR00000000000MYR000000000000000   8309909900
S11R  J252023101700013004Other bags of outer surface of plastics or textile                    Sacks and bags_ including cones                                       Other packing containers_ including record sleeves                    Box files_ letter trays_ storage boxes or similar articles            Ribbon - other material                                               Footwear-  other                                                      Bottle caps screw caps of others                                      
S11D 1J25202310170001300501Furniture of plastics                                                 000000000CN00000022000000KGM00000022000000KGM0000004491200000000098806N00000000000000000000   0000000000234 01000000000000000000   0000009881034N00000000000000000000   0000000000 00000000000000000000   00000000000000009881000000000000000000000MYR00000000000MYR00000000000MYR00000000000MYR000000000000000   9403709000
S11D 1J25202310170001300502Brushes for application of cosmetics                                  000000000CN00000153000000UNT00000153000000UNT0000002801550000000428637A00500000000000000000   0000021432253 01000000000000000000   0000045007057N00000000000000000000   0000000000 00000000000000000000   00000000000000066439000000000000000000000MYR00000000000MYR00000000000MYR00000000000MYR000000000000000   9603300000
S11D  J25202310170001300503Lip make-up preparations                                              330410000CZ00000120000000KGM00000120000000KGM0000000924900000000110988N00000000000000000000   0000000000261 00500000000000000000   0000005549054N00000000000000000000   0000000000 00000000000000000000   00000000000000005549000000000000000000000MYR00000000000MYR00000000000MYR00000000000MYR000000000000000             
S11D  J25202310170001300504Eye make-up preparations                                              330420000CZ00000052000000KGM00000052000000KGM0000001938030000000100778N00000000000000000000   0000000000261 00500000000000000000   0000005039054N00000000000000000000   0000000000 00000000000000000000   00000000000000005039000000000000000000000MYR00000000000MYR00000000000MYR00000000000MYR000000000000000             
S11D  J25202310170001300505Lip make-up preparations                                              330410000DE00000062000000KGM00000062000000KGM0000001635720000000101415N00000000000000000000   0000000000261 00500000000000000000   0000005071054N00000000000000000000   0000000000 00000000000000000000   00000000000000005071000000000000000000000MYR00000000000MYR00000000000MYR00000000000MYR000000000000000             
S11D  J25202310170001300506Eye make-up preparations                                              330420000DE00000275000000KGM00000275000000KGM0000001604920000000441353N00000000000000000000   0000000000261 00500000000000000000   0000022068054N00000000000000000000   0000000000 00000000000000000000   00000000000000022068000000000000000000000MYR00000000000MYR00000000000MYR00000000000MYR000000000000000             
S11D  J25202310170001300507Glass stoppers- lids- other closures                                  701090990DE00000188000000KGM00000188000000KGM0000000263220000000049485A03000000000000000000   0000014846235 01000000000000000000   0000006433035N00000000000000000000   0000000000 00000000000000000000   00000000000000021279000000000000000000000MYR00000000000MYR00000000000MYR00000000000MYR000000000000000             
S11R  J252023101700013005Furniture of plastics                                                 Brushes for application of cosmetics                                  Lip make-up preparations                                              Eye make-up preparations                                              Lip make-up preparations                                              Eye make-up preparations                                              Glass stoppers- lids- other closures                                  
S11D  J25202310170001300601Knives- sharpeners- blades thereof                                    821410000DE00000012000000KGM00000012000000KGM0000000742160000000008906A02500000000000000000   0000002227292 01000000000000000000   0000001113057N00000000000000000000   0000000000 00000000000000000000   00000000000000003340000000000000000000000MYR00000000000MYR00000000000MYR00000000000MYR000000000000000             
S11D  J25202310170001300602Bottle caps screw caps of others                                      830990990DE00000007000000KGM00000007000000KGM0000002065660000000014460A00500000000000000000   0000000723292 01000000000000000000   0000001518057N00000000000000000000   0000000000 00000000000000000000   00000000000000002241000000000000000000000MYR00000000000MYR00000000000MYR00000000000MYR000000000000000             
S11D  J25202310170001300603Hand-operated household sprayers                                      842489100DE00000102000000UNT00000102000000UNT0000000853880000000087096N00000000000000000000   0000000000233 00000000000000000000   0000000000033N00000000000000000000   0000000000 00000000000000000000   00000000000000000000000000000000000000000MYR00000000000MYR00000000000MYR00000000000MYR000000000000000             
S11D  J25202310170001300604Room perfuming preparations                                           330749100FR00000058000000KGM00000058000000KGM0000005042290000000292453N00000000000000000000   0000000000253 01000000000000000000   0000029245057N00000000000000000000   0000000000 00000000000000000000   00000000000000029245000000000000000000000MYR00000000000MYR00000000000MYR00000000000MYR000000000000000             
S11D  J25202310170001300605Other articles of plastics or other materials - other                 392690990FR00000032000000KGM00000032000000KGM0000007648130000000244740A02000000000000000000   0000048948242 01000000000000000000   0000029369042N00000000000000000000   0000000000 00000000000000000000   00000000000000078317000000000000000000000MYR00000000000MYR00000000000MYR00000000000MYR000000000000000             
S11D  J25202310170001300606Brushes for application of cosmetics                                  960330000FR00000015000000UNT00000015000000UNT0000002246450000000033697A00500000000000000000   0000001685253 01000000000000000000   0000003538057N00000000000000000000   0000000000 00000000000000000000   00000000000000005223000000000000000000000MYR00000000000MYR00000000000MYR00000000000MYR000000000000000             
S11D  J25202310170001300607Scent sprays and similar toilet sprays                                961610100FR00000120000000KGM00000120000000KGM0000000250490000000030059A00500000000000000000   0000001503253 01000000000000000000   0000003156057N00000000000000000000   0000000000 00000000000000000000   00000000000000004659000000000000000000000MYR00000000000MYR00000000000MYR00000000000MYR000000000000000             
S11R  J252023101700013006Knives- sharpeners- blades thereof                                    Bottle caps screw caps of others                                      Hand-operated household sprayers                                      Room perfuming preparations                                           Other articles of plastics or other materials - other                 Brushes for application of cosmetics                                  Scent sprays and similar toilet sprays                                
S11D  J25202310170001300701Perfumes and toilet waters                                            330300000GB00004059000000KGM00004059000000KGM0000003079830000012501030N00000000000000000000   0000000000253 00500000000000000000   0000625052057N00000000000000000000   0000000000 00000000000000000000   00000000000000625052000000000000000000000MYR00000000000MYR00000000000MYR00000000000MYR000000000000000             
S11D  J25202310170001300702Other face or skin creams and lotions                                 330499300GB00000153000000KGM00000153000000KGM0000004461910000000682672N00000000000000000000   0000000000261 00500000000000000000   0000034134054N00000000000000000000   0000000000 00000000000000000000   00000000000000034134000000000000000000000MYR00000000000MYR00000000000MYR00000000000MYR000000000000000             
S11D  J25202310170001300703Other face or skin creams and lotions - others                        330499900GB00000495000000KGM00000495000000KGM0000002168700000001073507N00000000000000000000   0000000000261 00500000000000000000   0000053675054N00000000000000000000   0000000000 00000000000000000000   00000000000000053675000000000000000000000MYR00000000000MYR00000000000MYR00000000000MYR000000000000000             
S11D  J25202310170001300704Shampoos - other                                                      330510900GB00000005000000KGM00000005000000KGM0000003160020000000015800N00000000000000000000   0000000000261 01000000000000000000   0000001580054N00000000000000000000   0000000000 00000000000000000000   00000000000000001580000000000000000000000MYR00000000000MYR00000000000MYR00000000000MYR000000000000000             
S11D  J25202310170001300705Hair Lacquers                                                         330530000GB00000009000000KGM00000009000000KGM0000003889760000000035008N00000000000000000000   0000000000261 01000000000000000000   0000003501054N00000000000000000000   0000000000 00000000000000000000   00000000000000003501000000000000000000000MYR00000000000MYR00000000000MYR00000000000MYR000000000000000             
S11D  J25202310170001300706Perfumed bath salts and other bath preparations                       330730000GB00000002000000KGM00000002000000KGM0000003699800000000007400N00000000000000000000   0000000000261 01000000000000000000   0000000740054N00000000000000000000   0000000000 00000000000000000000   00000000000000000740000000000000000000000MYR00000000000MYR00000000000MYR00000000000MYR000000000000000             
S11D  J25202310170001300707Room perfuming preparations                                           330749100GB00000147000000KGM00000147000000KGM0000009048670000001330154N00000000000000000000   0000000000253 01000000000000000000   0000133015057N00000000000000000000   0000000000 00000000000000000000   00000000000000133015000000000000000000000MYR00000000000MYR00000000000MYR00000000000MYR000000000000000             
S11R  J252023101700013007Perfumes and toilet waters                                            Other face or skin creams and lotions                                 Other face or skin creams and lotions - others                        Shampoos - other                                                      Hair Lacquers                                                         Perfumed bath salts and other bath preparations                       Room perfuming preparations                                           
S11D  J25202310170001300801Other perfumery- cosmetic or toilet preparations                      330790900GB00000011000000KGM00000011000000KGM0000008080340000000088884N00000000000000000000   0000000000261 01000000000000000000   0000008888054N00000000000000000000   0000000000 00000000000000000000   00000000000000008888000000000000000000000MYR00000000000MYR00000000000MYR00000000000MYR000000000000000             
S11D  J25202310170001300802Soap for Toilet Use - others                                          340111900GB00000004000000KGM00000004000000KGM0000002033380000000008134N00000000000000000000   0000000000278 01000000000000000000   0000000813040N00000000000000000000   0000000000 00000000000000000000   00000000000000000813000000000000000000000MYR00000000000MYR00000000000MYR00000000000MYR000000000000000             
S11D  J25202310170001300803Organic surface-active preparations for washing skin                  340130000GB00000247000000KGM00000247000000KGM0000003050090000000753372N00000000000000000000   0000000000278 01000000000000000000   0000075337040N00000000000000000000   0000000000 00000000000000000000   00000000000000075337000000000000000000000MYR00000000000MYR00000000000MYR00000000000MYR000000000000000             
S11D  J25202310170001300804Candles_ tapers and the like                                          340600000GB00000283000000KGM00000283000000KGM0000006421710000001817344A01500000000000000000   0000272602253 00000000000000000000   0000000000057N00000000000000000000   0000000000 00000000000000000000   00000000000000272602000000000000000000000MYR00000000000MYR00000000000MYR00000000000MYR000000000000000             
S11D  J25202310170001300805Kraft Paper More Than 225g/M2-other                                   480439900GB00000003000000KGM00000003000000KGM0000013855130000000041565A01000000000000000000   0000004157262 01000000000000000000   0000004572055N00000000000000000000   0000000000 00000000000000000000   00000000000000008729000000000000000000000MYR00000000000MYR00000000000MYR00000000000MYR000000000000000             
S11D 1J25202310170001300806Wigs_ eyelashes_ switches - synthetic material- other                 000000000ID00000001000000KGM00000001000000KGM0000002421100000000002421A01000000000000000000   0000000242253 01000000000000000000   0000000266057N00000000000000000000   0000000000 00000000000000000000   00000000000000000508000000000000000000000MYR00000000000MYR00000000000MYR00000000000MYR000000000000000   6704900000
S11D  J25202310170001300807Lip make-up preparations                                              330410000IT00000820000000KGM00000820000000KGM0000002354470000001930665N00000000000000000000   0000000000261 00500000000000000000   0000096533054N00000000000000000000   0000000000 00000000000000000000   00000000000000096533000000000000000000000MYR00000000000MYR00000000000MYR00000000000MYR000000000000000             
S11R  J252023101700013008Other perfumery- cosmetic or toilet preparations                      Soap for Toilet Use - others                                          Organic surface-active preparations for washing skin                  Candles_ tapers and the like                                          Kraft Paper More Than 225g/M2-other                                   Wigs_ eyelashes_ switches - synthetic material- other                 Lip make-up preparations                                              
S11D  J25202310170001300901Eye make-up preparations                                              330420000IT00000350000000KGM00000350000000KGM0000004626730000001619356N00000000000000000000   0000000000261 00500000000000000000   0000080968054N00000000000000000000   0000000000 00000000000000000000   00000000000000080968000000000000000000000MYR00000000000MYR00000000000MYR00000000000MYR000000000000000             
S11D  J25202310170001300902Powders- whether or not compressed                                    330491000IT00000361000000KGM00000361000000KGM0000003923690000001416452N00000000000000000000   0000000000261 00500000000000000000   0000070823054N00000000000000000000   0000000000 00000000000000000000   00000000000000070823000000000000000000000MYR00000000000MYR00000000000MYR00000000000MYR000000000000000             
S11D  J25202310170001300903Other face or skin creams and lotions - others                        330499900IT00000125000000KGM00000125000000KGM0000005573430000000696679N00000000000000000000   0000000000261 00500000000000000000   0000034834054N00000000000000000000   0000000000 00000000000000000000   00000000000000034834000000000000000000000MYR00000000000MYR00000000000MYR00000000000MYR000000000000000             
S11D  J25202310170001300904Eye make-up preparations                                              330420000JP00000254000000KGM00000254000000KGM0000002902850000000737324N00000000000000000000   0000000000261 00500000000000000000   0000036866054N00000000000000000000   0000000000 00000000000000000000   00000000000000036866000000000000000000000MYR00000000000MYR00000000000MYR00000000000MYR000000000000000             
S11D  J25202310170001300905Powders- whether or not compressed                                    330491000JP00000271000000KGM00000271000000KGM0000004158310000001126902N00000000000000000000   0000000000261 00500000000000000000   0000056345054N00000000000000000000   0000000000 00000000000000000000   00000000000000056345000000000000000000000MYR00000000000MYR00000000000MYR00000000000MYR000000000000000             
S11D  J25202310170001300906Other face or skin creams and lotions                                 330499300JP00000090000000KGM00000090000000KGM0000002485520000000223697N00000000000000000000   0000000000261 00500000000000000000   0000011185054N00000000000000000000   0000000000 00000000000000000000   00000000000000011185000000000000000000000MYR00000000000MYR00000000000MYR00000000000MYR000000000000000             
S11D  J25202310170001300907Other face or skin creams and lotions - others                        330499900JP00000130000000KGM00000130000000KGM0000004046200000000526006N00000000000000000000   0000000000261 00500000000000000000   0000026300054N00000000000000000000   0000000000 00000000000000000000   00000000000000026300000000000000000000000MYR00000000000MYR00000000000MYR00000000000MYR000000000000000             
S11R  J252023101700013009Eye make-up preparations                                              Powders- whether or not compressed                                    Other face or skin creams and lotions - others                        Eye make-up preparations                                              Powders- whether or not compressed                                    Other face or skin creams and lotions                                 Other face or skin creams and lotions - others                        
S11D  J25202310170001301001Brushes for application of cosmetics                                  960330000JP00000016000000UNT00000016000000UNT0000004941500000000079064A00500000000000000000   0000003953253 01000000000000000000   0000008302057N00000000000000000000   0000000000 00000000000000000000   00000000000000012255000000000000000000000MYR00000000000MYR00000000000MYR00000000000MYR000000000000000             
S11D  J25202310170001301002Scent Sprayer                                                         961590990JP00000009000000KGM00000009000000KGM0000003597170000000032375A01000000000000000000   0000003238253 01000000000000000000   0000003561057N00000000000000000000   0000000000 00000000000000000000   00000000000000006799000000000000000000000MYR00000000000MYR00000000000MYR00000000000MYR000000000000000             
S11D 1J25202310170001301003Lip make-up preparations                                              000000000KR00000180000000KGM00000180000000KGM0000002463000000000443340N00000000000000000000   0000000000261 00500000000000000000   0000022167054N00000000000000000000   0000000000 00000000000000000000   00000000000000022167000000000000000000000MYR00000000000MYR00000000000MYR00000000000MYR000000000000000   3304100000
S11D 1J25202310170001301004Eye make-up preparations                                              000000000KR00000149000000KGM00000149000000KGM0000001617360000000240987N00000000000000000000   0000000000261 00500000000000000000   0000012049054N00000000000000000000   0000000000 00000000000000000000   00000000000000012049000000000000000000000MYR00000000000MYR00000000000MYR00000000000MYR000000000000000   3304200000
S11D 1J25202310170001301005Other articles of plastics or other materials - other                 000000000KR00000050000000KGM00000050000000KGM0000000009540000000000477A02000000000000000000   0000000095242 01000000000000000000   0000000057042N00000000000000000000   0000000000 00000000000000000000   00000000000000000152000000000000000000000MYR00000000000MYR00000000000MYR00000000000MYR000000000000000   3926909900
S11D 1J25202310170001301006Natural Sponges_ powder-puff for applying cosmetics                   000000000TH00000015000000KGM00000015000000KGM0000000902380000000013536A02000000000000000000   0000002707253 01000000000000000000   0000001624057N00000000000000000000   0000000000 00000000000000000000   00000000000000004331000000000000000000000MYR00000000000MYR00000000000MYR00000000000MYR000000000000000   9616200000
S11D  J25202310170001301007Perfumes and toilet waters                                            330300000US00002132000000KGM00002132000000KGM0000003597780000007670467N00000000000000000000   0000000000253 00500000000000000000   0000383523057N00000000000000000000   0000000000 00000000000000000000   00000000000000383523000000000000000000000MYR00000000000MYR00000000000MYR00000000000MYR000000000000000             
S11R  J252023101700013010Brushes for application of cosmetics                                  Scent Sprayer                                                         Lip make-up preparations                                              Eye make-up preparations                                              Other articles of plastics or other materials - other                 Natural Sponges_ powder-puff for applying cosmetics                   Perfumes and toilet waters                                            
S11D  J25202310170001301101Lip make-up preparations                                              330410000US00000360000000KGM00000360000000KGM0000002722860000000980230N00000000000000000000   0000000000261 00500000000000000000   0000049012054N00000000000000000000   0000000000 00000000000000000000   00000000000000049012000000000000000000000MYR00000000000MYR00000000000MYR00000000000MYR000000000000000             
S11D  J25202310170001301102Eye make-up preparations                                              330420000US00000193000000KGM00000193000000KGM0000002427470000000468502N00000000000000000000   0000000000261 00500000000000000000   0000023425054N00000000000000000000   0000000000 00000000000000000000   00000000000000023425000000000000000000000MYR00000000000MYR00000000000MYR00000000000MYR000000000000000             
S11D  J25202310170001301103Powders- whether or not compressed                                    330491000US00000567000000KGM00000567000000KGM0000002943350000001668879N00000000000000000000   0000000000261 00500000000000000000   0000083444054N00000000000000000000   0000000000 00000000000000000000   00000000000000083444000000000000000000000MYR00000000000MYR00000000000MYR00000000000MYR000000000000000             
S11D  J25202310170001301104Other face or skin creams and lotions                                 330499300US00000080000000KGM00000080000000KGM0000003703680000000296294N00000000000000000000   0000000000261 00500000000000000000   0000014815054N00000000000000000000   0000000000 00000000000000000000   00000000000000014815000000000000000000000MYR00000000000MYR00000000000MYR00000000000MYR000000000000000             
S11D  J25202310170001301105Other face or skin creams and lotions - others                        330499900US00000698000000KGM00000698000000KGM0000002140900000001494348N00000000000000000000   0000000000261 00500000000000000000   0000074717054N00000000000000000000   0000000000 00000000000000000000   00000000000000074717000000000000000000000MYR00000000000MYR00000000000MYR00000000000MYR000000000000000             
S11D  J25202310170001301106Shampoos - other                                                      330510900US00000107000000KGM00000107000000KGM0000001098180000000117505N00000000000000000000   0000000000261 01000000000000000000   0000011751054N00000000000000000000   0000000000 00000000000000000000   00000000000000011751000000000000000000000MYR00000000000MYR00000000000MYR00000000000MYR000000000000000             
S11D  J25202310170001301107Preparations for use on the hair - other                              330590000US00000156000000KGM00000156000000KGM0000000338980000000052881N00000000000000000000   0000000000261 01000000000000000000   0000005288054N00000000000000000000   0000000000 00000000000000000000   00000000000000005288000000000000000000000MYR00000000000MYR00000000000MYR00000000000MYR000000000000000             
S11R  J252023101700013011Lip make-up preparations                                              Eye make-up preparations                                              Powders- whether or not compressed                                    Other face or skin creams and lotions                                 Other face or skin creams and lotions - others                        Shampoos - other                                                      Preparations for use on the hair - other                              
S11D  J25202310170001301201Pre-shave_ Shaving and after shave preparations                       330710000US00000030000000KGM00000030000000KGM0000000102980000000003089N00000000000000000000   0000000000261 01000000000000000000   0000000309054N00000000000000000000   0000000000 00000000000000000000   00000000000000000309000000000000000000000MYR00000000000MYR00000000000MYR00000000000MYR000000000000000             
S11D  J25202310170001301202Personal deodorants and antiperspirants                               330720000US00000015000000KGM00000015000000KGM0000004625590000000069384N00000000000000000000   0000000000261 01000000000000000000   0000006938054N00000000000000000000   0000000000 00000000000000000000   00000000000000006938000000000000000000000MYR00000000000MYR00000000000MYR00000000000MYR000000000000000             
S11D  J25202310170001301203Soap for Toilet Use - others                                          340111900US00000014000000KGM00000014000000KGM0000004691570000000065682N00000000000000000000   0000000000278 01000000000000000000   0000006568040N00000000000000000000   0000000000 00000000000000000000   00000000000000006568000000000000000000000MYR00000000000MYR00000000000MYR00000000000MYR000000000000000             
S11D  J25202310170001301204Soap in other forms:                                                  340120990US00000014000000KGM00000014000000KGM0000002142990000000030002N00000000000000000000   0000000000278 01000000000000000000   0000003000040N00000000000000000000   0000000000 00000000000000000000   00000000000000003000000000000000000000000MYR00000000000MYR00000000000MYR00000000000MYR000000000000000             
S11D  J25202310170001301205Organic surface-active preparations for washing skin                  340130000US00000222000000KGM00000222000000KGM0000002145990000000476410N00000000000000000000   0000000000278 01000000000000000000   0000047641040N00000000000000000000   0000000000 00000000000000000000   00000000000000047641000000000000000000000MYR00000000000MYR00000000000MYR00000000000MYR000000000000000             
S11D  J25202310170001301206Organic surface-active agents - other - other                         340290990US00000003000000KGM00000003000000KGM0000001891700000000005675N00000000000000000000   0000000000278 01000000000000000000   0000000568040N00000000000000000000   0000000000 00000000000000000000   00000000000000000568000000000000000000000MYR00000000000MYR00000000000MYR00000000000MYR000000000000000             
S11D  J25202310170001301207Candles_ tapers and the like                                          340600000US00000055000000KGM00000055000000KGM0000012412200000000682671A01500000000000000000   0000102401253 00000000000000000000   0000000000057N00000000000000000000   0000000000 00000000000000000000   00000000000000102401000000000000000000000MYR00000000000MYR00000000000MYR00000000000MYR000000000000000             
S11R  J252023101700013012Pre-shave_ Shaving and after shave preparations                       Personal deodorants and antiperspirants                               Soap for Toilet Use - others                                          Soap in other forms:                                                  Organic surface-active preparations for washing skin                  Organic surface-active agents - other - other                         Candles_ tapers and the like                                          
S11D  J25202310170001301301Envelopes                                                             481710000US00000450000000KGM00000450000000KGM0000000049480000000022266A02000000000000000000   0000004453262 00000000000000000000   0000000000055N00000000000000000000   0000000000 00000000000000000000   00000000000000004453000000000000000000000MYR00000000000MYR00000000000MYR00000000000MYR000000000000000             
S11D  J25202310170001301302Letter cards_ postcards and corresponding cards                       481720000US00002000000000KGM00002000000000KGM0000000013530000000027060A02000000000000000000   0000005412262 01000000000000000000   0000003247055N00000000000000000000   0000000000 00000000000000000000   00000000000000008659000000000000000000000MYR00000000000MYR00000000000MYR00000000000MYR000000000000000             
S11D  J25202310170001301303Paper labels- other                                                   482110100US00000900000000KGM00000900000000KGM0000000530780000000477702A02500000000000000000   0000119426262 01000000000000000000   0000059713055N00000000000000000000   0000000000 00000000000000000000   00000000000000179139000000000000000000000MYR00000000000MYR00000000000MYR00000000000MYR000000000000000             
S11D  J25202310170001301304Printed brochures- in single sheets                                   482390990US00000550000000KGM00000550000000KGM0000000631160000000347138A02500000000000000000   0000086785262 01000000000000000000   0000043392055N00000000000000000000   0000000000 00000000000000000000   00000000000000130177000000000000000000000MYR00000000000MYR00000000000MYR00000000000MYR000000000000000             
S11D  J25202310170001301305Printed  or illustrated postcards; greetings_ messages                490900000US00000150000000KGM00000150000000KGM0000000163880000000024582A02000000000000000000   0000004916262 00000000000000000000   0000000000055N00000000000000000000   0000000000 00000000000000000000   00000000000000004916000000000000000000000MYR00000000000MYR00000000000MYR00000000000MYR000000000000000             
S11D  J25202310170001301306Other printed cards or artificial monofilament                        491199900US00000400000000KGM00000400000000KGM0000000004790000000001916A02000000000000000000   0000000383262 01000000000000000000   0000000230055N00000000000000000000   0000000000 00000000000000000000   00000000000000000613000000000000000000000MYR00000000000MYR00000000000MYR00000000000MYR000000000000000             
S11R  J252023101700013013Envelopes                                                             Letter cards_ postcards and corresponding cards                       Paper labels- other                                                   Printed brochures- in single sheets                                   Printed  or illustrated postcards; greetings_ messages                Other printed cards or artificial monofilament                                                                                              
S11H  J2520231017002250102D I ESTEE LAUDER DISTRIBUTION CENTER PL24 Penjuru Road #09-05/06 CWT Commodity HUB Singapore 609128                                             B452192H       ESTEE LAUDER MALAYSIA SDN. BHD.    S 18.01, LEVEL 18, CENTREPOINT SOUTH THE BOULEVARD, MID VALLEY CITY, LING SYED PUTRA 59200 KUALA LUMPUR                                           320230109                                       00000000DCM4422     T/N6308     TKPMYTUASG                    00000000                                         0000              0000                     00000             sg0000058540000000000000000591793000005854390000000050000000330000000000023500000010000MYR20230111093320230109120020230111093720230109120000054784100000000000590816085127THAI SEONG                         WAREHOUSE MANAGER                                                                                                                                               JOB01022023A - COSMETICS                                                                                                                       0000        JOB01022023A                                        0000              0000                                            
S11D  J25202310170022500101Lip make-up preparations                                              330410000BE00000671000000KGM00000671000000KGM0000002145660000001439738N00000000000000000000   0000000000261 00500000000000000000   0000071986054N00000000000000000000   0000000000 00000000000000000000   00000000000000071986000000000000000000000MYR00000000000MYR00000000000MYR00000000000MYR000000000000000             
S11D  J25202310170022500102Eye make-up preparations                                              330420000BE00000040000000KGM00000040000000KGM0000001935710000000077428N00000000000000000000   0000000000261 00500000000000000000   0000003871054N00000000000000000000   0000000000 00000000000000000000   00000000000000003871000000000000000000000MYR00000000000MYR00000000000MYR00000000000MYR000000000000000             
S11D  J25202310170022500103Powders- whether or not compressed                                    330491000BE00000355000000KGM00000355000000KGM0000005064020000001797727N00000000000000000000   0000000000261 00500000000000000000   0000089886054N00000000000000000000   0000000000 00000000000000000000   00000000000000089886000000000000000000000MYR00000000000MYR00000000000MYR00000000000MYR000000000000000             
S11D  J25202310170022500104Other face or skin creams and lotions                                 330499300BE00000275000000KGM00000275000000KGM0000002558930000000703706N00000000000000000000   0000000000261 00500000000000000000   0000035185054N00000000000000000000   0000000000 00000000000000000000   00000000000000035185000000000000000000000MYR00000000000MYR00000000000MYR00000000000MYR000000000000000             
S11D  J25202310170022500105Other face or skin creams and lotions - others                        330499900BE00000589000000KGM00000589000000KGM0000003366900000001983104N00000000000000000000   0000000000261 00500000000000000000   0000099155054N00000000000000000000   0000000000 00000000000000000000   00000000000000099155000000000000000000000MYR00000000000MYR00000000000MYR00000000000MYR000000000000000             
S11D  J25202310170022500106Organic surface-active preparations for washing skin                  340130000BE00000165000000KGM00000165000000KGM0000002398740000000395792N00000000000000000000   0000000000278 01000000000000000000   0000039579040N00000000000000000000   0000000000 00000000000000000000   00000000000000039579000000000000000000000MYR00000000000MYR00000000000MYR00000000000MYR000000000000000             
