S11HDR001                    202302040039330000000               
S11H  B1020231017001850007D I COLGATE-PALMOLIVE ASIA PACIFIC LTD 183 QUEEN'S ROAD EAST, WAN CHAI, HONG KONG                                                               B165147W       COLGATE PALMOLIVE MARKETING SDN BHDP.O. BOX 11076, 50734 KUALA LUMPUR, MALAYSIA                                                                                                      120230103FHK26518122DBBGSITC YUNCHENG V         00000000                        PKGMYSHACN                    00000000                                         0000              0000        4            00000             HK0000002291900000000000000188222460001833541400000463913000245400000000027890000010000MYR20230109143720230103120020230112113520230103120000018822250000000000930718106164AMIRA FATIHAH BT HAMIM             ADMIN SUPERVISOR                                                                                                                                                TOOTHBRUSH                                                                                                                                     0000        KMTCSHAK097547 SHAE93178                            0000              0000                                            
S11D 1B1020231017001850010161000435 CTBM SS Advanced Volcanic 2PK_MY*24                          000000000CN00006000000000UNT00006000000000UNT0000000754764900004528589A00000000000000000000   0000000000253 01000000000000000000   0000452858057N00000000000000000000   0000000000 00000000000000000000   00000000000000452858000000000000000000000MYR00000000000MYR00000000000MYR00000000000MYR000000000000000   9603210000
S11D 1B1020231017001850010261007956 CTBM Cushion Clean Charcoal 2PK_Asia*24                      000000000CN00003000000000UNT00003000000000UNT0000001125819600003377459A00000000000000000000   0000000000253 01000000000000000000   0000337746057N00000000000000000000   0000000000 00000000000000000000   00000000000000337746000000000000000000000MYR00000000000MYR00000000000MYR00000000000MYR000000000000000   9603210000
S11D 1B1020231017001850010361011674 CTBM Smiles Batman 6+ 1pk_Asia*12                            000000000CN00010500000000UNT00010500000000UNT0000000190335100001998519A00000000000000000000   0000000000253 01000000000000000000   0000199852057N00000000000000000000   0000000000 00000000000000000000   00000000000000199852000000000000000000000MYR00000000000MYR00000000000MYR00000000000MYR000000000000000   9603210000
S11D 1B1020231017001850010461030045 CTBM SS Charcoal 3s polybag_MY*36                            000000000CN00004190000000UNT00004190000000UNT0000000673603600002822399A00000000000000000000   0000000000253 01000000000000000000   0000282240057N00000000000000000000   0000000000 00000000000000000000   00000000000000282240000000000000000000000MYR00000000000MYR00000000000MYR00000000000MYR000000000000000   9603210000
S11D 1B1020231017001850010561030046 CTBM SS Charcoal 5s polybag_MY*60                            000000000CN00002570000000UNT00002570000000UNT0000001053795700002708255A00000000000000000000   0000000000253 01000000000000000000   0000270826057N00000000000000000000   0000000000 00000000000000000000   00000000000000270826000000000000000000000MYR00000000000MYR00000000000MYR00000000000MYR000000000000000   9603210000
S11D 1B10202310170018500106183901151 CTBMAN 360 SENSITIVE PRO RELIEF X 96                        000000000CN00000320000000UNT00000320000000UNT0000001906966000000610229A00000000000000000000   0000000000253 01000000000000000000   0000061023057N00000000000000000000   0000000000 00000000000000000000   00000000000000061023000000000000000000000MYR00000000000MYR00000000000MYR00000000000MYR000000000000000   9603210000
S11D 1B10202310170018500107183901783 CTBM Slim Soft CH Charcoal_Asia*12                          000000000CN00013730000000UNT00013730000000UNT0000000202243000002776796A00000000000000000000   0000000000253 01000000000000000000   0000277680057N00000000000000000000   0000000000 00000000000000000000   00000000000000277680000000000000000000000MYR00000000000MYR00000000000MYR00000000000MYR000000000000000   9603210000
S11R  B10202310170018500161000435 CTBM SS Advanced Volcanic 2PK_MY*24                          61007956 CTBM Cushion Clean Charcoal 2PK_Asia*24                      61011674 CTBM Smiles Batman 6+ 1pk_Asia*12                            61030045 CTBM SS Charcoal 3s polybag_MY*36                            61030046 CTBM SS Charcoal 5s polybag_MY*60                            183901151 CTBMAN 360 SENSITIVE PRO RELIEF X 96                        183901783 CTBM Slim Soft CH Charcoal_Asia*12                          
S11H  B1020231017001930011D I COLGATE-PALMOLIVE ASIA PACIFIC LTD 183 QUEEN'S ROAD EAST, WAN CHAI, HONG KONG                                                               B165147W       COLGATE PALMOLIVE MARKETING SDN BHDP.O. BOX 11076, 50734 KUALA LUMPUR, MALAYSIA                                                                                                      120230103FHK26518122DBBGSITC YUNCHENG V.        00000000                        PKGMYSHACN                    00000000                                         0000              0000        4            00000             HK0000004448800000000000000365717870003559052200000936777000567400000000067380000010000MYR20230109150620230103120020230112113520230103120000036571800000000000930718106164AMIRA FATIHAH BT HAMIM             ADMIN SUPERVISOR                                                                                                                                                TOOTHBRUSH                                                                                                                                     0000        KMTCSHAK098543 SHAE93177                            0000              0000                                            
S11D 1B1020231017001930010161030048 CTBM SS Charcoal Gold 3s polybag_MY*36                       000000000CN00011260000000UNT00011260000000UNT0000000735593900008282787A00000000000000000000   0000000000253 01000000000000000000   0000828280057N00000000000000000000   0000000000 00000000000000000000   00000000000000828280000000000000000000000MYR00000000000MYR00000000000MYR00000000000MYR000000000000000   9603210000
S11D 1B1020231017001930010261030049 CTBM SS Charcoal Gold 5s polybag_MY*60                       000000000CN00005640000000UNT00005640000000UNT0000001158562000006534290A00000000000000000000   0000000000253 01000000000000000000   0000653429057N00000000000000000000   0000000000 00000000000000000000   00000000000000653429000000000000000000000MYR00000000000MYR00000000000MYR00000000000MYR000000000000000   9603210000
S11D 1B10202310170019300103183901611 CTBM Slim Soft UCH XS_Asia*12                               000000000CN00002500000000UNT00002500000000UNT0000000195232200000488081A00000000000000000000   0000000000253 01000000000000000000   0000048808057N00000000000000000000   0000000000 00000000000000000000   00000000000000048808000000000000000000000MYR00000000000MYR00000000000MYR00000000000MYR000000000000000   9603210000
S11D 1B10202310170019300104183901758 CTBM Mid-Tier Age 2-5 12 JHX_Asia*72                        000000000CN00005500000000UNT00005500000000UNT0000000823934200004531638A00000000000000000000   0000000000253 01000000000000000000   0000453164057N00000000000000000000   0000000000 00000000000000000000   00000000000000453164000000000000000000000MYR00000000000MYR00000000000MYR00000000000MYR000000000000000   9603210000
S11D 1B10202310170019300105183902086 CTBM SlimSoft Charcoal Gold CHX_Asia*12                     000000000CN00006670000000UNT00006670000000UNT0000000228215000001522194A00000000000000000000   0000000000253 01000000000000000000   0000152219057N00000000000000000000   0000000000 00000000000000000000   00000000000000152219000000000000000000000MYR00000000000MYR00000000000MYR00000000000MYR000000000000000   9603210000
S11D 1B10202310170019300106183902151 CTBM ZZ Charcoal FH 1PK_Asia*72                             000000000CN00002460000000UNT00002460000000UNT0000000932118700002293012A00000000000000000000   0000000000253 01000000000000000000   0000229301057N00000000000000000000   0000000000 00000000000000000000   00000000000000229301000000000000000000000MYR00000000000MYR00000000000MYR00000000000MYR000000000000000   9603210000
S11D 1B10202310170019300107CN05265A CTBM SlimSoft Ortho CHS_ASIA*12                              000000000CN00005000000000UNT00005000000000UNT0000000242136200001210681A00000000000000000000   0000000000253 01000000000000000000   0000121068057N00000000000000000000   0000000000 00000000000000000000   00000000000000121068000000000000000000000MYR00000000000MYR00000000000MYR00000000000MYR000000000000000   9603210000
S11R  B10202310170019300161030048 CTBM SS Charcoal Gold 3s polybag_MY*36                       61030049 CTBM SS Charcoal Gold 5s polybag_MY*60                       183901611 CTBM Slim Soft UCH XS_Asia*12                               183901758 CTBM Mid-Tier Age 2-5 12 JHX_Asia*72                        183902086 CTBM SlimSoft Charcoal Gold CHX_Asia*12                     183902151 CTBM ZZ Charcoal FH 1PK_Asia*72                             CN05265A CTBM SlimSoft Ortho CHS_ASIA*12                              
S11D 1B10202310170019300201CN06876A CTBM Slim Soft Flex Clean 2PK_Asia*24                        000000000CN00002500000000UNT00002500000000UNT0000000742944800001857362A00000000000000000000   0000000000253 01000000000000000000   0000185736057N00000000000000000000   0000000000 00000000000000000000   00000000000000185736000000000000000000000MYR00000000000MYR00000000000MYR00000000000MYR000000000000000   9603210000
S11D 1B10202310170019300202CN07586A CTBM Smiles Minions 2-5 1pk_MY*12                            000000000CN00018100000000UNT00018100000000UNT0000000191709700003469946A00000000000000000000   0000000000253 01000000000000000000   0000346995057N00000000000000000000   0000000000 00000000000000000000   00000000000000346995000000000000000000000MYR00000000000MYR00000000000MYR00000000000MYR000000000000000   9603210000
S11D 1B10202310170019300203CN07589A CTBM Smiles Minions 5-9 1pk_MY*12                            000000000CN00015860000000UNT00015860000000UNT0000000203425000003226321A00000000000000000000   0000000000253 01000000000000000000   0000322632057N00000000000000000000   0000000000 00000000000000000000   00000000000000322632000000000000000000000MYR00000000000MYR00000000000MYR00000000000MYR000000000000000   9603210000
S11D 1B10202310170019300204CN07609A CTBM Smiles Barbie 6+ 1pk_MY*12                              000000000CN00015320000000UNT00015320000000UNT0000000205971100003155477A00000000000000000000   0000000000253 01000000000000000000   0000315548057N00000000000000000000   0000000000 00000000000000000000   00000000000000315548000000000000000000000MYR00000000000MYR00000000000MYR00000000000MYR000000000000000   9603210000
S11R  B102023101700193002CN06876A CTBM Slim Soft Flex Clean 2PK_Asia*24                        CN07586A CTBM Smiles Minions 2-5 1pk_MY*12                            CN07589A CTBM Smiles Minions 5-9 1pk_MY*12                            CN07609A CTBM Smiles Barbie 6+ 1pk_MY*12                                                                                                                                                                                                                                                
S11H  B1020231017005860016D I COLGATE-PALMOLIVE ASIA PACIFIC LTD 183 QUEEN'S ROAD EAST, WAN CHAI, HONG KONG                                                               B165147W       COLGATE PALMOLIVE MARKETING SDN BHDP.O. BOX 11076, 50734 KUALA LUMPUR, MALAYSIA                                                                                                      120230111FLR57339122DCEVWAN HAI 177 V.          00000000                        PKGMYHCMVN                    00000000                                         0000              0000        3            00000             HK0000012999200000000000001056139250010399318100001490752002352631050000230000000010000MYR20230118113020230111120020230119172320230111120000105613950000000000930718106164AMIRA FATIHAH BT HAMIM             ADMIN SUPERVISOR                                                                                                                                                TOOTHBRUSH                                                                                                                                     0000        039CX93508     SGNA69291                            0000              0000                                            
S11D 1B102023101700586001011051931 CTBM TWISTER FH M +CAP 1PK ASIA*72                            000000000VN00000600000000UNT00000600000000UNT0000001125681300000675409A00000000000000000000   0000000000253 01000000000000000000   0000067540057N00000000000000000000   0000000000 00000000000000000000   00000000000000067540000000000000000000000MYR00000000000MYR00000000000MYR00000000000MYR000000000000000   9603210000
S11D 1B10202310170058600102MY01029A CTB CLASSIC 1S MP                                            000000000VN00005250000000UNT00005250000000UNT0000000654396600003435582A00000000000000000000   0000000000253 01000000000000000000   0000343558057N00000000000000000000   0000000000 00000000000000000000   00000000000000343558000000000000000000000MYR00000000000MYR00000000000MYR00000000000MYR000000000000000   9603210000
S11D 1B1020231017005860010361029946 CTB Zig Zag (S) 5s*12(Polybag)                               000000000VN00011700000000UNT00011700000000UNT0000000696595300008150165A00000000000000000000   0000000000253 01000000000000000000   0000815017057N00000000000000000000   0000000000 00000000000000000000   00000000000000815017000000000000000000000MYR00000000000MYR00000000000MYR00000000000MYR000000000000000   9603210000
S11D 1B1020231017005860010461029947 CTB Zig Zag (M) 5s*12 (Polybag)                              000000000VN00044100000000UNT00044100000000UNT0000000704984500031089816A00000000000000000000   0000000000253 01000000000000000000   0003108982057N00000000000000000000   0000000000 00000000000000000000   00000000000003108982000000000000000000000MYR00000000000MYR00000000000MYR00000000000MYR000000000000000   9603210000
S11D 1B102023101700586001051051931 CTBM TWISTER FH M +CAP 1PK ASIA*72                            000000000VN00000400000000UNT00000400000000UNT0000001425917000000570367A00000000000000000000   0000000000253 01000000000000000000   0000057037057N00000000000000000000   0000000000 00000000000000000000   00000000000000057037000000000000000000000MYR00000000000MYR00000000000MYR00000000000MYR000000000000000   9603210000
S11D 1B1020231017005860010661029952 CTBM Extra Clean FH M 4s Asia*96 polybag                     000000000VN00015000000000UNT00015000000000UNT0000001007058700015105881A00000000000000000000   0000000000253 01000000000000000000   0001510588057N00000000000000000000   0000000000 00000000000000000000   00000000000001510588000000000000000000000MYR00000000000MYR00000000000MYR00000000000MYR000000000000000   9603210000
S11D 1B1020231017005860010761029949 CTB Twister 3s - Medium (polybag)                            000000000VN00030800000000UNT00030800000000UNT0000000560366400017259285A00000000000000000000   0000000000253 01000000000000000000   0001725929057N00000000000000000000   0000000000 00000000000000000000   00000000000001725929000000000000000000000MYR00000000000MYR00000000000MYR00000000000MYR000000000000000   9603210000
S11R  B1020231017005860011051931 CTBM TWISTER FH M +CAP 1PK ASIA*72                            MY01029A CTB CLASSIC 1S MP                                            61029946 CTB Zig Zag (S) 5s*12(Polybag)                               61029947 CTB Zig Zag (M) 5s*12 (Polybag)                              1051931 CTBM TWISTER FH M +CAP 1PK ASIA*72                            61029952 CTBM Extra Clean FH M 4s Asia*96 polybag                     61029949 CTB Twister 3s - Medium (polybag)                            
S11D 1B102023101700586002011051931 CTBM TWISTER FH M +CAP 1PK ASIA*72                            000000000VN00000200000000UNT00000200000000UNT0000001459006500000291801A00000000000000000000   0000000000253 01000000000000000000   0000029180057N00000000000000000000   0000000000 00000000000000000000   00000000000000029180000000000000000000000MYR00000000000MYR00000000000MYR00000000000MYR000000000000000   9603210000
S11D 1B102023101700586002021051931 CTBM TWISTER FH M +CAP 1PK ASIA*72                            000000000VN00003000000000UNT00003000000000UNT0000001025508800003076526A00000000000000000000   0000000000253 01000000000000000000   0000307653057N00000000000000000000   0000000000 00000000000000000000   00000000000000307653000000000000000000000MYR00000000000MYR00000000000MYR00000000000MYR000000000000000   9603210000
S11D 1B10202310170058600203VN00932A CTBM TRIPLE_ACTION FH M 1PK PHx72                            000000000VN00003000000000UNT00003000000000UNT0000000662300000001986900A00000000000000000000   0000000000253 01000000000000000000   0000198690057N00000000000000000000   0000000000 00000000000000000000   00000000000000198690000000000000000000000MYR00000000000MYR00000000000MYR00000000000MYR000000000000000   9603210000
S11D 1B10202310170058600204VN00611A CTBM ZIG ZAG FH S 1PK ASIA*72                                000000000VN00003000000000UNT00003000000000UNT0000000768310500002304932A00000000000000000000   0000000000253 01000000000000000000   0000230493057N00000000000000000000   0000000000 00000000000000000000   00000000000000230493000000000000000000000MYR00000000000MYR00000000000MYR00000000000MYR000000000000000   9603210000
S11D 1B10202310170058600205VN00610A CTBM ZIG ZAG FH M 1PK ASIA*72                                000000000VN00002400000000UNT00002400000000UNT0000000780748000001873795A00000000000000000000   0000000000253 01000000000000000000   0000187380057N00000000000000000000   0000000000 00000000000000000000   00000000000000187380000000000000000000000MYR00000000000MYR00000000000MYR00000000000MYR000000000000000   9603210000
S11D 1B1020231017005860020661029951 CTB Twister Soft 5s*12 (Polybag)                             000000000VN00009000000000UNT00009000000000UNT0000000880201900007921817A00000000000000000000   0000000000253 01000000000000000000   0000792182057N00000000000000000000   0000000000 00000000000000000000   00000000000000792182000000000000000000000MYR00000000000MYR00000000000MYR00000000000MYR000000000000000   9603210000
S11D 1B1020231017005860020761029947 CTB Zig Zag (M) 5s*12 (Polybag)                              000000000VN00003600000000UNT00003600000000UNT0000000710515800002557857A00000000000000000000   0000000000253 01000000000000000000   0000255786057N00000000000000000000   0000000000 00000000000000000000   00000000000000255786000000000000000000000MYR00000000000MYR00000000000MYR00000000000MYR000000000000000   9603210000
S11R  B1020231017005860021051931 CTBM TWISTER FH M +CAP 1PK ASIA*72                            1051931 CTBM TWISTER FH M +CAP 1PK ASIA*72                            VN00932A CTBM TRIPLE_ACTION FH M 1PK PHx72                            VN00611A CTBM ZIG ZAG FH S 1PK ASIA*72                                VN00610A CTBM ZIG ZAG FH M 1PK ASIA*72                                61029951 CTB Twister Soft 5s*12 (Polybag)                             61029947 CTB Zig Zag (M) 5s*12 (Polybag)                              
S11D 1B102023101700586003011053300 CTBM GUM CLEAN CH XS 1PK ASIAx72                              000000000VN00008250000000UNT00008250000000UNT0000000620340100005117806A00000000000000000000   0000000000253 01000000000000000000   0000511781057N00000000000000000000   0000000000 00000000000000000000   00000000000000511781000000000000000000000MYR00000000000MYR00000000000MYR00000000000MYR000000000000000   9603210000
S11D 1B102023101700586003021051987 CTBM TWISTER FH S +CAP 1PK ASIA*72                            000000000VN00004200000000UNT00004200000000UNT0000000999044900004195989A00000000000000000000   0000000000253 01000000000000000000   0000419599057N00000000000000000000   0000000000 00000000000000000000   00000000000000419599000000000000000000000MYR00000000000MYR00000000000MYR00000000000MYR000000000000000   9603210000
S11R  B1020231017005860031053300 CTBM GUM CLEAN CH XS 1PK ASIAx72                              1051987 CTBM TWISTER FH S +CAP 1PK ASIA*72                                                                                                                                                                                                                                                                                                                                                                                          
S11H  B1020231017008570006D I COLGATE-PALMOLIVE ASIA PACIFIC LTD 183 QUEEN'S ROAD EAST, WAN CHAI, HONG KONG                                                               B165147W       COLGATE PALMOLIVE MARKETING SDN BHDP.O. BOX 11076, 50734 KUALA LUMPUR, MALAYSIA                                                                                                      120230118FMH92899422DCEWCAPE FLINT V.S023       00000000                        PKGMYHCMVN                    00000000                                         0000              0000        3            00000             HK0000001651900000000000000134529150001321493100000221465000321060010000028680000010000MYR20230120153020230118120020230125105220230118120000013452900000000000930718106164AMIRA FATIHAH BT HAMIM             ADMIN SUPERVISOR                                                                                                                                                TOOTHBRUSH                                                                                                                                     0000        039CX96469     DZI316990                            0000              0000                                            
S11D 1B102023101700857001011051931 CTBM TWISTER FH M +CAP 1PK ASIA*72                            000000000VN00000600000000UNT00000600000000UNT0000000990229700000594138A00000000000000000000   0000000000253 01000000000000000000   0000059413057N00000000000000000000   0000000000 00000000000000000000   00000000000000059413000000000000000000000MYR00000000000MYR00000000000MYR00000000000MYR000000000000000   9603210000
S11D 1B102023101700857001021051987 CTBM TWISTER FH S +CAP 1PK ASIA*72                            000000000VN00000600000000UNT00000600000000UNT0000000977872800000586724A00000000000000000000   0000000000253 01000000000000000000   0000058672057N00000000000000000000   0000000000 00000000000000000000   00000000000000058672000000000000000000000MYR00000000000MYR00000000000MYR00000000000MYR000000000000000   9603210000
S11D 1B10202310170085700103VN00610A CTBM ZIG ZAG FH M 1PK ASIA*72                                000000000VN00000600000000UNT00000600000000UNT0000000735617300000441370A00000000000000000000   0000000000253 01000000000000000000   0000044137057N00000000000000000000   0000000000 00000000000000000000   00000000000000044137000000000000000000000MYR00000000000MYR00000000000MYR00000000000MYR000000000000000   9603210000
S11D 1B10202310170085700104MY01029A CTB CLASSIC 1S MP                                            000000000VN00000750000000UNT00000750000000UNT0000000566013500000424510A00000000000000000000   0000000000253 01000000000000000000   0000042451057N00000000000000000000   0000000000 00000000000000000000   00000000000000042451000000000000000000000MYR00000000000MYR00000000000MYR00000000000MYR000000000000000   9603210000
S11D 1B1020231017008570010561029945 CTB Zig Zag (M) 3s*12 (Polybag)                              000000000VN00008400000000UNT00008400000000UNT0000000376308500003160991A00000000000000000000   0000000000253 01000000000000000000   0000316099057N00000000000000000000   0000000000 00000000000000000000   00000000000000316099000000000000000000000MYR00000000000MYR00000000000MYR00000000000MYR000000000000000   9603210000
S11D 1B1020231017008570010661029951 CTB Twister Soft 5s*12 (Polybag)                             000000000VN00010100000000UNT00010100000000UNT0000000816354500008245180A00000000000000000000   0000000000253 01000000000000000000   0000824518057N00000000000000000000   0000000000 00000000000000000000   00000000000000824518000000000000000000000MYR00000000000MYR00000000000MYR00000000000MYR000000000000000   9603210000
S11R  B1020231017008570011051931 CTBM TWISTER FH M +CAP 1PK ASIA*72                            1051987 CTBM TWISTER FH S +CAP 1PK ASIA*72                            VN00610A CTBM ZIG ZAG FH M 1PK ASIA*72                                MY01029A CTB CLASSIC 1S MP                                            61029945 CTB Zig Zag (M) 3s*12 (Polybag)                              61029951 CTB Twister Soft 5s*12 (Polybag)                                                                                                   
S11H  B1020231017008580001D I COLGATE-PALMOLIVE ASIA PACIFIC LTD 183 QUEEN'S ROAD EAST, WAN CHAI, HONG KONG                                                               B165147W       COLGATE PALMOLIVE MARKETING SDN BHDP.O. BOX 11076, 50734 KUALA LUMPUR, MALAYSIA                                                                                                      120230120FSG00586 22DBQWWAN HAI 306             00000000                        PKGMYHUACN                    00000000                                         0000              0000        4            00000             HK0000000470300000000000000039832550000376275900000215793002430000000000052610000010000MYR20230120154420230120120020230125105220230120120000003983250000000000930718106164AMIRA FATIHAH BT HAMIM             ADMIN SUPERVISOR                                                                                                                                                TOOTHPASTE                                                                                                                                     0000        A78DX00852     1050689887                           0000              0000                                            
S11D 1B1020231017008580010161031973 CDC Kayu Sugi Pemutih 175g                                   000000000CN00024300000000KGM00024300000000KGM0000000163920000003983256A00000000000000000000   0000000000280 01000000000000000000   0000398325057N00000000000000000000   0000000000 00000000000000000000   00000000000000398325000000000000000000000MYR00000000000MYR00000000000MYR00000000000MYR000000000000000   3306101000
S11R  B10202310170085800161031973 CDC Kayu Sugi Pemutih 175g                                                                                                                                                                                                                                                                                                                                                                                                                                                                       
S11H  B1020231017008590008D I COLGATE-PALMOLIVE ASIA PACIFIC LTD 183 QUEEN'S ROAD EAST, WAN CHAI, HONG KONG                                                               B165147W       COLGATE PALMOLIVE MARKETING SDN BHDP.O. BOX 11076, 50734 KUALA LUMPUR, MALAYSIA                                                                                                      120230120FSG00586 22DBQWWAN HAI 306             00000000                        PKGMYHUACN                    00000000                                         0000              0000        4            00000             HK0000014539900000000000001166126490011631902900000148221004508069920000124520000010000MYR20230120154620230120120020230125105220230120120000116612650000000000930718106164AMIRA FATIHAH BT HAMIM             ADMIN SUPERVISOR                                                                                                                                                TOOTHPASTE                                                                                                                                     0000        A78DX00854     1050690259                           0000              0000                                            
S11D 1B1020231017008590010161004822 COLG CDC FCM 50G + EXTRA CLEAN TB TRAVEL                     000000000CN00014000000000KGM00014000000000KGM0000003580537000050127518A00000000000000000000   0000000000280 01000000000000000000   0005012751057N00000000000000000000   0000000000 00000000000000000000   00000000000005012751000000000000000000000MYR00000000000MYR00000000000MYR00000000000MYR000000000000000   3306101000
S11D 1B1020231017008590010261009899 Naturals Pure Clean Charcoal 120g                            000000000CN00001200000000KGM00001200000000KGM0000001457955200001749546A00000000000000000000   0000000000280 01000000000000000000   0000174955057N00000000000000000000   0000000000 00000000000000000000   00000000000000174955000000000000000000000MYR00000000000MYR00000000000MYR00000000000MYR000000000000000   3306101000
S11D 1B1020231017008590010361022113 COL TP TOT CHARCOAL DEEP CLEAN 150G                          000000000CN00002940000000KGM00002940000000KGM0000004039415700011875882A00000000000000000000   0000000000280 01000000000000000000   0001187588057N00000000000000000000   0000000000 00000000000000000000   00000000000001187588000000000000000000000MYR00000000000MYR00000000000MYR00000000000MYR000000000000000   3306101000
S11D 1B1020231017008590010461022114 COL TP TOT CHARCOAL DEEP CLEAN 150G TWIN                     000000000CN00003230000000KGM00003230000000KGM0000004081745500013184038A00000000000000000000   0000000000280 01000000000000000000   0001318404057N00000000000000000000   0000000000 00000000000000000000   00000000000001318404000000000000000000000MYR00000000000MYR00000000000MYR00000000000MYR000000000000000   3306101000
S11D 1B10202310170085900105188189107 CDC Kayu Sugi Pemutih 175g                                  000000000CN00000050000000KGM00000050000000KGM0000003283126600000164156A00000000000000000000   0000000000280 01000000000000000000   0000016416057N00000000000000000000   0000000000 00000000000000000000   00000000000000016416000000000000000000000MYR00000000000MYR00000000000MYR00000000000MYR000000000000000   3306101000
S11D 1B10202310170085900106188189466 Colgate Sugar Acid Neutraliser 160g                         000000000CN00014210000000KGM00014210000000KGM0000001830888500026016926A00000000000000000000   0000000000280 01000000000000000000   0002601693057N00000000000000000000   0000000000 00000000000000000000   00000000000002601693000000000000000000000MYR00000000000MYR00000000000MYR00000000000MYR000000000000000   3306101000
S11D 1B10202310170085900107CN05367A COL TP FOR KIDS 2-5 TIGER 40G                                000000000CN00013730000000KGM00013730000000KGM0000000582222100007993909A00000000000000000000   0000000000280 01000000000000000000   0000799391057N00000000000000000000   0000000000 00000000000000000000   00000000000000799391000000000000000000000MYR00000000000MYR00000000000MYR00000000000MYR000000000000000   3306101000
S11R  B10202310170085900161004822 COLG CDC FCM 50G + EXTRA CLEAN TB TRAVEL                     61009899 Naturals Pure Clean Charcoal 120g                            61022113 COL TP TOT CHARCOAL DEEP CLEAN 150G                          61022114 COL TP TOT CHARCOAL DEEP CLEAN 150G TWIN                     188189107 CDC Kayu Sugi Pemutih 175g                                  188189466 Colgate Sugar Acid Neutraliser 160g                         CN05367A COL TP FOR KIDS 2-5 TIGER 40G                                
S11D 1B10202310170085900201CN05655A COL TP OPTIC WHITE SPARKLING WHITE 100G                      000000000CN00003840000000KGM00003840000000KGM0000001432466700005500672A00000000000000000000   0000000000280 01000000000000000000   0000550067057N00000000000000000000   0000000000 00000000000000000000   00000000000000550067000000000000000000000MYR00000000000MYR00000000000MYR00000000000MYR000000000000000   3306101000
S11R  B102023101700859002CN05655A COL TP OPTIC WHITE SPARKLING WHITE 100G                                                                                                                                                                                                                                                                                                                                                                                                                                                          
S11H  B1020231017008600008D I COLGATE-PALMOLIVE ASIA PACIFIC LTD 183 QUEEN'S ROAD EAST, WAN CHAI, HONG KONG                                                               B165147W       COLGATE PALMOLIVE MARKETING SDN BHDP.O. BOX 11076, 50734 KUALA LUMPUR, MALAYSIA                                                                                                      120230120FSG00586 22DBQWWAN HAI 306             00000000                        PKGMYHUACN                    00000000                                         0000              0000        4            00000             HK0000009239800000000000000748743090007391874100000863170009917950000000208620000010000MYR20230120154820230120120020230125105220230120120000074874300000000000930718106164AMIRA FATIHAH BT HAMIM             ADMIN SUPERVISOR                                                                                                                                                TOOTHPASTE                                                                                                                                     0000        A78DX00855     1050690125                           0000              0000                                            
S11D 1B1020231017008600010161030066 Colgate Max Fresh Cool Mint 160g Twin                        000000000CN00010820000000KGM00010820000000KGM0000001713918300018544596A00000000000000000000   0000000000280 01000000000000000000   0001854458057N00000000000000000000   0000000000 00000000000000000000   00000000000001854458000000000000000000000MYR00000000000MYR00000000000MYR00000000000MYR000000000000000   3306101000
S11D 1B1020231017008600010261031972 CDC Kayu Sugi Original 175g                                  000000000CN00038000000000KGM00038000000000KGM0000000142617400005419461A00000000000000000000   0000000000280 01000000000000000000   0000541946057N00000000000000000000   0000000000 00000000000000000000   00000000000000541946000000000000000000000MYR00000000000MYR00000000000MYR00000000000MYR000000000000000   3306101000
S11D 1B1020231017008600010361031973 CDC Kayu Sugi Pemutih 175g                                   000000000CN00001700000000KGM00001700000000KGM0000000312038600000530466A00000000000000000000   0000000000280 01000000000000000000   0000053047057N00000000000000000000   0000000000 00000000000000000000   00000000000000053047000000000000000000000MYR00000000000MYR00000000000MYR00000000000MYR000000000000000   3306101000
S11D 1B1020231017008600010461031973 CDC Kayu Sugi Pemutih 175g                                   000000000CN00006950000000KGM00006950000000KGM0000000161327300001121225A00000000000000000000   0000000000280 01000000000000000000   0000112123057N00000000000000000000   0000000000 00000000000000000000   00000000000000112123000000000000000000000MYR00000000000MYR00000000000MYR00000000000MYR000000000000000   3306101000
S11D 1B1020231017008600010561031977 COLKayu Sugi Original 160g Twinpack                          000000000CN00016500000000KGM00016500000000KGM0000000146389400002415425A00000000000000000000   0000000000280 01000000000000000000   0000241543057N00000000000000000000   0000000000 00000000000000000000   00000000000000241543000000000000000000000MYR00000000000MYR00000000000MYR00000000000MYR000000000000000   3306101000
S11D 1B1020231017008600010661032112 COL TP TOT PLAQUE REL REV C/MINT 95GMx48                     000000000CN00002350000000KGM00002350000000KGM0000004765531200011198998A00000000000000000000   0000000000280 01000000000000000000   0001119900057N00000000000000000000   0000000000 00000000000000000000   00000000000001119900000000000000000000000MYR00000000000MYR00000000000MYR00000000000MYR000000000000000   3306101000
S11D 1B10202310170086000107188189468 Colgate Sugar Acid Neutraliser 225g Twin                    000000000CN00017710000000KGM00017710000000KGM0000001577016000027928953A00000000000000000000   0000000000280 01000000000000000000   0002792895057N00000000000000000000   0000000000 00000000000000000000   00000000000002792895000000000000000000000MYR00000000000MYR00000000000MYR00000000000MYR000000000000000   3306101000
S11R  B10202310170086000161030066 Colgate Max Fresh Cool Mint 160g Twin                        61031972 CDC Kayu Sugi Original 175g                                  61031973 CDC Kayu Sugi Pemutih 175g                                   61031973 CDC Kayu Sugi Pemutih 175g                                   61031977 COLKayu Sugi Original 160g Twinpack                          61032112 COL TP TOT PLAQUE REL REV C/MINT 95GMx48                     188189468 Colgate Sugar Acid Neutraliser 225g Twin                    
S11D 1B10202310170086000201CN05367A COL TP FOR KIDS 2-5 TIGER 40G                                000000000CN00012990000000KGM00012990000000KGM0000000593932600007715184A00000000000000000000   0000000000280 01000000000000000000   0000771518057N00000000000000000000   0000000000 00000000000000000000   00000000000000771518000000000000000000000MYR00000000000MYR00000000000MYR00000000000MYR000000000000000   3306101000
S11R  B102023101700860002CN05367A COL TP FOR KIDS 2-5 TIGER 40G                                                                                                                                                                                                                                                                                                                                                                                                                                                                    
S11H  B1020231017013320005D I COLGATE-PALMOLIVE ASIA PACIFIC LTD 183 QUEEN'S ROAD EAST, WAN CHAI, HONG KONG                                                               B165147W       COLGATE PALMOLIVE MARKETING SDN BHDP.O. BOX 11076, 50734 KUALA LUMPUR, MALAYSIA                                                                                                      120230127FSG06879722DBWTMITRA BHUM              00000000                        PKGMYHCMVN                    00000000                                         0000              0000        3            00000             HK0000001206400000000000000098828940000965155200000219278000259356010000028130000010000MYR20230203114420230127120020230203222220230127120000009882900000000000930718106164AMIRA FATIHAH BT HAMIM             ADMIN SUPERVISOR                                                                                                                                                TOOTHBRUSH                                                                                                                                     0000        A59D000195     DZI317839                            0000              0000                                            
S11D 1B10202310170133200101VN01295A CTBM TWISTER FH S 3PK INDO*72                                000000000VN00002300000000UNT00002300000000UNT0000000866560300001993089A00000000000000000000   0000000000253 01000000000000000000   0000199310057N00000000000000000000   0000000000 00000000000000000000   00000000000000199310000000000000000000000MYR00000000000MYR00000000000MYR00000000000MYR000000000000000   9603210000
S11D 1B10202310170133200102VN00611A CTBM ZIG ZAG FH S 1PK ASIA*72                                000000000VN00003600000000UNT00003600000000UNT0000000684340000002463624A00000000000000000000   0000000000253 01000000000000000000   0000246362057N00000000000000000000   0000000000 00000000000000000000   00000000000000246362000000000000000000000MYR00000000000MYR00000000000MYR00000000000MYR000000000000000   9603210000
S11D 1B10202310170133200103VN00610A CTBM ZIG ZAG FH M 1PK ASIA*72                                000000000VN00001800000000UNT00001800000000UNT0000000689130200001240434A00000000000000000000   0000000000253 01000000000000000000   0000124043057N00000000000000000000   0000000000 00000000000000000000   00000000000000124043000000000000000000000MYR00000000000MYR00000000000MYR00000000000MYR000000000000000   9603210000
S11D 1B10202310170133200104MY01029A CTB CLASSIC 1S MP                                            000000000VN00003600000000UNT00003600000000UNT0000000520216800001872780A00000000000000000000   0000000000253 01000000000000000000   0000187278057N00000000000000000000   0000000000 00000000000000000000   00000000000000187278000000000000000000000MYR00000000000MYR00000000000MYR00000000000MYR000000000000000   9603210000
S11D 1B102023101701332001051053300 CTBM GUM CLEAN CH XS 1PK ASIAx72                              000000000VN00003750000000UNT00003750000000UNT0000000616791100002312967A00000000000000000000   0000000000253 01000000000000000000   0000231297057N00000000000000000000   0000000000 00000000000000000000   00000000000000231297000000000000000000000MYR00000000000MYR00000000000MYR00000000000MYR000000000000000   9603210000
S11R  B102023101701332001VN01295A CTBM TWISTER FH S 3PK INDO*72                                VN00611A CTBM ZIG ZAG FH S 1PK ASIA*72                                VN00610A CTBM ZIG ZAG FH M 1PK ASIA*72                                MY01029A CTB CLASSIC 1S MP                                            1053300 CTBM GUM CLEAN CH XS 1PK ASIAx72                                                                                                                                                                          
S11H  B1820231017001790011D I COLGATE-PALMOLIVE ASIA PACIFIC LTD 183 QUEEN'S ROAD EAST, WAN CHAI, HONG KONG                                                               B165147W       COLGATE PALMOLIVE MARKETING SDN BHDP.O. BOX 11076, 50734 KUALA LUMPUR, MALAYSIA                                                                                                      120230105FSG99739 22OCQHASIATIC KING V.         00000000                        PKGMYHCMVN                    00000000                                         0000              0000        3            00000             HK0000014698800000000000001194337310011759005300001696690002654422070000267610000010000MYR20230109144420230105120020230112113520230105120000119433750000000000930718106164AMIRA FATIHAH BT HAMIM             ADMIN SUPERVISOR                                                                                                                                                TOOTHBRUSH                                                                                                                                     0000        GMD22SGNPKG0240SGNA69089                            0000              0000                                            
S11D 1B1820231017001790010161029946 CTB Zig Zag (S) 5s*12(Polybag)                               000000000VN00034200000000UNT00034200000000UNT0000000695172300023774893A00000000000000000000   0000000000253 01000000000000000000   0002377491057N00000000000000000000   0000000000 00000000000000000000   00000000000002377491000000000000000000000MYR00000000000MYR00000000000MYR00000000000MYR000000000000000   9603210000
S11D 1B1820231017001790010261029951 CTB Twister Soft 5s*12 (Polybag)                             000000000VN00007200000000UNT00007200000000UNT0000000888742300006398945A00000000000000000000   0000000000253 01000000000000000000   0000639895057N00000000000000000000   0000000000 00000000000000000000   00000000000000639895000000000000000000000MYR00000000000MYR00000000000MYR00000000000MYR000000000000000   9603210000
S11D 1B1820231017001790010361029947 CTB Zig Zag (M) 5s*12 (Polybag)                              000000000VN00002700000000UNT00002700000000UNT0000000728396900001966672A00000000000000000000   0000000000253 01000000000000000000   0000196667057N00000000000000000000   0000000000 00000000000000000000   00000000000000196667000000000000000000000MYR00000000000MYR00000000000MYR00000000000MYR000000000000000   9603210000
S11D 1B182023101700179001041052135 CTBM EXTRA_CLEAN FH M 1PK ASIA*72                             000000000VN00000250000000UNT00000250000000UNT0000000953956000000238489A00000000000000000000   0000000000253 01000000000000000000   0000023849057N00000000000000000000   0000000000 00000000000000000000   00000000000000023849000000000000000000000MYR00000000000MYR00000000000MYR00000000000MYR000000000000000   9603210000
S11D 1B182023101700179001051052135 CTBM EXTRA_CLEAN FH M 1PK ASIA*72                             000000000VN00016750000000UNT00016750000000UNT0000000694246200011628624A00000000000000000000   0000000000253 01000000000000000000   0001162862057N00000000000000000000   0000000000 00000000000000000000   00000000000001162862000000000000000000000MYR00000000000MYR00000000000MYR00000000000MYR000000000000000   9603210000
S11D 1B1820231017001790010661029952 CTBM Extra Clean FH M 4s Asia*96 polybag                     000000000VN00014400000000UNT00014400000000UNT0000001013796400014598668A00000000000000000000   0000000000253 01000000000000000000   0001459867057N00000000000000000000   0000000000 00000000000000000000   00000000000001459867000000000000000000000MYR00000000000MYR00000000000MYR00000000000MYR000000000000000   9603210000
S11D 1B182023101700179001071052135 CTBM EXTRA_CLEAN FH M 1PK ASIA*72                             000000000VN00005250000000UNT00005250000000UNT0000000703251900003692072A00000000000000000000   0000000000253 01000000000000000000   0000369207057N00000000000000000000   0000000000 00000000000000000000   00000000000000369207000000000000000000000MYR00000000000MYR00000000000MYR00000000000MYR000000000000000   9603210000
S11R  B18202310170017900161029946 CTB Zig Zag (S) 5s*12(Polybag)                               61029951 CTB Twister Soft 5s*12 (Polybag)                             61029947 CTB Zig Zag (M) 5s*12 (Polybag)                              1052135 CTBM EXTRA_CLEAN FH M 1PK ASIA*72                             1052135 CTBM EXTRA_CLEAN FH M 1PK ASIA*72                             61029952 CTBM Extra Clean FH M 4s Asia*96 polybag                     1052135 CTBM EXTRA_CLEAN FH M 1PK ASIA*72                             
S11D 1B1820231017001790020161029949 CTB Twister 3s - Medium (polybag)                            000000000VN00007000000000UNT00007000000000UNT0000000572104000004004728A00000000000000000000   0000000000253 01000000000000000000   0000400473057N00000000000000000000   0000000000 00000000000000000000   00000000000000400473000000000000000000000MYR00000000000MYR00000000000MYR00000000000MYR000000000000000   9603210000
S11D 1B1820231017001790020261029945 CTB Zig Zag (M) 3s*12 (Polybag)                              000000000VN00050400000000UNT00050400000000UNT0000000428559600021599404A00000000000000000000   0000000000253 01000000000000000000   0002159940057N00000000000000000000   0000000000 00000000000000000000   00000000000002159940000000000000000000000MYR00000000000MYR00000000000MYR00000000000MYR000000000000000   9603210000
S11D 1B1820231017001790020361029947 CTB Zig Zag (M) 5s*12 (Polybag)                              000000000VN00044100000000UNT00044100000000UNT0000000707358400031194505A00000000000000000000   0000000000253 01000000000000000000   0003119451057N00000000000000000000   0000000000 00000000000000000000   00000000000003119451000000000000000000000MYR00000000000MYR00000000000MYR00000000000MYR000000000000000   9603210000
S11D 1B182023101700179002041052135 CTBM EXTRA_CLEAN FH M 1PK ASIA*72                             000000000VN00000250000000UNT00000250000000UNT0000001346924200000336731A00000000000000000000   0000000000253 01000000000000000000   0000033673057N00000000000000000000   0000000000 00000000000000000000   00000000000000033673000000000000000000000MYR00000000000MYR00000000000MYR00000000000MYR000000000000000   9603210000
S11R  B18202310170017900261029949 CTB Twister 3s - Medium (polybag)                            61029945 CTB Zig Zag (M) 3s*12 (Polybag)                              61029947 CTB Zig Zag (M) 5s*12 (Polybag)                              1052135 CTBM EXTRA_CLEAN FH M 1PK ASIA*72                                                                                                                                                                                                                                               
S11H  B1820231017001800004D I HI-P XIAMEN PRECISION PLASTIC      5, HAI JING DONG, SAN ROAD, EXPORT PROCESSING ZONE, XING GANG ROAD, HAI CANG DISTRICT XIAMEN PR CHINA    B165147W       COLGATE PALMOLIVE MARKETING SDN BHDP.O. BOX 11076, 50734 KUALA LUMPUR, MALAYSIA                                                                                                      120230105FCN73185522DAUZZHONG GU LIN YI         00000000                        PKGMYXMNCN                    00000000                                         0000              0000        4            00000             CN0000002376600000000000000193272890001901256300000290960000166037000000012940000010000MYR20230109144720230105120020230112113520230105120000019327300000000000930718106164AMIRA FATIHAH BT HAMIM             ADMIN SUPERVISOR                                                                                                                                                POWERED TOOTHBRUSH                                                                                                                             0000        ZGXMN0001229   SHAE22120054                         0000              0000                                            
S11D 1B1820231017001800010161006861 Col ProClinical Charcoal Refill 2PK *20                      000000000CN00002600000000UNT00002600000000UNT0000000494951700001286874A00000000000000000000   0000000000231 01000000000000000000   0000128688031N00000000000000000000   0000000000 00000000000000000000   00000000000000128688000000000000000000000MYR00000000000MYR00000000000MYR00000000000MYR000000000000000   8509809000
S11D 1B1820231017001800010261006861 Col ProClinical Charcoal Refill 2PK *20                      000000000CN00002600000000UNT00002600000000UNT0000000494951700001286874A00000000000000000000   0000000000231 01000000000000000000   0000128687031N00000000000000000000   0000000000 00000000000000000000   00000000000000128687000000000000000000000MYR00000000000MYR00000000000MYR00000000000MYR000000000000000   8509809000
S11D 1B1820231017001800010361006860 Col PTB ProClinical B150 Charcoal *4                         000000000CN00006820000000UNT00006820000000UNT0000000710229800004843767A00000000000000000000   0000000000231 01000000000000000000   0000484377031N00000000000000000000   0000000000 00000000000000000000   00000000000000484377000000000000000000000MYR00000000000MYR00000000000MYR00000000000MYR000000000000000   8509809000
S11D 1B1820231017001800010461006860 Col PTB ProClinical B150 Charcoal *4                         000000000CN00017050000000UNT00017050000000UNT0000000698520800011909780A00000000000000000000   0000000000231 01000000000000000000   0001190978031N00000000000000000000   0000000000 00000000000000000000   00000000000001190978000000000000000000000MYR00000000000MYR00000000000MYR00000000000MYR000000000000000   8509809000
S11R  B18202310170018000161006861 Col ProClinical Charcoal Refill 2PK *20                      61006861 Col ProClinical Charcoal Refill 2PK *20                      61006860 Col PTB ProClinical B150 Charcoal *4                         61006860 Col PTB ProClinical B150 Charcoal *4                                                                                                                                                                                                                                           
S11H  B1820231017001810001D I NINGBO SEAGO ELECTRIC CO.,LTD      No.239, Jianghu Road, Zone C Hongtang Industrial Park, Jiangbei District, China                          B165147W       COLGATE PALMOLIVE MARKETING SDN BHDP.O. BOX 11076, 50734 KUALA LUMPUR, MALAYSIA                                                                                                      120230105FLR96360 22NARXOOCL CALIFORNIA V       00000000                        PKGMYNGBCN                    00000000                                         0000              0000        4            00000             HK0000000027800000000000000002344910000022265000000011563000001900000000000264000010000MYR20230109145320230105120020230112113520230105120000000234500000000000930718106164AMIRA FATIHAH BT HAMIM             ADMIN SUPERVISOR                                                                                                                                                TOOTHBRUSH HEAD                                                                                                                                0000        COAU7242736290 NGBC35813                            0000              0000                                            
S11D 1B1820231017001810010161021358 COL ETB Gum Care 2 Replacement Brush H                       000000000CN00001500000000UNT00001500000000UNT0000000156327300000234491A00000000000000000000   0000000000231 01000000000000000000   0000023450031N00000000000000000000   0000000000 00000000000000000000   00000000000000023450000000000000000000000MYR00000000000MYR00000000000MYR00000000000MYR000000000000000   8509809000
S11R  B18202310170018100161021358 COL ETB Gum Care 2 Replacement Brush H                                                                                                                                                                                                                                                                                                                                                                                                                                                           
S11H  B1820231017004420003D I COLGATE-PALMOLIVE ASIA PACIFIC LTD 183 QUEEN'S ROAD EAST, WAN CHAI, HONG KONG                                                               B165147W       COLGATE PALMOLIVE MARKETING SDN BHDP.O. BOX 11076, 50734 KUALA LUMPUR, MALAYSIA                                                                                                      120230110FLR10008922DAZFYM MATURITY             00000000                        PKGMYNYCUS                    00000000                                         0000              0000                     00000             HK0000011415900000000000000921486800009132750200000707019000882000000000030837000010000MYR20230113115720230110120020230116113720230110120000092148700000000000930718106164AMIRA FATIHAH BT HAMIM             ADMIN SUPERVISOR                                                                                                                                                DEODORANTS                                                                                                                                     0000        HLCUBSC2210BIQXNYPA54452                            0000              0000                                            
S11D  B182023101700442001011108039 MENNEN LSS INVISI 45G WILD FREESIA                            330720000US00030000000000KGM00030000000000KGM0000000994163700029824911N00000000000000000000   0000000000261 01000000000000000000   0002982493054N00000000000000000000   0000000000 00000000000000000000   00000000000002982493000000000000000000000MYR00000000000MYR00000000000MYR00000000000MYR000000000000000             
S11D  B182023101700442001021108040 MENNEN LSS INVISI 45G ORCH. BLOSSOM                           330720000US00030000000000KGM00030000000000KGM0000000987609600029628288N00000000000000000000   0000000000261 01000000000000000000   0002962829054N00000000000000000000   0000000000 00000000000000000000   00000000000002962829000000000000000000000MYR00000000000MYR00000000000MYR00000000000MYR000000000000000             
S11D  B182023101700442001031108057 MENNEN LSS INVISI 39.6G POWDER FRESH                          330720000US00029310000000KGM00029310000000KGM0000001115506000032695481N00000000000000000000   0000000000261 01000000000000000000   0003269548054N00000000000000000000   0000000000 00000000000000000000   00000000000003269548000000000000000000000MYR00000000000MYR00000000000MYR00000000000MYR000000000000000             
S11R  B1820231017004420011108039 MENNEN LSS INVISI 45G WILD FREESIA                            1108040 MENNEN LSS INVISI 45G ORCH. BLOSSOM                           1108057 MENNEN LSS INVISI 39.6G POWDER FRESH                                                                                                                                                                                                                                                                                                                  
S11H  B1820231017004430008D I COLGATE-PALMOLIVE ASIA PACIFIC LTD 183 QUEEN'S ROAD EAST, WAN CHAI, HONG KONG                                                               B165147W       COLGATE PALMOLIVE MARKETING SDN BHDP.O. BOX 11076, 50734 KUALA LUMPUR, MALAYSIA                                                                                                      120230110FMT952870231ACECMA CGM TARPON          00000000                        PKGMYHUACN                    00000000                                         0000              0000        4            00000             HK0000012810900000000000001027267760010247912300000119544002673950000000085466000010000MYR20230113115920230110120020230116113720230110120000102726750000000000930718106164AMIRA FATIHAH BT HAMIM             ADMIN SUPERVISOR                                                                                                                                                TOOTHPASTE                                                                                                                                     0000        CNH0457574     CAN221346044                         0000              0000                                            
S11D 1B1820231017004430010161004822 COLG CDC FCM 50G + EXTRA CLEAN TB TRAVEL                     000000000CN00001140000000KGM00001140000000KGM0000003692643200004209613A00000000000000000000   0000000000280 01000000000000000000   0000420959057N00000000000000000000   0000000000 00000000000000000000   00000000000000420959000000000000000000000MYR00000000000MYR00000000000MYR00000000000MYR000000000000000   3306101000
S11D 1B1820231017004430010261008385 Total TP Charcoal Deep Clean 18G                             000000000CN00000230000000KGM00000230000000KGM0000003526719900000811146A00000000000000000000   0000000000280 01000000000000000000   0000081115057N00000000000000000000   0000000000 00000000000000000000   00000000000000081115000000000000000000000MYR00000000000MYR00000000000MYR00000000000MYR000000000000000   3306101000
S11D 1B1820231017004430010361009899 Naturals Pure Clean Charcoal 120g                            000000000CN00001500000000KGM00001500000000KGM0000001607020100002410530A00000000000000000000   0000000000280 01000000000000000000   0000241053057N00000000000000000000   0000000000 00000000000000000000   00000000000000241053000000000000000000000MYR00000000000MYR00000000000MYR00000000000MYR000000000000000   3306101000
S11D 1B1820231017004430010461022115 COL TP TOT CHARCOAL DEEP CLEAN 110G                          000000000CN00000070000000KGM00000070000000KGM0000004328365300000302986A00000000000000000000   0000000000280 01000000000000000000   0000030299057N00000000000000000000   0000000000 00000000000000000000   00000000000000030299000000000000000000000MYR00000000000MYR00000000000MYR00000000000MYR000000000000000   3306101000
S11D 1B18202310170044300105CN05367A COL TP FOR KIDS 2-5 TIGER 40G                                000000000CN00000750000000KGM00000750000000KGM0000000703108500000527331A00000000000000000000   0000000000280 01000000000000000000   0000052733057N00000000000000000000   0000000000 00000000000000000000   00000000000000052733000000000000000000000MYR00000000000MYR00000000000MYR00000000000MYR000000000000000   3306101000
S11D 1B18202310170044300106CN07658A COL TP OPTIC WHITE VOLCANIC MINERAL 100G                     000000000CN00009450000000KGM00009450000000KGM0000001491362500014093376A00000000000000000000   0000000000280 01000000000000000000   0001409338057N00000000000000000000   0000000000 00000000000000000000   00000000000001409338000000000000000000000MYR00000000000MYR00000000000MYR00000000000MYR000000000000000   3306101000
S11D 1B1820231017004430010761004822 COLG CDC FCM 50G + EXTRA CLEAN TB TRAVEL                     000000000CN00018120000000KGM00018120000000KGM0000003638998400065938651A00000000000000000000   0000000000280 01000000000000000000   0006593865057N00000000000000000000   0000000000 00000000000000000000   00000000000006593865000000000000000000000MYR00000000000MYR00000000000MYR00000000000MYR000000000000000   3306101000
S11R  B18202310170044300161004822 COLG CDC FCM 50G + EXTRA CLEAN TB TRAVEL                     61008385 Total TP Charcoal Deep Clean 18G                             61009899 Naturals Pure Clean Charcoal 120g                            61022115 COL TP TOT CHARCOAL DEEP CLEAN 110G                          CN05367A COL TP FOR KIDS 2-5 TIGER 40G                                CN07658A COL TP OPTIC WHITE VOLCANIC MINERAL 100G                     61004822 COLG CDC FCM 50G + EXTRA CLEAN TB TRAVEL                     
S11D 1B18202310170044300201CN05658A COL TP OPTIC WHITE DAZZLING WHIT 100G                        000000000CN00010020000000KGM00010020000000KGM0000001440432400014433133A00000000000000000000   0000000000280 01000000000000000000   0001443313057N00000000000000000000   0000000000 00000000000000000000   00000000000001443313000000000000000000000MYR00000000000MYR00000000000MYR00000000000MYR000000000000000   3306101000
S11R  B182023101700443002CN05658A COL TP OPTIC WHITE DAZZLING WHIT 100G                                                                                                                                                                                                                                                                                                                                                                                                                                                            
S11H  B1820231017007950003D I COLGATE-PALMOLIVE ASIA PACIFIC LTD 183 QUEEN'S ROAD EAST, WAN CHAI, HONG KONG                                                               B165147W       COLGATE PALMOLIVE MARKETING SDN BHDP.O. BOX 11076, 50734 KUALA LUMPUR, MALAYSIA                                                                                                      120230116FPA10061422NCSYMOL ENDOWMENT           00000000                        PKGMYNYCUS                    00000000                                         0000              0000                     00000             HK0000011407700000000000000918847200009126186600000508777000928900000000032055000010000MYR20230120151920230116120020230125105220230116120000091884700000000000930718106164AMIRA FATIHAH BT HAMIM             ADMIN SUPERVISOR                                                                                                                                                DEODORANT                                                                                                                                      0000        NEYRICCPY262400NYPA55746                            0000              0000                                            
S11D  B182023101700795001011108039 MENNEN LSS INVISI 45G WILD FREESIA                            330720000US00030000000000KGM00030000000000KGM0000000934327500028029825N00000000000000000000   0000000000261 01000000000000000000   0002802981054N00000000000000000000   0000000000 00000000000000000000   00000000000002802981000000000000000000000MYR00000000000MYR00000000000MYR00000000000MYR000000000000000             
S11D  B182023101700795001021108040 MENNEN LSS INVISI 45G ORCH. BLOSSOM                           330720000US00035000000000KGM00035000000000KGM0000000926293800032420283N00000000000000000000   0000000000261 01000000000000000000   0003242028054N00000000000000000000   0000000000 00000000000000000000   00000000000003242028000000000000000000000MYR00000000000MYR00000000000MYR00000000000MYR000000000000000             
S11D  B182023101700795001031108057 MENNEN LSS INVISI 39.6G POWDER FRESH                          330720000US00030000000000KGM00030000000000KGM0000001047820400031434612N00000000000000000000   0000000000261 01000000000000000000   0003143461054N00000000000000000000   0000000000 00000000000000000000   00000000000003143461000000000000000000000MYR00000000000MYR00000000000MYR00000000000MYR000000000000000             
S11R  B1820231017007950011108039 MENNEN LSS INVISI 45G WILD FREESIA                            1108040 MENNEN LSS INVISI 45G ORCH. BLOSSOM                           1108057 MENNEN LSS INVISI 39.6G POWDER FRESH                                                                                                                                                                                                                                                                                                                  
S11H  B1820231017007960013D I COLGATE-PALMOLIVE ASIA PACIFIC LTD 183 QUEEN'S ROAD EAST, WAN CHAI, HONG KONG                                                               B165147W       COLGATE PALMOLIVE MARKETING SDN BHDP.O. BOX 11076, 50734 KUALA LUMPUR, MALAYSIA                                                                                                      120230117FLR50484322DAZKYM COOPERATION          00000000                        PKGMYSHACN                    00000000                                         0000              0000        4            00000             HK0000006692600000000000000539273240005354125600000319142000602300000000067830000010000MYR20230120152420230117120020230125105220230117120000053927300000000000930718106164AMIRA FATIHAH BT HAMIM             ADMIN SUPERVISOR                                                                                                                                                TOOTHBRUSH                                                                                                                                     0000        KMTCSHAK126075 SHAE93183                            0000              0000                                            
S11D 1B1820231017007960010161000093 CTBM Cushion Clean UCHS 1PK_Asia*12                          000000000CN00005000000000UNT00005000000000UNT0000000674641700003373209A00000000000000000000   0000000000253 01000000000000000000   0000337319057N00000000000000000000   0000000000 00000000000000000000   00000000000000337319000000000000000000000MYR00000000000MYR00000000000MYR00000000000MYR000000000000000   9603210000
S11D 1B1820231017007960010261000094 CTBM Cushion Clean UCHS 2PK_Asia*24                          000000000CN00007220000000UNT00007220000000UNT0000001057440800007634723A00000000000000000000   0000000000253 01000000000000000000   0000763472057N00000000000000000000   0000000000 00000000000000000000   00000000000000763472000000000000000000000MYR00000000000MYR00000000000MYR00000000000MYR000000000000000   9603210000
S11D 1B1820231017007960010361000860 CTBM Super Flexi Charcoal 1PK_MY*72                          000000000CN00000660000000UNT00000660000000UNT0000000991805500000654592A00000000000000000000   0000000000253 01000000000000000000   0000065459057N00000000000000000000   0000000000 00000000000000000000   00000000000000065459000000000000000000000MYR00000000000MYR00000000000MYR00000000000MYR000000000000000   9603210000
S11D 1B1820231017007960010461018671 CTBM Easy Comfort fit 1pk_TW*12                              000000000CN00015600000000UNT00015600000000UNT0000000555747900008669667A00000000000000000000   0000000000253 01000000000000000000   0000866967057N00000000000000000000   0000000000 00000000000000000000   00000000000000866967000000000000000000000MYR00000000000MYR00000000000MYR00000000000MYR000000000000000   9603210000
S11D 1B1820231017007960010561000435 CTBM SS Advanced Volcanic 2PK_MY*24                          000000000CN00011500000000UNT00011500000000UNT0000000738355400008491087A00000000000000000000   0000000000253 01000000000000000000   0000849109057N00000000000000000000   0000000000 00000000000000000000   00000000000000849109000000000000000000000MYR00000000000MYR00000000000MYR00000000000MYR000000000000000   9603210000
S11D 1B1820231017007960010661030049 CTBM SS Charcoal Gold 5s polybag_MY*60                       000000000CN00007960000000UNT00007960000000UNT0000001135753700009040599A00000000000000000000   0000000000253 01000000000000000000   0000904060057N00000000000000000000   0000000000 00000000000000000000   00000000000000904060000000000000000000000MYR00000000000MYR00000000000MYR00000000000MYR000000000000000   9603210000
S11D 1B18202310170079600107183901151 CTBMAN 360 SENSITIVE PRO RELIEF X 96                        000000000CN00000320000000UNT00000320000000UNT0000001840313600000588900A00000000000000000000   0000000000253 01000000000000000000   0000058890057N00000000000000000000   0000000000 00000000000000000000   00000000000000058890000000000000000000000MYR00000000000MYR00000000000MYR00000000000MYR000000000000000   9603210000
S11R  B18202310170079600161000093 CTBM Cushion Clean UCHS 1PK_Asia*12                          61000094 CTBM Cushion Clean UCHS 2PK_Asia*24                          61000860 CTBM Super Flexi Charcoal 1PK_MY*72                          61018671 CTBM Easy Comfort fit 1pk_TW*12                              61000435 CTBM SS Advanced Volcanic 2PK_MY*24                          61030049 CTBM SS Charcoal Gold 5s polybag_MY*60                       183901151 CTBMAN 360 SENSITIVE PRO RELIEF X 96                        
S11D 1B18202310170079600201183901758 CTBM Mid-Tier Age 2-5 12 JHX_Asia*72                        000000000CN00003330000000UNT00003330000000UNT0000000811886300002703581A00000000000000000000   0000000000253 01000000000000000000   0000270358057N00000000000000000000   0000000000 00000000000000000000   00000000000000270358000000000000000000000MYR00000000000MYR00000000000MYR00000000000MYR000000000000000   9603210000
S11D 1B18202310170079600202183901783 CTBM Slim Soft CH Charcoal_Asia*12                          000000000CN00015120000000UNT00015120000000UNT0000000197961500002993178A00000000000000000000   0000000000253 01000000000000000000   0000299318057N00000000000000000000   0000000000 00000000000000000000   00000000000000299318000000000000000000000MYR00000000000MYR00000000000MYR00000000000MYR000000000000000   9603210000
S11D 1B18202310170079600203183902086 CTBM SlimSoft Charcoal Gold CHX_Asia*12                     000000000CN00005860000000UNT00005860000000UNT0000000223631900001310483A00000000000000000000   0000000000253 01000000000000000000   0000131048057N00000000000000000000   0000000000 00000000000000000000   00000000000000131048000000000000000000000MYR00000000000MYR00000000000MYR00000000000MYR000000000000000   9603210000
S11D 1B18202310170079600204CN06045A CTBM 360 Advance OH S 1PK_SPC*96                             000000000CN00000360000000UNT00000360000000UNT0000003476900700001251684A00000000000000000000   0000000000253 01000000000000000000   0000125168057N00000000000000000000   0000000000 00000000000000000000   00000000000000125168000000000000000000000MYR00000000000MYR00000000000MYR00000000000MYR000000000000000   9603210000
S11D 1B18202310170079600205CN06876A CTBM Slim Soft Flex Clean 2PK_Asia*24                        000000000CN00005000000000UNT00005000000000UNT0000000720762000003603810A00000000000000000000   0000000000253 01000000000000000000   0000360381057N00000000000000000000   0000000000 00000000000000000000   00000000000000360381000000000000000000000MYR00000000000MYR00000000000MYR00000000000MYR000000000000000   9603210000
S11D 1B18202310170079600206CN06909A CTBM SS Flex Clean Charcoal 2PK_Asia*24                      000000000CN00005000000000UNT00005000000000UNT0000000722362100003611811A00000000000000000000   0000000000253 01000000000000000000   0000361181057N00000000000000000000   0000000000 00000000000000000000   00000000000000361181000000000000000000000MYR00000000000MYR00000000000MYR00000000000MYR000000000000000   9603210000
S11R  B182023101700796002183901758 CTBM Mid-Tier Age 2-5 12 JHX_Asia*72                        183901783 CTBM Slim Soft CH Charcoal_Asia*12                          183902086 CTBM SlimSoft Charcoal Gold CHX_Asia*12                     CN06045A CTBM 360 Advance OH S 1PK_SPC*96                             CN06876A CTBM Slim Soft Flex Clean 2PK_Asia*24                        CN06909A CTBM SS Flex Clean Charcoal 2PK_Asia*24                                                                                            
S11H  B1820231017007970008D I COLGATE-PALMOLIVE ASIA PACIFIC LTD 183 QUEEN'S ROAD EAST, WAN CHAI, HONG KONG                                                               B165147W       COLGATE PALMOLIVE MARKETING SDN BHDP.O. BOX 11076, 50734 KUALA LUMPUR, MALAYSIA                                                                                                      120230117FSG09986922DAWBHANNAH SCHULTE V.       00000000                        PKGMYSHACN                    00000000                                         0000              0000        4            00000             HK0000006379500000000000000514242960005103673400000323767000662500000000068110000010000MYR20230120152620230117120020230125105220230117120000051424300000000000930718106164AMIRA FATIHAH BT HAMIM             ADMIN SUPERVISOR                                                                                                                                                TOOTHBRUSH                                                                                                                                     0000        KMTCSHAK131827 SHAE98276                            0000              0000                                            
S11D 1B1820231017007970010161000435 CTBM SS Advanced Volcanic 2PK_MY*24                          000000000CN00008500000000UNT00008500000000UNT0000000741196300006300169A00000000000000000000   0000000000253 01000000000000000000   0000630018057N00000000000000000000   0000000000 00000000000000000000   00000000000000630018000000000000000000000MYR00000000000MYR00000000000MYR00000000000MYR000000000000000   9603210000
S11D 1B1820231017007970010261018671 CTBM Easy Comfort fit 1pk_TW*12                              000000000CN00034400000000UNT00034400000000UNT0000000554008900019057906A00000000000000000000   0000000000253 01000000000000000000   0001905791057N00000000000000000000   0000000000 00000000000000000000   00000000000001905791000000000000000000000MYR00000000000MYR00000000000MYR00000000000MYR000000000000000   9603210000
S11D 1B1820231017007970010361030045 CTBM SS Charcoal 3s polybag_MY*36                            000000000CN00006670000000UNT00006670000000UNT0000000660720100004407003A00000000000000000000   0000000000253 01000000000000000000   0000440700057N00000000000000000000   0000000000 00000000000000000000   00000000000000440700000000000000000000000MYR00000000000MYR00000000000MYR00000000000MYR000000000000000   9603210000
S11D 1B1820231017007970010461030052 CTBM Zig Zag Charcoal 5s polybag_MY*60                       000000000CN00008620000000UNT00008620000000UNT0000000872894900007524354A00000000000000000000   0000000000253 01000000000000000000   0000752435057N00000000000000000000   0000000000 00000000000000000000   00000000000000752435000000000000000000000MYR00000000000MYR00000000000MYR00000000000MYR000000000000000   9603210000
S11D 1B18202310170079700105183901783 CTBM Slim Soft CH Charcoal_Asia*12                          000000000CN00033790000000UNT00033790000000UNT0000000197310400006667118A00000000000000000000   0000000000253 01000000000000000000   0000666712057N00000000000000000000   0000000000 00000000000000000000   00000000000000666712000000000000000000000MYR00000000000MYR00000000000MYR00000000000MYR000000000000000   9603210000
S11D 1B18202310170079700106CN06046A CTBM 360 Advance OH M 1PK_SPC*96                             000000000CN00000320000000UNT00000320000000UNT0000003580917100001145893A00000000000000000000   0000000000253 01000000000000000000   0000114589057N00000000000000000000   0000000000 00000000000000000000   00000000000000114589000000000000000000000MYR00000000000MYR00000000000MYR00000000000MYR000000000000000   9603210000
S11D 1B18202310170079700107CN06876A CTBM Slim Soft Flex Clean 2PK_Asia*24                        000000000CN00005230000000UNT00005230000000UNT0000000725107500003792312A00000000000000000000   0000000000253 01000000000000000000   0000379231057N00000000000000000000   0000000000 00000000000000000000   00000000000000379231000000000000000000000MYR00000000000MYR00000000000MYR00000000000MYR000000000000000   9603210000
S11R  B18202310170079700161000435 CTBM SS Advanced Volcanic 2PK_MY*24                          61018671 CTBM Easy Comfort fit 1pk_TW*12                              61030045 CTBM SS Charcoal 3s polybag_MY*36                            61030052 CTBM Zig Zag Charcoal 5s polybag_MY*60                       183901783 CTBM Slim Soft CH Charcoal_Asia*12                          CN06046A CTBM 360 Advance OH M 1PK_SPC*96                             CN06876A CTBM Slim Soft Flex Clean 2PK_Asia*24                        
S11D 1B18202310170079700201CN06909A CTBM SS Flex Clean Charcoal 2PK_Asia*24                      000000000CN00003450000000UNT00003450000000UNT0000000733199200002529537A00000000000000000000   0000000000253 01000000000000000000   0000252954057N00000000000000000000   0000000000 00000000000000000000   00000000000000252954000000000000000000000MYR00000000000MYR00000000000MYR00000000000MYR000000000000000   9603210000
S11R  B182023101700797002CN06909A CTBM SS Flex Clean Charcoal 2PK_Asia*24                                                                                                                                                                                                                                                                                                                                                                                                                                                          
S11H  B1820231017007980009D I COLGATE-PALMOLIVE ASIA PACIFIC LTD 183 QUEEN'S ROAD EAST, WAN CHAI, HONG KONG                                                               B165147W       COLGATE PALMOLIVE MARKETING SDN BHDP.O. BOX 11076, 50734 KUALA LUMPUR, MALAYSIA                                                                                                      120230117FCN11700222DBFBXIN HUI ZHOU            00000000                        PKGMYHUACN                    00000000                                         0000              0000        4            00000             HK0000025869200000000000002074897570020695355100000277514007075350000000189646000010000MYR20230120152820230117120020230125105220230117120000207489750000000000930718106164AMIRA FATIHAH BT HAMIM             ADMIN SUPERVISOR                                                                                                                                                TOOTHPASTE                                                                                                                                     0000        CNH0459604     CAN230005302                         0000              0000                                            
S11D 1B1820231017007980010161004822 COLG CDC FCM 50G + EXTRA CLEAN TB TRAVEL                     000000000CN00004430000000KGM00004430000000KGM0000003658713000016208099A00000000000000000000   0000000000280 01000000000000000000   0001620809057N00000000000000000000   0000000000 00000000000000000000   00000000000001620809000000000000000000000MYR00000000000MYR00000000000MYR00000000000MYR000000000000000   3306101000
S11D 1B1820231017007980010261008385 Total TP Charcoal Deep Clean 18G                             000000000CN00005610000000KGM00005610000000KGM0000003232854100018136312A00000000000000000000   0000000000280 01000000000000000000   0001813631057N00000000000000000000   0000000000 00000000000000000000   00000000000001813631000000000000000000000MYR00000000000MYR00000000000MYR00000000000MYR000000000000000   3306101000
S11D 1B1820231017007980010361009899 Naturals Pure Clean Charcoal 120g                            000000000CN00001350000000KGM00001350000000KGM0000001538903400002077520A00000000000000000000   0000000000280 01000000000000000000   0000207752057N00000000000000000000   0000000000 00000000000000000000   00000000000000207752000000000000000000000MYR00000000000MYR00000000000MYR00000000000MYR000000000000000   3306101000
S11D 1B1820231017007980010461012385 Col Optic White Exfoliating Mineral 100g                     000000000CN00029500000000KGM00029500000000KGM0000001525003700044987609A00000000000000000000   0000000000280 01000000000000000000   0004498761057N00000000000000000000   0000000000 00000000000000000000   00000000000004498761000000000000000000000MYR00000000000MYR00000000000MYR00000000000MYR000000000000000   3306101000
S11D 1B1820231017007980010561012385 Col Optic White Exfoliating Mineral 100g                     000000000CN00007400000000KGM00007400000000KGM0000001542055500011411211A00000000000000000000   0000000000280 01000000000000000000   0001141121057N00000000000000000000   0000000000 00000000000000000000   00000000000001141121000000000000000000000MYR00000000000MYR00000000000MYR00000000000MYR000000000000000   3306101000
S11D 1B1820231017007980010661022114 COL TP TOT CHARCOAL DEEP CLEAN 150G TWIN                     000000000CN00020040000000KGM00020040000000KGM0000004098756300082139076A00000000000000000000   0000000000280 01000000000000000000   0008213908057N00000000000000000000   0000000000 00000000000000000000   00000000000008213908000000000000000000000MYR00000000000MYR00000000000MYR00000000000MYR000000000000000   3306101000
S11D 1B1820231017007980010761022116 TOTAL TP CHARCOAL DEEP CLEAN 60G                             000000000CN00008220000000KGM00008220000000KGM0000001848870000015197711A00000000000000000000   0000000000280 01000000000000000000   0001519771057N00000000000000000000   0000000000 00000000000000000000   00000000000001519771000000000000000000000MYR00000000000MYR00000000000MYR00000000000MYR000000000000000   3306101000
S11R  B18202310170079800161004822 COLG CDC FCM 50G + EXTRA CLEAN TB TRAVEL                     61008385 Total TP Charcoal Deep Clean 18G                             61009899 Naturals Pure Clean Charcoal 120g                            61012385 Col Optic White Exfoliating Mineral 100g                     61012385 Col Optic White Exfoliating Mineral 100g                     61022114 COL TP TOT CHARCOAL DEEP CLEAN 150G TWIN                     61022116 TOTAL TP CHARCOAL DEEP CLEAN 60G                             
S11D 1B18202310170079800201CN05367A COL TP FOR KIDS 2-5 TIGER 40G                                000000000CN00000640000000KGM00000640000000KGM0000000861685600000551479A00000000000000000000   0000000000280 01000000000000000000   0000055148057N00000000000000000000   0000000000 00000000000000000000   00000000000000055148000000000000000000000MYR00000000000MYR00000000000MYR00000000000MYR000000000000000   3306101000
S11D 1B18202310170079800202CN07658A COL TP OPTIC WHITE VOLCANIC MINERAL 100G                     000000000CN00011890000000KGM00011890000000KGM0000001411332300016780741A00000000000000000000   0000000000280 01000000000000000000   0001678074057N00000000000000000000   0000000000 00000000000000000000   00000000000001678074000000000000000000000MYR00000000000MYR00000000000MYR00000000000MYR000000000000000   3306101000
S11R  B182023101700798002CN05367A COL TP FOR KIDS 2-5 TIGER 40G                                CN07658A COL TP OPTIC WHITE VOLCANIC MINERAL 100G                                                                                                                                                                                                                                                                                                                                                                                   
S11H  B1820231017007990008D I COLGATE-PALMOLIVE ASIA PACIFIC LTD 183 QUEEN'S ROAD EAST, WAN CHAI, HONG KONG                                                               B165147W       COLGATE PALMOLIVE MARKETING SDN BHDP.O. BOX 11076, 50734 KUALA LUMPUR, MALAYSIA                                                                                                      120230119FTW23653 22DBBUEVER BEFIT V.190        00000000                        PKGMYSHACN                    00000000                                         0000              0000        4            00000             HK0000004958300000000000000400352360003966651100000319142000667600000000067830000010000MYR20230120153620230119120020230125105220230119120000040035250000000000930718106164AMIRA FATIHAH BT HAMIM             ADMIN SUPERVISOR                                                                                                                                                TOOTHBRUSH                                                                                                                                     0000        GLV142253661423SHAE100909                           0000              0000                                            
S11D 1B1820231017007990010161018671 CTBM Easy Comfort fit 1pk_TW*12                              000000000CN00026430000000UNT00026430000000UNT0000000496587000013124794A00000000000000000000   0000000000253 01000000000000000000   0001312481057N00000000000000000000   0000000000 00000000000000000000   00000000000001312481000000000000000000000MYR00000000000MYR00000000000MYR00000000000MYR000000000000000   9603210000
S11D 1B1820231017007990010261030045 CTBM SS Charcoal 3s polybag_MY*36                            000000000CN00010000000000UNT00010000000000UNT0000000596414900005964149A00000000000000000000   0000000000253 01000000000000000000   0000596415057N00000000000000000000   0000000000 00000000000000000000   00000000000000596415000000000000000000000MYR00000000000MYR00000000000MYR00000000000MYR000000000000000   9603210000
S11D 1B1820231017007990010361030052 CTBM Zig Zag Charcoal 5s polybag_MY*60                       000000000CN00013020000000UNT00013020000000UNT0000000786419500010239182A00000000000000000000   0000000000253 01000000000000000000   0001023918057N00000000000000000000   0000000000 00000000000000000000   00000000000001023918000000000000000000000MYR00000000000MYR00000000000MYR00000000000MYR000000000000000   9603210000
S11D 1B18202310170079900104CN05265A CTBM SlimSoft Ortho CHS_ASIA*12                              000000000CN00007500000000UNT00007500000000UNT0000000209289900001569674A00000000000000000000   0000000000253 01000000000000000000   0000156967057N00000000000000000000   0000000000 00000000000000000000   00000000000000156967000000000000000000000MYR00000000000MYR00000000000MYR00000000000MYR000000000000000   9603210000
S11D 1B18202310170079900105CN06045A CTBM 360 Advance OH S 1PK_SPC*96                             000000000CN00000360000000UNT00000360000000UNT0000004031770200001451437A00000000000000000000   0000000000253 01000000000000000000   0000145144057N00000000000000000000   0000000000 00000000000000000000   00000000000000145144000000000000000000000MYR00000000000MYR00000000000MYR00000000000MYR000000000000000   9603210000
S11D 1B18202310170079900106CN07586A CTBM Smiles Minions 2-5 1pk_MY*12                            000000000CN00012120000000UNT00012120000000UNT0000000175129000002122563A00000000000000000000   0000000000253 01000000000000000000   0000212256057N00000000000000000000   0000000000 00000000000000000000   00000000000000212256000000000000000000000MYR00000000000MYR00000000000MYR00000000000MYR000000000000000   9603210000
S11D 1B18202310170079900107CN07589A CTBM Smiles Minions 5-9 1pk_MY*12                            000000000CN00008830000000UNT00008830000000UNT0000000186800300001649447A00000000000000000000   0000000000253 01000000000000000000   0000164945057N00000000000000000000   0000000000 00000000000000000000   00000000000000164945000000000000000000000MYR00000000000MYR00000000000MYR00000000000MYR000000000000000   9603210000
S11R  B18202310170079900161018671 CTBM Easy Comfort fit 1pk_TW*12                              61030045 CTBM SS Charcoal 3s polybag_MY*36                            61030052 CTBM Zig Zag Charcoal 5s polybag_MY*60                       CN05265A CTBM SlimSoft Ortho CHS_ASIA*12                              CN06045A CTBM 360 Advance OH S 1PK_SPC*96                             CN07586A CTBM Smiles Minions 2-5 1pk_MY*12                            CN07589A CTBM Smiles Minions 5-9 1pk_MY*12                            
S11D 1B18202310170079900201CN07609A CTBM Smiles Barbie 6+ 1pk_MY*12                              000000000CN00021110000000UNT00021110000000UNT0000000185409200003913988A00000000000000000000   0000000000253 01000000000000000000   0000391399057N00000000000000000000   0000000000 00000000000000000000   00000000000000391399000000000000000000000MYR00000000000MYR00000000000MYR00000000000MYR000000000000000   9603210000
S11R  B182023101700799002CN07609A CTBM Smiles Barbie 6+ 1pk_MY*12                                                                                                                                                                                                                                                                                                                                                                                                                                                                  
S11H  B1820231017008000005D I COLGATE-PALMOLIVE ASIA PACIFIC LTD 183 QUEEN'S ROAD EAST, WAN CHAI, HONG KONG                                                               B165147W       COLGATE PALMOLIVE MARKETING SDN BHDP.O. BOX 11076, 50734 KUALA LUMPUR, MALAYSIA                                                                                                      120230119FTW23653 22DBBUEVER BEFIT V.1903       00000000                        PKGMYSHACN                    00000000                                         0000              0000        4            00000             HK0000003310400000000000000269735150002648387100000456540000289100000000028070000010000MYR20230120153920230119120020230125105220230119120000026973500000000000930718106164AMIRA FATIHAH BT HAMIM             ADMIN SUPERVISOR                                                                                                                                                TOOTHBRUSH                                                                                                                                     0000        GLV142253660788SHAE98296                            0000              0000                                            
S11D 1B1820231017008000010161000094 CTBM Cushion Clean UCHS 2PK_Asia*24                          000000000CN00017500000000UNT00017500000000UNT0000000946087100016556524A00000000000000000000   0000000000253 01000000000000000000   0001655651057N00000000000000000000   0000000000 00000000000000000000   00000000000001655651000000000000000000000MYR00000000000MYR00000000000MYR00000000000MYR000000000000000   9603210000
S11D 1B1820231017008000010261000435 CTBM SS Advanced Volcanic 2PK_MY*24                          000000000CN00005000000000UNT00005000000000UNT0000000686026000003430130A00000000000000000000   0000000000253 01000000000000000000   0000343013057N00000000000000000000   0000000000 00000000000000000000   00000000000000343013000000000000000000000MYR00000000000MYR00000000000MYR00000000000MYR000000000000000   9603210000
S11D 1B1820231017008000010361004222 CTBM Kids Zero 2PK_MY Hub*24                                 000000000CN00001250000000UNT00001250000000UNT0000000398694000000498368A00000000000000000000   0000000000253 01000000000000000000   0000049837057N00000000000000000000   0000000000 00000000000000000000   00000000000000049837000000000000000000000MYR00000000000MYR00000000000MYR00000000000MYR000000000000000   9603210000
S11D 1B1820231017008000010461007956 CTBM Cushion Clean Charcoal 2PK_Asia*24                      000000000CN00004530000000UNT00004530000000UNT0000001005807800004556309A00000000000000000000   0000000000253 01000000000000000000   0000455631057N00000000000000000000   0000000000 00000000000000000000   00000000000000455631000000000000000000000MYR00000000000MYR00000000000MYR00000000000MYR000000000000000   9603210000
S11D 1B18202310170080000105183902151 CTBM ZZ Charcoal FH 1PK_Asia*72                             000000000CN00002280000000UNT00002280000000UNT0000000847448800001932183A00000000000000000000   0000000000253 01000000000000000000   0000193218057N00000000000000000000   0000000000 00000000000000000000   00000000000000193218000000000000000000000MYR00000000000MYR00000000000MYR00000000000MYR000000000000000   9603210000
S11R  B18202310170080000161000094 CTBM Cushion Clean UCHS 2PK_Asia*24                          61000435 CTBM SS Advanced Volcanic 2PK_MY*24                          61004222 CTBM Kids Zero 2PK_MY Hub*24                                 61007956 CTBM Cushion Clean Charcoal 2PK_Asia*24                      183902151 CTBM ZZ Charcoal FH 1PK_Asia*72                                                                                                                                                                         
S11H  B1820231017010320008D I COLGATE-PALMOLIVE ASIA PACIFIC LTD 183 QUEEN'S ROAD EAST, WAN CHAI, HONG KONG                                                               B165147W       COLGATE PALMOLIVE MARKETING SDN BHDP.O. BOX 11076, 50734 KUALA LUMPUR, MALAYSIA                                                                                                      120230125FTW53481822DBBVEVER BEADY              00000000                        PKGMYSHACN                    00000000                                         0000              0000        4            00000             HK0000002246600000000000000184522420001797323600000456540000220600000000024760000010000MYR20230130162920230125120020230130180320230125120000018452250000000000930718106164AMIRA FATIHAH BT HAMIM             ADMIN SUPERVISOR                                                                                                                                                TOOTHBRUSH                                                                                                                                     0000        EGLV14225366141SHAE100190                           0000              0000                                            
S11D 1B1820231017010320010161000094 CTBM Cushion Clean UCHS 2PK_Asia*24                          000000000CN00002500000000UNT00002500000000UNT0000000962888300002407221A00000000000000000000   0000000000253 01000000000000000000   0000240721057N00000000000000000000   0000000000 00000000000000000000   00000000000000240721000000000000000000000MYR00000000000MYR00000000000MYR00000000000MYR000000000000000   9603210000
S11D 1B1820231017010320010261007956 CTBM Cushion Clean Charcoal 2PK_Asia*24                      000000000CN00004500000000UNT00004500000000UNT0000000999966800004499851A00000000000000000000   0000000000253 01000000000000000000   0000449985057N00000000000000000000   0000000000 00000000000000000000   00000000000000449985000000000000000000000MYR00000000000MYR00000000000MYR00000000000MYR000000000000000   9603210000
S11D 1B1820231017010320010361018671 CTBM Easy Comfort fit 1pk_TW*12                              000000000CN00011380000000UNT00011380000000UNT0000000504022400005735775A00000000000000000000   0000000000253 01000000000000000000   0000573578057N00000000000000000000   0000000000 00000000000000000000   00000000000000573578000000000000000000000MYR00000000000MYR00000000000MYR00000000000MYR000000000000000   9603210000
S11D 1B1820231017010320010461030045 CTBM SS Charcoal 3s polybag_MY*36                            000000000CN00002000000000UNT00002000000000UNT0000000620878600001241757A00000000000000000000   0000000000253 01000000000000000000   0000124176057N00000000000000000000   0000000000 00000000000000000000   00000000000000124176000000000000000000000MYR00000000000MYR00000000000MYR00000000000MYR000000000000000   9603210000
S11D 1B1820231017010320010561030046 CTBM SS Charcoal 5s polybag_MY*60                            000000000CN00002960000000UNT00002960000000UNT0000000948604100002807868A00000000000000000000   0000000000253 01000000000000000000   0000280787057N00000000000000000000   0000000000 00000000000000000000   00000000000000280787000000000000000000000MYR00000000000MYR00000000000MYR00000000000MYR000000000000000   9603210000
S11D 1B18202310170103200106183901400 CTBMAN 360 MED 1PK X 96                                     000000000CN00000320000000UNT00000320000000UNT0000002659264100000850965A00000000000000000000   0000000000253 01000000000000000000   0000085097057N00000000000000000000   0000000000 00000000000000000000   00000000000000085097000000000000000000000MYR00000000000MYR00000000000MYR00000000000MYR000000000000000   9603210000
S11D 1B18202310170103200107183901611 CTBM Slim Soft UCH XS_Asia*12                               000000000CN00002500000000UNT00002500000000UNT0000000181886500000454716A00000000000000000000   0000000000253 01000000000000000000   0000045472057N00000000000000000000   0000000000 00000000000000000000   00000000000000045472000000000000000000000MYR00000000000MYR00000000000MYR00000000000MYR000000000000000   9603210000
S11R  B18202310170103200161000094 CTBM Cushion Clean UCHS 2PK_Asia*24                          61007956 CTBM Cushion Clean Charcoal 2PK_Asia*24                      61018671 CTBM Easy Comfort fit 1pk_TW*12                              61030045 CTBM SS Charcoal 3s polybag_MY*36                            61030046 CTBM SS Charcoal 5s polybag_MY*60                            183901400 CTBMAN 360 MED 1PK X 96                                     183901611 CTBM Slim Soft UCH XS_Asia*12                               
S11D 1B18202310170103200201CN05265A CTBM SlimSoft Ortho CHS_ASIA*12                              000000000CN00002000000000UNT00002000000000UNT0000000227044500000454089A00000000000000000000   0000000000253 01000000000000000000   0000045409057N00000000000000000000   0000000000 00000000000000000000   00000000000000045409000000000000000000000MYR00000000000MYR00000000000MYR00000000000MYR000000000000000   9603210000
