S11HDR001                    202302020036480000000               
S11H  B1020231017002020001D I LOREAL VIETNAM                     FLOOR 10, VINCOM CENTER45A LY TU TR HCMC                                                                 B328418A       LOREAL MALAYSIA SDN BHD            CROWN PENTHOUSE 1 POWERHOUSE,NO 1 PERSIARAN BANDAR UTAMA,47800 PETALING JAYA , SELANGOR                                                           120230103FSG99286022NBUNWAN HAI 295             00000000                        PKGMYHCMVN                    00000000                                         0000              0000                     00000             VN0000001294600000092703000013487040000129795500000037803000005538000000000000000010000MYR20230109162020230103120020230112142220230103120000000720700000000000900128146468SYAZWANI BT LANZA                  LOGISTICS EXEC                                                                                                                                                  SKINCARE                                                                                                                                       0000        A59C037744     VN101190650                          0000              0000                                            
S11D  B10202310170020200101S0062308 MID RECOV CONC 30ML 380 UNT                                  330499900US00006661000000KGM00003800000000UNT0000000379317600001441407N00000000000000000000   0000000000261 00500000000000000000   0000072070054N00000000000000000000   0000000000 00000000000000000000   00000000000000072070000000000000000000000MYR00000000000MYR00000000000MYR00000000000MYR000000000000000             
S11R  B102023101700202001S0062308 MID RECOV CONC 30ML 380 UNT                                                                                                                                                                                                                                                                                                                                                                                                                                                                      
S11H  B1020231017002040021D I SUZHOU BEAUTYCOS-INTERNATIONAL     ZITENG STREETJINJIHU RD 215021 SUZHOU                                                                    B328418A       LOREAL MALAYSIA SDN BHD            CROWN PENTHOUSE 1 POWERHOUSE,NO 1 PERSIARAN BANDAR UTAMA,47800 PETALING JAYA , SELANGOR                                                           120230105FPA10303 22DAPRKMTC NINGBO             00000000                        PKGMYSHACN                    00000000                                         0000              0000                     00000             CN0000026131500003277358000297859290002650834000003016274001719900000000000000000010000MYR20230109162520230105120020230112142220230105120000033063300000000000900128146468SYAZWANI BT LANZA                  LOGISTICS EXEC                                                                                                                                                  HAIRCARE                                                                                                                                       0000        KMTCSHAK081704 CN101153869                          0000              0000                                            
S11D 1B10202310170020400101G4247300 EXCELLENCE FASHION 9.13 EBT 4692 UNT                         000000000CN00013618850390KGM00046920000000UNT0000000054225000002544237N00000000000000000000   0000000000261 01000000000000000000   0000254424054N00000000000000000000   0000000000 00000000000000000000   00000000000000254424000000000000000000000MYR00000000000MYR00000000000MYR00000000000MYR000000000000000   3305900000
S11D 1B10202310170020400102G4253300 EXCELLENCE FASHION ASH 6.11 EBT 4596 UNT                     000000000CN00013340203830KGM00045960000000UNT0000000052100300002394530N00000000000000000000   0000000000261 01000000000000000000   0000239453054N00000000000000000000   0000000000 00000000000000000000   00000000000000239453000000000000000000000MYR00000000000MYR00000000000MYR00000000000MYR000000000000000   3305900000
S11D 1B10202310170020400103G4253100 EXCELLENCE FASHION ASH 7.12 EBT 3216 UNT                     000000000CN00009334659600KGM00032160000000UNT0000000051539500001657510N00000000000000000000   0000000000261 01000000000000000000   0000165751054N00000000000000000000   0000000000 00000000000000000000   00000000000000165751000000000000000000000MYR00000000000MYR00000000000MYR00000000000MYR000000000000000   3305900000
S11D 1B10202310170020400104G4252800 EXCELLENCE FASHION ASH 7.1 EBT 2880 UNT                      000000000CN00008359396657KGM00028800000000UNT0000000052433600001510088N00000000000000000000   0000000000261 01000000000000000000   0000151009054N00000000000000000000   0000000000 00000000000000000000   00000000000000151009000000000000000000000MYR00000000000MYR00000000000MYR00000000000MYR000000000000000   3305900000
S11D 1B10202310170020400105G4246800 EXCELLENCE FASHION 6.13 EBT 2856 UNT                         000000000CN00008289735018KGM00028560000000UNT0000000053947700001540746N00000000000000000000   0000000000261 01000000000000000000   0000154075054N00000000000000000000   0000000000 00000000000000000000   00000000000000154075000000000000000000000MYR00000000000MYR00000000000MYR00000000000MYR000000000000000   3305900000
S11D 1B10202310170020400106G4247100 EXCELLENCE FASHION 6.60 EBT 2424 UNT                         000000000CN00007035825520KGM00024240000000UNT0000000067483900001635810N00000000000000000000   0000000000261 01000000000000000000   0000163581054N00000000000000000000   0000000000 00000000000000000000   00000000000000163581000000000000000000000MYR00000000000MYR00000000000MYR00000000000MYR000000000000000   3305900000
S11D 1B10202310170020400107G4246600 EXCELLENCE FASHION 5.54 EBT 2256 UNT                         000000000CN00006548194048KGM00022560000000UNT0000000056081800001265205N00000000000000000000   0000000000261 01000000000000000000   0000126521054N00000000000000000000   0000000000 00000000000000000000   00000000000000126521000000000000000000000MYR00000000000MYR00000000000MYR00000000000MYR000000000000000   3305900000
S11R  B102023101700204001G4247300 EXCELLENCE FASHION 9.13 EBT 4692 UNT                         G4253300 EXCELLENCE FASHION ASH 6.11 EBT 4596 UNT                     G4253100 EXCELLENCE FASHION ASH 7.12 EBT 3216 UNT                     G4252800 EXCELLENCE FASHION ASH 7.1 EBT 2880 UNT                      G4246800 EXCELLENCE FASHION 6.13 EBT 2856 UNT                         G4247100 EXCELLENCE FASHION 6.60 EBT 2424 UNT                         G4246600 EXCELLENCE FASHION 5.54 EBT 2256 UNT                         
S11D 1B10202310170020400201G4247200 EXCELLENCE FASHION 8.22 EBT 2100 UNT                         000000000CN00006095393396KGM00021000000000UNT0000000055315800001161632N00000000000000000000   0000000000261 01000000000000000000   0000116163054N00000000000000000000   0000000000 00000000000000000000   00000000000000116163000000000000000000000MYR00000000000MYR00000000000MYR00000000000MYR000000000000000   3305900000
S11D 1B10202310170020400202G4252900 EXCELLENCE FASHION ASH 7.17 EBT 1764 UNT                     000000000CN00005120130453KGM00017640000000UNT0000000052011300000917479N00000000000000000000   0000000000261 01000000000000000000   0000091748054N00000000000000000000   0000000000 00000000000000000000   00000000000000091748000000000000000000000MYR00000000000MYR00000000000MYR00000000000MYR000000000000000   3305900000
S11D 1B10202310170020400203G4252600 EXCELLENCE FASHION ASH 6.1 EBT 1596 UNT                      000000000CN00004632498981KGM00015960000000UNT0000000052687700000840896N00000000000000000000   0000000000261 01000000000000000000   0000084090054N00000000000000000000   0000000000 00000000000000000000   00000000000000084090000000000000000000000MYR00000000000MYR00000000000MYR00000000000MYR000000000000000   3305900000
S11D 1B10202310170020400204G4253000 EXCELLENCE FASHION ASH 9.11 EBT 1056 UNT                     000000000CN00003065112108KGM00010560000000UNT0000000051326600000542009N00000000000000000000   0000000000261 01000000000000000000   0000054201054N00000000000000000000   0000000000 00000000000000000000   00000000000000054201000000000000000000000MYR00000000000MYR00000000000MYR00000000000MYR000000000000000   3305900000
S11D 1B10202310170020400205G2472906 EXCELLENCE 3 Y19 EBT 7620 UNT                                000000000CN00022098612790KGM00076200000000UNT0000000056021100004268808N00000000000000000000   0000000000261 01000000000000000000   0000426881054N00000000000000000000   0000000000 00000000000000000000   00000000000000426881000000000000000000000MYR00000000000MYR00000000000MYR00000000000MYR000000000000000   3305900000
S11D 1B10202310170020400206G2473406 EXCELLENCE 1 Y19 EBT 4824 UNT                                000000000CN00013989987940KGM00048240000000UNT0000000057747500002785739N00000000000000000000   0000000000261 01000000000000000000   0000278574054N00000000000000000000   0000000000 00000000000000000000   00000000000000278574000000000000000000000MYR00000000000MYR00000000000MYR00000000000MYR000000000000000   3305900000
S11D 1B10202310170020400207G4246500 EXCELLENCE FASHION 5.13 EBT 4284 UNT                         000000000CN00012423944510KGM00042840000000UNT0000000056380600002415345N00000000000000000000   0000000000261 01000000000000000000   0000241535054N00000000000000000000   0000000000 00000000000000000000   00000000000000241535000000000000000000000MYR00000000000MYR00000000000MYR00000000000MYR000000000000000   3305900000
S11R  B102023101700204002G4247200 EXCELLENCE FASHION 8.22 EBT 2100 UNT                         G4252900 EXCELLENCE FASHION ASH 7.17 EBT 1764 UNT                     G4252600 EXCELLENCE FASHION ASH 6.1 EBT 1596 UNT                      G4253000 EXCELLENCE FASHION ASH 9.11 EBT 1056 UNT                     G2472906 EXCELLENCE 3 Y19 EBT 7620 UNT                                G2473406 EXCELLENCE 1 Y19 EBT 4824 UNT                                G4246500 EXCELLENCE FASHION 5.13 EBT 4284 UNT                         
S11D 1B10202310170020400301G2472806 EXCELLENCE 4 Y19 EBT 3504 UNT                                000000000CN00010161881790KGM00035040000000UNT0000000057016400001997855N00000000000000000000   0000000000261 01000000000000000000   0000199786054N00000000000000000000   0000000000 00000000000000000000   00000000000000199786000000000000000000000MYR00000000000MYR00000000000MYR00000000000MYR000000000000000   3305900000
S11D 1B10202310170020400302G2472206 EXCELLENCE 5 Y19 EBT 3108 UNT                                000000000CN00009013449940KGM00031080000000UNT0000000057421300001784654N00000000000000000000   0000000000261 01000000000000000000   0000178465054N00000000000000000000   0000000000 00000000000000000000   00000000000000178465000000000000000000000MYR00000000000MYR00000000000MYR00000000000MYR000000000000000   3305900000
S11D 1B10202310170020400303G2473306 EXCELLENCE 4.35 Y19 EBT 2112 UNT                             000000000CN00006124969843KGM00021120000000UNT0000000058079700001226643N00000000000000000000   0000000000261 01000000000000000000   0000122664054N00000000000000000000   0000000000 00000000000000000000   00000000000000122664000000000000000000000MYR00000000000MYR00000000000MYR00000000000MYR000000000000000   3305900000
S11D 1B10202310170020400304G2471807 EXCELLENCE 4.15 Y19 EBT 1488 UNT                             000000000CN00004315319662KGM00014880000000UNT0000000058097700000864494N00000000000000000000   0000000000261 01000000000000000000   0000086449054N00000000000000000000   0000000000 00000000000000000000   00000000000000086449000000000000000000000MYR00000000000MYR00000000000MYR00000000000MYR000000000000000   3305900000
S11D 1B10202310170020400305G2472707 EXCELLENCE 5.35 Y19 EBT 1464 UNT                             000000000CN00004245717732KGM00014640000000UNT0000000057571800000842851N00000000000000000000   0000000000261 01000000000000000000   0000084285054N00000000000000000000   0000000000 00000000000000000000   00000000000000084285000000000000000000000MYR00000000000MYR00000000000MYR00000000000MYR000000000000000   3305900000
S11D 1B10202310170020400306G2472306 EXCELLENCE 4.26 Y19 EBT 1284 UNT                             000000000CN00003723703257KGM00012840000000UNT0000000060673900000779053N00000000000000000000   0000000000261 01000000000000000000   0000077905054N00000000000000000000   0000000000 00000000000000000000   00000000000000077905000000000000000000000MYR00000000000MYR00000000000MYR00000000000MYR000000000000000   3305900000
S11D 1B10202310170020400307G2471706 EXCELLENCE 4.2 Y19 EBT 156 UNT                               000000000CN00000452412545KGM00001560000000UNT0000000056218600000087701N00000000000000000000   0000000000261 01000000000000000000   0000008770054N00000000000000000000   0000000000 00000000000000000000   00000000000000008770000000000000000000000MYR00000000000MYR00000000000MYR00000000000MYR000000000000000   3305900000
S11R  B102023101700204003G2472806 EXCELLENCE 4 Y19 EBT 3504 UNT                                G2472206 EXCELLENCE 5 Y19 EBT 3108 UNT                                G2473306 EXCELLENCE 4.35 Y19 EBT 2112 UNT                             G2471807 EXCELLENCE 4.15 Y19 EBT 1488 UNT                             G2472707 EXCELLENCE 5.35 Y19 EBT 1464 UNT                             G2472306 EXCELLENCE 4.26 Y19 EBT 1284 UNT                             G2471706 EXCELLENCE 4.2 Y19 EBT 156 UNT                               
S11H  B1020231017002060082D I SUZHOU BEAUTYCOS-INTERNATIONAL     ZITENG STREETJINJIHU RD 215021 SUZHOU                                                                    B328418A       LOREAL MALAYSIA SDN BHD            CROWN PENTHOUSE 1 POWERHOUSE,NO 1 PERSIARAN BANDAR UTAMA,47800 PETALING JAYA , SELANGOR                                                           120230105FPA10303 22DAPRKMTC NINGBO             00000000                        PKGMYSHACN                    00000000                                         0000              0000                     00000             CN0000032701300001681375000350080220003317287200001508137001873500000000000000000010000MYR20230109162820230105120020230112142220230105120000036584500000000000900128146468SYAZWANI BT LANZA                  LOGISTICS EXEC                                                                                                                                                  HAIRCARE                                                                                                                                       0000        KMTCSHAK085705 CN101153880                          0000              0000                                            
S11D 1B10202310170020600101F8107900 MAJIFASHION PASTEL 12.11 CNAS 864 UNT                        000000000CN00000676226415KGM00008640000000UNT0000000019570400000169088N00000000000000000000   0000000000261 01000000000000000000   0000016910054N00000000000000000000   0000000000 00000000000000000000   00000000000000016910000000000000000000000MYR00000000000MYR00000000000MYR00000000000MYR000000000000000   3305900000
S11D 1B10202310170020600102F8114400 MAJIFASHION PASTEL 12.7 CNAS 672 UNT                         000000000CN00000525953878KGM00006720000000UNT0000000019970800000134204N00000000000000000000   0000000000261 01000000000000000000   0000013420054N00000000000000000000   0000000000 00000000000000000000   00000000000000013420000000000000000000000MYR00000000000MYR00000000000MYR00000000000MYR000000000000000   3305900000
S11D 1B10202310170020600103F8113700 MAJIFASHION MATTE 6.1 AS 480 UNT                             000000000CN00000375681342KGM00004800000000UNT0000000020065400000096314N00000000000000000000   0000000000261 01000000000000000000   0000009631054N00000000000000000000   0000000000 00000000000000000000   00000000000000009631000000000000000000000MYR00000000000MYR00000000000MYR00000000000MYR000000000000000   3305900000
S11D 1B10202310170020600104F5308603 INOA 4 CNAS 480 UNT                                          000000000CN00000375681342KGM00004800000000UNT0000000029389800000141071N00000000000000000000   0000000000261 01000000000000000000   0000014107054N00000000000000000000   0000000000 00000000000000000000   00000000000000014107000000000000000000000MYR00000000000MYR00000000000MYR00000000000MYR000000000000000   3305900000
S11D 1B10202310170020600105F8109200 MAJIFASHION PASTEL ULTRA 8.12 CNAS 480 UNT                   000000000CN00000375681342KGM00004800000000UNT0000000020466500000098239N00000000000000000000   0000000000261 01000000000000000000   0000009824054N00000000000000000000   0000000000 00000000000000000000   00000000000000009824000000000000000000000MYR00000000000MYR00000000000MYR00000000000MYR000000000000000   3305900000
S11D 1B10202310170020600106F5310404 INOA 5.35 CNAS 480 UNT                                       000000000CN00000375681342KGM00004800000000UNT0000000028716000000137837N00000000000000000000   0000000000261 01000000000000000000   0000013784054N00000000000000000000   0000000000 00000000000000000000   00000000000000013784000000000000000000000MYR00000000000MYR00000000000MYR00000000000MYR000000000000000   3305900000
S11D 1B10202310170020600107F5145802 MAJIBROWN 5.03 AS 480 UNT                                    000000000CN00000375681342KGM00004800000000UNT0000000020145800000096700N00000000000000000000   0000000000261 01000000000000000000   0000009670054N00000000000000000000   0000000000 00000000000000000000   00000000000000009670000000000000000000000MYR00000000000MYR00000000000MYR00000000000MYR000000000000000   3305900000
S11R  B102023101700206001F8107900 MAJIFASHION PASTEL 12.11 CNAS 864 UNT                        F8114400 MAJIFASHION PASTEL 12.7 CNAS 672 UNT                         F8113700 MAJIFASHION MATTE 6.1 AS 480 UNT                             F5308603 INOA 4 CNAS 480 UNT                                          F8109200 MAJIFASHION PASTEL ULTRA 8.12 CNAS 480 UNT                   F5310404 INOA 5.35 CNAS 480 UNT                                       F5145802 MAJIBROWN 5.03 AS 480 UNT                                    
S11D 1B10202310170020600201F6090502 Majicover Cool 5.1 AS 384 UNT                                000000000CN00000300545073KGM00003840000000UNT0000000019773200000075929N00000000000000000000   0000000000261 01000000000000000000   0000007593054N00000000000000000000   0000000000 00000000000000000000   00000000000000007593000000000000000000000MYR00000000000MYR00000000000MYR00000000000MYR000000000000000   3305200000
S11D 1B10202310170020600202F5309204 INOA 4.35 CNAS 384 UNT                                       000000000CN00000300545073KGM00003840000000UNT0000000029692700000114020N00000000000000000000   0000000000261 01000000000000000000   0000011402054N00000000000000000000   0000000000 00000000000000000000   00000000000000011402000000000000000000000MYR00000000000MYR00000000000MYR00000000000MYR000000000000000   3305900000
S11D 1B10202310170020600203F8108200 MAJIFASHION PASTEL 900S CNAS 384 UNT                         000000000CN00000300545073KGM00003840000000UNT0000000019887800000076369N00000000000000000000   0000000000261 01000000000000000000   0000007637054N00000000000000000000   0000000000 00000000000000000000   00000000000000007637000000000000000000000MYR00000000000MYR00000000000MYR00000000000MYR000000000000000   3305900000
S11D 1B10202310170020600204F5146004 MAJIBROWN 5.05 CNAS 384 UNT                                  000000000CN00000300545073KGM00003840000000UNT0000000020721400000079570N00000000000000000000   0000000000261 01000000000000000000   0000007957054N00000000000000000000   0000000000 00000000000000000000   00000000000000007957000000000000000000000MYR00000000000MYR00000000000MYR00000000000MYR000000000000000   3305900000
S11D 1B10202310170020600205F8114300 MAJIFASHION PASTEL 12.3 AS 384 UNT                           000000000CN00000300545073KGM00003840000000UNT0000000019792400000076003N00000000000000000000   0000000000261 01000000000000000000   0000007600054N00000000000000000000   0000000000 00000000000000000000   00000000000000007600000000000000000000000MYR00000000000MYR00000000000MYR00000000000MYR000000000000000   3305900000
S11D 1B10202310170020600206F8113500 MAJIFASHION MATTE 2.10 CNAS 384 UNT                          000000000CN00000300545073KGM00003840000000UNT0000000025587200000098255N00000000000000000000   0000000000261 01000000000000000000   0000009826054N00000000000000000000   0000000000 00000000000000000000   00000000000000009826000000000000000000000MYR00000000000MYR00000000000MYR00000000000MYR000000000000000   3305900000
S11D 1B10202310170020600207F5146504 MAJIBROWN 7.05 CNAS 384 UNT                                  000000000CN00000300545073KGM00003840000000UNT0000000019972900000076696N00000000000000000000   0000000000261 01000000000000000000   0000007670054N00000000000000000000   0000000000 00000000000000000000   00000000000000007670000000000000000000000MYR00000000000MYR00000000000MYR00000000000MYR000000000000000   3305900000
S11R  B102023101700206002F6090502 Majicover Cool 5.1 AS 384 UNT                                F5309204 INOA 4.35 CNAS 384 UNT                                       F8108200 MAJIFASHION PASTEL 900S CNAS 384 UNT                         F5146004 MAJIBROWN 5.05 CNAS 384 UNT                                  F8114300 MAJIFASHION PASTEL 12.3 AS 384 UNT                           F8113500 MAJIFASHION MATTE 2.10 CNAS 384 UNT                          F5146504 MAJIBROWN 7.05 CNAS 384 UNT                                  
S11D 1B10202310170020600301F5311703 INOA 6.34 AS 288 UNT                                         000000000CN00000225408805KGM00002880000000UNT0000000028409000000081818N00000000000000000000   0000000000261 01000000000000000000   0000008182054N00000000000000000000   0000000000 00000000000000000000   00000000000000008182000000000000000000000MYR00000000000MYR00000000000MYR00000000000MYR000000000000000   3305900000
S11D 1B10202310170020600302F6821202 MAJIFASHION PASTEL 7.21 AS 576 UNT                           000000000CN00000450817610KGM00005760000000UNT0000000019751600000113769N00000000000000000000   0000000000261 00500000000000000000   0000005688054N00000000000000000000   0000000000 00000000000000000000   00000000000000005688000000000000000000000MYR00000000000MYR00000000000MYR00000000000MYR000000000000000   3304999000
S11D 1B10202310170020600303F7361501 MAJIFASHION ULTRA PASTEL 6.12 CNAS 288 UNT                   000000000CN00000225408805KGM00002880000000UNT0000000020590300000059300N00000000000000000000   0000000000261 01000000000000000000   0000005930054N00000000000000000000   0000000000 00000000000000000000   00000000000000005930000000000000000000000MYR00000000000MYR00000000000MYR00000000000MYR000000000000000   3305900000
S11D 1B10202310170020600304F8107300 MAJICOVER 3 AS 288 UNT                                       000000000CN00000225408805KGM00002880000000UNT0000000024664600000071034N00000000000000000000   0000000000261 01000000000000000000   0000007103054N00000000000000000000   0000000000 00000000000000000000   00000000000000007103000000000000000000000MYR00000000000MYR00000000000MYR00000000000MYR000000000000000   3305900000
S11D 1B10202310170020600305F8107400 MAJICOVER 4 AS 288 UNT                                       000000000CN00000225408805KGM00002880000000UNT0000000023716000000068302N00000000000000000000   0000000000261 01000000000000000000   0000006830054N00000000000000000000   0000000000 00000000000000000000   00000000000000006830000000000000000000000MYR00000000000MYR00000000000MYR00000000000MYR000000000000000   3305900000
S11D 1B10202310170020600306F8107500 MAJICOVER 5 AS 288 UNT                                       000000000CN00000225408805KGM00002880000000UNT0000000021199000000061053N00000000000000000000   0000000000261 01000000000000000000   0000006105054N00000000000000000000   0000000000 00000000000000000000   00000000000000006105000000000000000000000MYR00000000000MYR00000000000MYR00000000000MYR000000000000000   3305900000
S11D 1B10202310170020600307F8107601 MAJIFASHION MATTE COOL 6.8 AS 288 UNT                        000000000CN00000225408805KGM00002880000000UNT0000000020173300000058099N00000000000000000000   0000000000261 01000000000000000000   0000005810054N00000000000000000000   0000000000 00000000000000000000   00000000000000005810000000000000000000000MYR00000000000MYR00000000000MYR00000000000MYR000000000000000   3305900000
S11R  B102023101700206003F5311703 INOA 6.34 AS 288 UNT                                         F6821202 MAJIFASHION PASTEL 7.21 AS 576 UNT                           F7361501 MAJIFASHION ULTRA PASTEL 6.12 CNAS 288 UNT                   F8107300 MAJICOVER 3 AS 288 UNT                                       F8107400 MAJICOVER 4 AS 288 UNT                                       F8107500 MAJICOVER 5 AS 288 UNT                                       F8107601 MAJIFASHION MATTE COOL 6.8 AS 288 UNT                        
S11D 1B10202310170020600401F8108101 MAJIFASHION PASTEL 7.17 AS 288 UNT                           000000000CN00000225408805KGM00002880000000UNT0000000020471500000058958N00000000000000000000   0000000000261 01000000000000000000   0000005896054N00000000000000000000   0000000000 00000000000000000000   00000000000000005896000000000000000000000MYR00000000000MYR00000000000MYR00000000000MYR000000000000000   3305900000
S11D 1B10202310170020600402F8114201 MAJIFASHION MATTE COOL 8.8 AS 288 UNT                        000000000CN00000225408805KGM00002880000000UNT0000000019671900000056655N00000000000000000000   0000000000261 01000000000000000000   0000005666054N00000000000000000000   0000000000 00000000000000000000   00000000000000005666000000000000000000000MYR00000000000MYR00000000000MYR00000000000MYR000000000000000   3305900000
S11D 1B10202310170020600403F5200005 MAJIBROWN 7.01 CNAS 288 UNT                                  000000000CN00000225408805KGM00002880000000UNT0000000019330200000055671N00000000000000000000   0000000000261 01000000000000000000   0000005567054N00000000000000000000   0000000000 00000000000000000000   00000000000000005567000000000000000000000MYR00000000000MYR00000000000MYR00000000000MYR000000000000000   3305900000
S11D 1B10202310170020600404F5199404 MAJIBROWN 5.07 CNAS 288 UNT                                  000000000CN00000225408805KGM00002880000000UNT0000000019885100000057269N00000000000000000000   0000000000261 01000000000000000000   0000005727054N00000000000000000000   0000000000 00000000000000000000   00000000000000005727000000000000000000000MYR00000000000MYR00000000000MYR00000000000MYR000000000000000   3305900000
S11D 1B10202310170020600405F5199301 MAJIBROWN 5.02 AS 288 UNT                                    000000000CN00000225408805KGM00002880000000UNT0000000019425300000055945N00000000000000000000   0000000000261 01000000000000000000   0000005595054N00000000000000000000   0000000000 00000000000000000000   00000000000000005595000000000000000000000MYR00000000000MYR00000000000MYR00000000000MYR000000000000000   3305900000
S11D 1B10202310170020600406F5146302 MAJIBROWN 7.03 AS 288 UNT                                    000000000CN00000225408805KGM00002880000000UNT0000000019532300000056253N00000000000000000000   0000000000261 01000000000000000000   0000005625054N00000000000000000000   0000000000 00000000000000000000   00000000000000005625000000000000000000000MYR00000000000MYR00000000000MYR00000000000MYR000000000000000   3305900000
S11D 1B10202310170020600407F5311603 INOA 6.32 AS 192 UNT                                         000000000CN00000150272537KGM00001920000000UNT0000000026615600000051102N00000000000000000000   0000000000261 01000000000000000000   0000005110054N00000000000000000000   0000000000 00000000000000000000   00000000000000005110000000000000000000000MYR00000000000MYR00000000000MYR00000000000MYR000000000000000   3305900000
S11R  B102023101700206004F8108101 MAJIFASHION PASTEL 7.17 AS 288 UNT                           F8114201 MAJIFASHION MATTE COOL 8.8 AS 288 UNT                        F5200005 MAJIBROWN 7.01 CNAS 288 UNT                                  F5199404 MAJIBROWN 5.07 CNAS 288 UNT                                  F5199301 MAJIBROWN 5.02 AS 288 UNT                                    F5146302 MAJIBROWN 7.03 AS 288 UNT                                    F5311603 INOA 6.32 AS 192 UNT                                         
S11D 1B10202310170020600501F5308503 INOA 3.0 CNAS 192 UNT                                        000000000CN00000150272537KGM00001920000000UNT0000000031624000000060718N00000000000000000000   0000000000261 01000000000000000000   0000006072054N00000000000000000000   0000000000 00000000000000000000   00000000000000006072000000000000000000000MYR00000000000MYR00000000000MYR00000000000MYR000000000000000   3305900000
S11D 1B10202310170020600502F8108000 MAJIFASHION PASTEL 13 AS 192 UNT                             000000000CN00000150272537KGM00001920000000UNT0000000019546900000037530N00000000000000000000   0000000000261 01000000000000000000   0000003753054N00000000000000000000   0000000000 00000000000000000000   00000000000000003753000000000000000000000MYR00000000000MYR00000000000MYR00000000000MYR000000000000000   3305900000
S11D 1B10202310170020600503F5199205 MAJIBROWN 5.01 CNAS 192 UNT                                  000000000CN00000150272537KGM00001920000000UNT0000000019451000000037346N00000000000000000000   0000000000261 01000000000000000000   0000003735054N00000000000000000000   0000000000 00000000000000000000   00000000000000003735000000000000000000000MYR00000000000MYR00000000000MYR00000000000MYR000000000000000   3305900000
S11D 1B10202310170020600504F8108800 MAJIFASHION PASTEL ULTRA 6.11 CNAS 192 UNT                   000000000CN00000150272537KGM00001920000000UNT0000000020360900000039093N00000000000000000000   0000000000261 01000000000000000000   0000003909054N00000000000000000000   0000000000 00000000000000000000   00000000000000003909000000000000000000000MYR00000000000MYR00000000000MYR00000000000MYR000000000000000   3305900000
S11D 1B10202310170020600505F5146202 MAJIBROWN 7.02 AS 192 UNT                                    000000000CN00000150272537KGM00001920000000UNT0000000019256300000036972N00000000000000000000   0000000000261 01000000000000000000   0000003697054N00000000000000000000   0000000000 00000000000000000000   00000000000000003697000000000000000000000MYR00000000000MYR00000000000MYR00000000000MYR000000000000000   3305900000
S11D 1B10202310170020600506F5309703 INOA 5 CNAS 192 UNT                                          000000000CN00000150272537KGM00001920000000UNT0000000028342700000054418N00000000000000000000   0000000000261 01000000000000000000   0000005442054N00000000000000000000   0000000000 00000000000000000000   00000000000000005442000000000000000000000MYR00000000000MYR00000000000MYR00000000000MYR000000000000000   3305900000
S11D 1B10202310170020600507F5213306 Majicover 4.00AS 192 UNT                                     000000000CN00000150272537KGM00001920000000UNT0000000023562500000045240N00000000000000000000   0000000000261 01000000000000000000   0000004524054N00000000000000000000   0000000000 00000000000000000000   00000000000000004524000000000000000000000MYR00000000000MYR00000000000MYR00000000000MYR000000000000000   3305900000
S11R  B102023101700206005F5308503 INOA 3.0 CNAS 192 UNT                                        F8108000 MAJIFASHION PASTEL 13 AS 192 UNT                             F5199205 MAJIBROWN 5.01 CNAS 192 UNT                                  F8108800 MAJIFASHION PASTEL ULTRA 6.11 CNAS 192 UNT                   F5146202 MAJIBROWN 7.02 AS 192 UNT                                    F5309703 INOA 5 CNAS 192 UNT                                          F5213306 Majicover 4.00AS 192 UNT                                     
S11D 1B10202310170020600601F6821302 MAJIFASHION PASTEL 7.42 AS 384 UNT                           000000000CN00000300545073KGM00003840000000UNT0000000020000000000076800N00000000000000000000   0000000000261 00500000000000000000   0000003840054N00000000000000000000   0000000000 00000000000000000000   00000000000000003840000000000000000000000MYR00000000000MYR00000000000MYR00000000000MYR000000000000000   3304999000
S11D 1B10202310170020600602F6654200 INOA PASTEL 7.71 ASCN 96 UNT                                 000000000CN00000075136268KGM00000960000000UNT0000000026457300000025399N00000000000000000000   0000000000261 01000000000000000000   0000002540054N00000000000000000000   0000000000 00000000000000000000   00000000000000002540000000000000000000000MYR00000000000MYR00000000000MYR00000000000MYR000000000000000   3305900000
S11D 1B10202310170020600603F6653202 MAJIFASHION PASTEL 12.6 AS 96 UNT                            000000000CN00000960000000KGM00000960000000UNT0000000021968800000021090N00000000000000000000   0000000000261 01000000000000000000   0000002109054N00000000000000000000   0000000000 00000000000000000000   00000000000000002109000000000000000000000MYR00000000000MYR00000000000MYR00000000000MYR000000000000000   3305109000
S11D 1B10202310170020600604F6821402 MAJIFASHION PASTEL 7.71 AS 96 UNT                            000000000CN00000075136268KGM00000960000000UNT0000000020141700000019336N00000000000000000000   0000000000261 00500000000000000000   0000000967054N00000000000000000000   0000000000 00000000000000000000   00000000000000000967000000000000000000000MYR00000000000MYR00000000000MYR00000000000MYR000000000000000   3304999000
S11D 1B10202310170020600605F7362201 MAJIFASHION ULTRA PASTEL 9.13 CNAS 96 UNT                    000000000CN00000075136268KGM00000960000000UNT0000000019611500000018827N00000000000000000000   0000000000261 01000000000000000000   0000001883054N00000000000000000000   0000000000 00000000000000000000   00000000000000001883000000000000000000000MYR00000000000MYR00000000000MYR00000000000MYR000000000000000   3305900000
S11D 1B10202310170020600606F5199604 MAJIBROWN 5.35 CNAS 96 UNT                                   000000000CN00000075136268KGM00000960000000UNT0000000020380200000019565N00000000000000000000   0000000000261 01000000000000000000   0000001957054N00000000000000000000   0000000000 00000000000000000000   00000000000000001957000000000000000000000MYR00000000000MYR00000000000MYR00000000000MYR000000000000000   3305900000
S11D 1B10202310170020600607F8125200 MAJIFASHION MATTE 8.1 AS 96 UNT                              000000000CN00000075136268KGM00000960000000UNT0000000019975000000019176N00000000000000000000   0000000000261 01000000000000000000   0000001918054N00000000000000000000   0000000000 00000000000000000000   00000000000000001918000000000000000000000MYR00000000000MYR00000000000MYR00000000000MYR000000000000000   3305900000
S11R  B102023101700206006F6821302 MAJIFASHION PASTEL 7.42 AS 384 UNT                           F6654200 INOA PASTEL 7.71 ASCN 96 UNT                                 F6653202 MAJIFASHION PASTEL 12.6 AS 96 UNT                            F6821402 MAJIFASHION PASTEL 7.71 AS 96 UNT                            F7362201 MAJIFASHION ULTRA PASTEL 9.13 CNAS 96 UNT                    F5199604 MAJIBROWN 5.35 CNAS 96 UNT                                   F8125200 MAJIFASHION MATTE 8.1 AS 96 UNT                              
S11D 1B10202310170020600701F5311104 INOA 6 AS 96 UNT                                             000000000CN00000075136268KGM00000960000000UNT0000000027237500000026148N00000000000000000000   0000000000261 01000000000000000000   0000002615054N00000000000000000000   0000000000 00000000000000000000   00000000000000002615000000000000000000000MYR00000000000MYR00000000000MYR00000000000MYR000000000000000   3305900000
S11D 1B10202310170020600702F8114600 MAJIFASHION VIBRANT ABS 6.66 AS 96 UNT                       000000000CN00000075136268KGM00000960000000UNT0000000023696900000022749N00000000000000000000   0000000000261 01000000000000000000   0000002275054N00000000000000000000   0000000000 00000000000000000000   00000000000000002275000000000000000000000MYR00000000000MYR00000000000MYR00000000000MYR000000000000000   3305900000
S11D 1B10202310170020600703F5145901 MAJIBROWN 5.04 AS 96 UNT                                     000000000CN00000075136268KGM00000960000000UNT0000000020691700000019864N00000000000000000000   0000000000261 01000000000000000000   0000001986054N00000000000000000000   0000000000 00000000000000000000   00000000000000001986000000000000000000000MYR00000000000MYR00000000000MYR00000000000MYR000000000000000   3305900000
S11D 1B10202310170020600704F8114100 MAJIFASHION MATTE COOL 7.11 AS 96 UNT                        000000000CN00000075136268KGM00000960000000UNT0000000019847900000019054N00000000000000000000   0000000000261 01000000000000000000   0000001905054N00000000000000000000   0000000000 00000000000000000000   00000000000000001905000000000000000000000MYR00000000000MYR00000000000MYR00000000000MYR000000000000000   3305900000
S11D 1B10202310170020600705F5146604 MAJIBROWN 7.06 CNAS 96 UNT                                   000000000CN00000075136268KGM00000960000000UNT0000000020166700000019360N00000000000000000000   0000000000261 01000000000000000000   0000001936054N00000000000000000000   0000000000 00000000000000000000   00000000000000001936000000000000000000000MYR00000000000MYR00000000000MYR00000000000MYR000000000000000   3305900000
S11D 1B10202310170020600706F6652802 MAJIFASHION PASTEL 12.26 AS 288 UNT                          000000000CN00002880000000KGM00002880000000UNT0000000018979900000054662N00000000000000000000   0000000000261 01000000000000000000   0000005466054N00000000000000000000   0000000000 00000000000000000000   00000000000000005466000000000000000000000MYR00000000000MYR00000000000MYR00000000000MYR000000000000000   3305109000
S11D 1B10202310170020600707F5211105 Majifashion Lacquer 6.45 AS 192 UNT                          000000000CN00000150272537KGM00001920000000UNT0000000023268200000044675N00000000000000000000   0000000000261 01000000000000000000   0000004468054N00000000000000000000   0000000000 00000000000000000000   00000000000000004468000000000000000000000MYR00000000000MYR00000000000MYR00000000000MYR000000000000000   3305900000
S11R  B102023101700206007F5311104 INOA 6 AS 96 UNT                                             F8114600 MAJIFASHION VIBRANT ABS 6.66 AS 96 UNT                       F5145901 MAJIBROWN 5.04 AS 96 UNT                                     F8114100 MAJIFASHION MATTE COOL 7.11 AS 96 UNT                        F5146604 MAJIBROWN 7.06 CNAS 96 UNT                                   F6652802 MAJIFASHION PASTEL 12.26 AS 288 UNT                          F5211105 Majifashion Lacquer 6.45 AS 192 UNT                          
S11D 1B10202310170020600801F5211204 Majifashion Lacquer 6.52 AS 96 UNT                           000000000CN00000075136268KGM00000960000000UNT0000000021908300000021032N00000000000000000000   0000000000261 01000000000000000000   0000002103054N00000000000000000000   0000000000 00000000000000000000   00000000000000002103000000000000000000000MYR00000000000MYR00000000000MYR00000000000MYR000000000000000   3305900000
S11D 1B10202310170020600802F8132400 MAJICOVER 6 CNAS 930 UNT                                     000000000CN00000727882600KGM00009300000000UNT0000000020775900000193216N00000000000000000000   0000000000261 01000000000000000000   0000019322054N00000000000000000000   0000000000 00000000000000000000   00000000000000019322000000000000000000000MYR00000000000MYR00000000000MYR00000000000MYR000000000000000   3305900000
S11D 1B10202310170020600803F8149500 MAJIFASHION VIBRANT MAGENTA AS 576 UNT                       000000000CN00000450817610KGM00005760000000UNT0000000035867200000206595N00000000000000000000   0000000000261 01000000000000000000   0000020660054N00000000000000000000   0000000000 00000000000000000000   00000000000000020660000000000000000000000MYR00000000000MYR00000000000MYR00000000000MYR000000000000000   3305900000
S11D 1B10202310170020600804F8133100 MAJIFASHION PASTEL 12.4 AS 576 UNT                           000000000CN00000450817610KGM00005760000000UNT0000000019775000000113904N00000000000000000000   0000000000261 01000000000000000000   0000011390054N00000000000000000000   0000000000 00000000000000000000   00000000000000011390000000000000000000000MYR00000000000MYR00000000000MYR00000000000MYR000000000000000   3305900000
S11D 1B10202310170020600805F8148900 MAJIFASHION PASTEL 6.81 CNAS 480 UNT                         000000000CN00000375681342KGM00004800000000UNT0000000030582900000146798N00000000000000000000   0000000000261 01000000000000000000   0000014680054N00000000000000000000   0000000000 00000000000000000000   00000000000000014680000000000000000000000MYR00000000000MYR00000000000MYR00000000000MYR000000000000000   3305900000
S11D 1B10202310170020600806F8161500 MAJICOVER COOL 4.8 AS 384 UNT                                000000000CN00000300545073KGM00003840000000UNT0000000019909900000076454N00000000000000000000   0000000000261 01000000000000000000   0000007645054N00000000000000000000   0000000000 00000000000000000000   00000000000000007645000000000000000000000MYR00000000000MYR00000000000MYR00000000000MYR000000000000000   3305900000
S11D 1B10202310170020600807F8161700 MAJIFASHION LACQUER 4.3 AS 288 UNT                           000000000CN00000225408805KGM00002880000000UNT0000000025574000000073653N00000000000000000000   0000000000261 01000000000000000000   0000007365054N00000000000000000000   0000000000 00000000000000000000   00000000000000007365000000000000000000000MYR00000000000MYR00000000000MYR00000000000MYR000000000000000   3305900000
S11R  B102023101700206008F5211204 Majifashion Lacquer 6.52 AS 96 UNT                           F8132400 MAJICOVER 6 CNAS 930 UNT                                     F8149500 MAJIFASHION VIBRANT MAGENTA AS 576 UNT                       F8133100 MAJIFASHION PASTEL 12.4 AS 576 UNT                           F8148900 MAJIFASHION PASTEL 6.81 CNAS 480 UNT                         F8161500 MAJICOVER COOL 4.8 AS 384 UNT                                F8161700 MAJIFASHION LACQUER 4.3 AS 288 UNT                           
S11D 1B10202310170020600901F8149100 MAJIFASHION PASTEL 8.81 CNAS 288 UNT                         000000000CN00000225408805KGM00002880000000UNT0000000028621200000082429N00000000000000000000   0000000000261 01000000000000000000   0000008243054N00000000000000000000   0000000000 00000000000000000000   00000000000000008243000000000000000000000MYR00000000000MYR00000000000MYR00000000000MYR000000000000000   3305900000
S11D 1B10202310170020600902F8162800 MAJIFASHION MATTE COOL 7.88 AS 288 UNT                       000000000CN00000225408805KGM00002880000000UNT0000000021540300000062036N00000000000000000000   0000000000261 01000000000000000000   0000006204054N00000000000000000000   0000000000 00000000000000000000   00000000000000006204000000000000000000000MYR00000000000MYR00000000000MYR00000000000MYR000000000000000   3305900000
S11D 1B10202310170020600903F8148300 MAJIFASHION PASTEL 12.5 CNAS 288 UNT                         000000000CN00000225408805KGM00002880000000UNT0000000019897900000057306N00000000000000000000   0000000000261 01000000000000000000   0000005731054N00000000000000000000   0000000000 00000000000000000000   00000000000000005731000000000000000000000MYR00000000000MYR00000000000MYR00000000000MYR000000000000000   3305900000
S11D 1B10202310170020600904F8132700 MAJIFASHION LACQUER 7.43 CNAS 288 UNT                        000000000CN00000225408805KGM00002880000000UNT0000000025264900000072763N00000000000000000000   0000000000261 01000000000000000000   0000007276054N00000000000000000000   0000000000 00000000000000000000   00000000000000007276000000000000000000000MYR00000000000MYR00000000000MYR00000000000MYR000000000000000   3305900000
S11D 1B10202310170020600905F8163200 MAJIFASHION VIBRANT 5.62 AS 192 UNT                          000000000CN00000150272537KGM00001920000000UNT0000000022972900000044108N00000000000000000000   0000000000261 01000000000000000000   0000004411054N00000000000000000000   0000000000 00000000000000000000   00000000000000004411000000000000000000000MYR00000000000MYR00000000000MYR00000000000MYR000000000000000   3305900000
S11D 1B10202310170020600906F8146400 MAJICOVER 8 CNAS 192 UNT                                     000000000CN00000150272537KGM00001920000000UNT0000000019332300000037118N00000000000000000000   0000000000261 01000000000000000000   0000003712054N00000000000000000000   0000000000 00000000000000000000   00000000000000003712000000000000000000000MYR00000000000MYR00000000000MYR00000000000MYR000000000000000   3305900000
S11D 1B10202310170020600907G2471907 EXCELLENCE 4.45 Y19 EBT 2568 UNT                             000000000CN00007540000000KGM00025680000000UNT0000000049722900001276884N00000000000000000000   0000000000261 01000000000000000000   0000127688054N00000000000000000000   0000000000 00000000000000000000   00000000000000127688000000000000000000000MYR00000000000MYR00000000000MYR00000000000MYR000000000000000   3305900000
S11R  B102023101700206009F8149100 MAJIFASHION PASTEL 8.81 CNAS 288 UNT                         F8162800 MAJIFASHION MATTE COOL 7.88 AS 288 UNT                       F8148300 MAJIFASHION PASTEL 12.5 CNAS 288 UNT                         F8132700 MAJIFASHION LACQUER 7.43 CNAS 288 UNT                        F8163200 MAJIFASHION VIBRANT 5.62 AS 192 UNT                          F8146400 MAJICOVER 8 CNAS 192 UNT                                     G2471907 EXCELLENCE 4.45 Y19 EBT 2568 UNT                             
S11D 1B10202310170020601001G4292501 ELS ANTI FALL SHP 440ML CND 10232 UNT                        000000000CN00102320000000KGM00102320000000UNT0000000058906800006027344N00000000000000000000   0000000000261 01000000000000000000   0000602734054N00000000000000000000   0000000000 00000000000000000000   00000000000000602734000000000000000000000MYR00000000000MYR00000000000MYR00000000000MYR000000000000000   3305109000
S11D 1B10202310170020601002G4292401 ELS ANTI FALL COND 440ML CND 4416 UNT                        000000000CN00023691796880KGM00044160000000UNT0000000057896700002556718N00000000000000000000   0000000000261 01000000000000000000   0000255672054N00000000000000000000   0000000000 00000000000000000000   00000000000000255672000000000000000000000MYR00000000000MYR00000000000MYR00000000000MYR000000000000000   3305900000
S11D 1B10202310170020601003G3548200 ELS FLORAL Oil Rose 100ml JP 756 UNT                         000000000CN00004055932617KGM00007560000000UNT0000000097104000000734106N00000000000000000000   0000000000261 01000000000000000000   0000073411054N00000000000000000000   0000000000 00000000000000000000   00000000000000073411000000000000000000000MYR00000000000MYR00000000000MYR00000000000MYR000000000000000   3305900000
S11D 1B10202310170020601004G3548100 ELS FLORAL Oil JSM 100ml JP 540 UNT                          000000000CN00002897094727KGM00005400000000UNT0000000093644400000505680N00000000000000000000   0000000000261 01000000000000000000   0000050568054N00000000000000000000   0000000000 00000000000000000000   00000000000000050568000000000000000000000MYR00000000000MYR00000000000MYR00000000000MYR000000000000000   3305900000
S11D 1B10202310170020601005G4263500 ELS EXO COND 440ml SMOOTH EBT 440 UNT                        000000000CN00002360595703KGM00004400000000UNT0000000074201600000326487N00000000000000000000   0000000000261 01000000000000000000   0000032649054N00000000000000000000   0000000000 00000000000000000000   00000000000000032649000000000000000000000MYR00000000000MYR00000000000MYR00000000000MYR000000000000000   3305900000
S11D 1B10202310170020601006G3832804 ELS OIL EXTRA GOLD 30ML AS 15624 UNT                         000000000CN00030691581710KGM00156240000000UNT0000000032221000005034209N00000000000000000000   0000000000261 01000000000000000000   0000503421054N00000000000000000000   0000000000 00000000000000000000   00000000000000503421000000000000000000000MYR00000000000MYR00000000000MYR00000000000MYR000000000000000   3305900000
S11D 1B10202310170020601007G3833004 ELS OIL EXTRA PINK 30ML AS 4140 UNT                          000000000CN00008132561975KGM00041400000000UNT0000000032056400001327135N00000000000000000000   0000000000261 01000000000000000000   0000132714054N00000000000000000000   0000000000 00000000000000000000   00000000000000132714000000000000000000000MYR00000000000MYR00000000000MYR00000000000MYR000000000000000   3305900000
S11R  B102023101700206010G4292501 ELS ANTI FALL SHP 440ML CND 10232 UNT                        G4292401 ELS ANTI FALL COND 440ML CND 4416 UNT                        G3548200 ELS FLORAL Oil Rose 100ml JP 756 UNT                         G3548100 ELS FLORAL Oil JSM 100ml JP 540 UNT                          G4263500 ELS EXO COND 440ml SMOOTH EBT 440 UNT                        G3832804 ELS OIL EXTRA GOLD 30ML AS 15624 UNT                         G3833004 ELS OIL EXTRA PINK 30ML AS 4140 UNT                          
S11D 1B10202310170020601101G3832905 ELS OIL EXTRA PINK 100ML EBT 2423 UNT                        000000000CN00004759709581KGM00024230000000UNT0000000075914400001839406N00000000000000000000   0000000000261 01000000000000000000   0000183941054N00000000000000000000   0000000000 00000000000000000000   00000000000000183941000000000000000000000MYR00000000000MYR00000000000MYR00000000000MYR000000000000000   3305900000
S11D 1B10202310170020601102G1315109 ELS OIL EXTRA RICH 100mL JP 2160 UNT                         000000000CN00004243075813KGM00021600000000UNT0000000073603300001589831N00000000000000000000   0000000000261 01000000000000000000   0000158983054N00000000000000000000   0000000000 00000000000000000000   00000000000000158983000000000000000000000MYR00000000000MYR00000000000MYR00000000000MYR000000000000000   3305900000
S11D 1B10202310170020601103G3832704 ELS OIL EXTRA GOLD 100ML EBT 14459 UNT                       000000000CN00028403070920KGM00144590000000UNT0000000075593500010930064N00000000000000000000   0000000000261 01000000000000000000   0001093006054N00000000000000000000   0000000000 00000000000000000000   00000000000001093006000000000000000000000MYR00000000000MYR00000000000MYR00000000000MYR000000000000000   3305900000
S11D 1B10202310170020601104F8147200 MAJIFASHION LACQUER 5.35 AS 192 UNT                          000000000CN00000150272537KGM00001920000000UNT0000000021685900000041637N00000000000000000000   0000000000261 01000000000000000000   0000004164054N00000000000000000000   0000000000 00000000000000000000   00000000000000004164000000000000000000000MYR00000000000MYR00000000000MYR00000000000MYR000000000000000   3305900000
S11D 1B10202310170020601105F8149600 MAJIFASHION VIBRANT RED CNAS 192 UNT                         000000000CN00000150272537KGM00001920000000UNT0000000042430700000081467N00000000000000000000   0000000000261 01000000000000000000   0000008147054N00000000000000000000   0000000000 00000000000000000000   00000000000000008147000000000000000000000MYR00000000000MYR00000000000MYR00000000000MYR000000000000000   3305900000
S11D 1B10202310170020601106F8126100 MAJIFASHION VIBRANT 5.20 AS 96 UNT                           000000000CN00000075136268KGM00000960000000UNT0000000023536500000022595N00000000000000000000   0000000000261 01000000000000000000   0000002260054N00000000000000000000   0000000000 00000000000000000000   00000000000000002260000000000000000000000MYR00000000000MYR00000000000MYR00000000000MYR000000000000000   3305900000
S11D 1B10202310170020601107F8147600 MAJIFASHION LACQUER 9.3 AS 96 UNT                            000000000CN00000075136268KGM00000960000000UNT0000000019538500000018757N00000000000000000000   0000000000261 01000000000000000000   0000001876054N00000000000000000000   0000000000 00000000000000000000   00000000000000001876000000000000000000000MYR00000000000MYR00000000000MYR00000000000MYR000000000000000   3305900000
S11R  B102023101700206011G3832905 ELS OIL EXTRA PINK 100ML EBT 2423 UNT                        G1315109 ELS OIL EXTRA RICH 100mL JP 2160 UNT                         G3832704 ELS OIL EXTRA GOLD 100ML EBT 14459 UNT                       F8147200 MAJIFASHION LACQUER 5.35 AS 192 UNT                          F8149600 MAJIFASHION VIBRANT RED CNAS 192 UNT                         F8126100 MAJIFASHION VIBRANT 5.20 AS 96 UNT                           F8147600 MAJIFASHION LACQUER 9.3 AS 96 UNT                            
S11D 1B10202310170020601201F8132900 MAJIFASHION MATTE 7.1 AS 96 UNT                              000000000CN00000075136268KGM00000960000000UNT0000000020472900000019654N00000000000000000000   0000000000261 01000000000000000000   0000001965054N00000000000000000000   0000000000 00000000000000000000   00000000000000001965000000000000000000000MYR00000000000MYR00000000000MYR00000000000MYR000000000000000   3305900000
S11D 1B10202310170020601202F8147300 MAJIFASHION LACQUER 7.3 AS 96 UNT                            000000000CN00000075136268KGM00000960000000UNT0000000020966700000020128N00000000000000000000   0000000000261 01000000000000000000   0000002013054N00000000000000000000   0000000000 00000000000000000000   00000000000000002013000000000000000000000MYR00000000000MYR00000000000MYR00000000000MYR000000000000000   3305900000
S11D 1B10202310170020601203F8162400 MAJIFASHION LACQUER 9.21 AS 96 UNT                           000000000CN00000075136268KGM00000960000000UNT0000000019110400000018346N00000000000000000000   0000000000261 01000000000000000000   0000001835054N00000000000000000000   0000000000 00000000000000000000   00000000000000001835000000000000000000000MYR00000000000MYR00000000000MYR00000000000MYR000000000000000   3305900000
S11D 1B10202310170020601204F8125800 MAJIFASHION PASTEL 6.17 CNAS 96 UNT                          000000000CN00000075136268KGM00000960000000UNT0000000020550000000019728N00000000000000000000   0000000000261 01000000000000000000   0000001973054N00000000000000000000   0000000000 00000000000000000000   00000000000000001973000000000000000000000MYR00000000000MYR00000000000MYR00000000000MYR000000000000000   3305900000
S11D 1B10202310170020601205F8149200 MAJIFASHION PASTEL L11 AS 96 UNT                             000000000CN00000075136268KGM00000960000000UNT0000000019018800000018258N00000000000000000000   0000000000261 01000000000000000000   0000001826054N00000000000000000000   0000000000 00000000000000000000   00000000000000001826000000000000000000000MYR00000000000MYR00000000000MYR00000000000MYR000000000000000   3305900000
S11R  B102023101700206012F8132900 MAJIFASHION MATTE 7.1 AS 96 UNT                              F8147300 MAJIFASHION LACQUER 7.3 AS 96 UNT                            F8162400 MAJIFASHION LACQUER 9.21 AS 96 UNT                           F8125800 MAJIFASHION PASTEL 6.17 CNAS 96 UNT                          F8149200 MAJIFASHION PASTEL L11 AS 96 UNT                                                                                                                                                                         
S11H  B1020231017002080113D I YICHANG TIANMEI INTERNATIONALCOSMETXIHU ROADZONE OF YICHANGCITY HUBEIP YICHANG-HUBEI                                                        B328418A       LOREAL MALAYSIA SDN BHD            CROWN PENTHOUSE 1 POWERHOUSE,NO 1 PERSIARAN BANDAR UTAMA,47800 PETALING JAYA , SELANGOR                                                           120230105FPA10303 22DAPRKMTC NINGBO             00000000                        PKGMYSHACN                    00000000                                         0000              0000                     00000             CN0000036802100000285879000384772700003733272100000776528000667800000000000000000010000MYR20230109162920230105120020230112142220230105120000019381600000000000900128146468SYAZWANI BT LANZA                  LOGISTICS EXEC                                                                                                                                                  COSMETICS                                                                                                                                      0000        KMTCSHAK130173 CN101187933                          0000              0000                                            
S11D 1B10202310170020800101G3187104 IAR ERASER 120 LIGHT ASJPCN 5952 UNT                         000000000CN00003011728722KGM00059520000000UNT0000000039563500002354820N00000000000000000000   0000000000261 00500000000000000000   0000117742054N00000000000000000000   0000000000 00000000000000000000   00000000000000117742000000000000000000000MYR00000000000MYR00000000000MYR00000000000MYR000000000000000   3304999000
S11D 1B10202310170020800102G2952203 C SMOOTH AIO R2018 03 NT AS 5292 UNT                         000000000CN00002677766868KGM00052920000000UNT0000000041917300002218264N00000000000000000000   0000000000261 00500000000000000000   0000110913054N00000000000000000000   0000000000 00000000000000000000   00000000000000110913000000000000000000000MYR00000000000MYR00000000000MYR00000000000MYR000000000000000   3304999000
S11D 1B10202310170020800103G3394303 FIT ME CONCEAL 20 SAND AS 2592 UNT                           000000000CN00001311559282KGM00025920000000UNT0000000021018000000544787N00000000000000000000   0000000000261 00500000000000000000   0000027239054N00000000000000000000   0000000000 00000000000000000000   00000000000000027239000000000000000000000MYR00000000000MYR00000000000MYR00000000000MYR000000000000000   3304200000
S11D 1B10202310170020800104G3187204 IAR ERASER 130 MEDIUM ASJPCN 2592 UNT                        000000000CN00001311559282KGM00025920000000UNT0000000039637000001027391N00000000000000000000   0000000000261 00500000000000000000   0000051370054N00000000000000000000   0000000000 00000000000000000000   00000000000000051370000000000000000000000MYR00000000000MYR00000000000MYR00000000000MYR000000000000000   3304200000
S11D 1B10202310170020800105G1638605 MBL Eye Lip Remover 150mL AS 2448 UNT                        000000000CN00001238694878KGM00024480000000UNT0000000020289800000496694N00000000000000000000   0000000000261 00500000000000000000   0000024835054N00000000000000000000   0000000000 00000000000000000000   00000000000000024835000000000000000000000MYR00000000000MYR00000000000MYR00000000000MYR000000000000000   3304999000
S11D 1B10202310170020800106G3394403 FIT ME CONCEAL 25 MEDIUM AS 2160 UNT                         000000000CN00001092966069KGM00021600000000UNT0000000020854800000450464N00000000000000000000   0000000000261 00500000000000000000   0000022523054N00000000000000000000   0000000000 00000000000000000000   00000000000000022523000000000000000000000MYR00000000000MYR00000000000MYR00000000000MYR000000000000000   3304200000
S11D 1B10202310170020800107G3394103 FIT ME CONCEAL 10 LIGHT AS 2016 UNT                          000000000CN00001020101664KGM00020160000000UNT0000000020825400000419840N00000000000000000000   0000000000261 00500000000000000000   0000020992054N00000000000000000000   0000000000 00000000000000000000   00000000000000020992000000000000000000000MYR00000000000MYR00000000000MYR00000000000MYR000000000000000   3304999000
S11R  B102023101700208001G3187104 IAR ERASER 120 LIGHT ASJPCN 5952 UNT                         G2952203 C SMOOTH AIO R2018 03 NT AS 5292 UNT                         G3394303 FIT ME CONCEAL 20 SAND AS 2592 UNT                           G3187204 IAR ERASER 130 MEDIUM ASJPCN 2592 UNT                        G1638605 MBL Eye Lip Remover 150mL AS 2448 UNT                        G3394403 FIT ME CONCEAL 25 MEDIUM AS 2160 UNT                         G3394103 FIT ME CONCEAL 10 LIGHT AS 2016 UNT                          
S11D 1B10202310170020800201G3486003 IAR ERASER 122 SAND ASJPCN 1632 UNT                          000000000CN00000825796585KGM00016320000000UNT0000000041180700000672069N00000000000000000000   0000000000261 00500000000000000000   0000033603054N00000000000000000000   0000000000 00000000000000000000   00000000000000033603000000000000000000000MYR00000000000MYR00000000000MYR00000000000MYR000000000000000   3304200000
S11D 1B10202310170020800202G3694303 FIT ME CONCEAL 07 VANILLA AS 1584 UNT                        000000000CN00000801508450KGM00015840000000UNT0000000021166600000335279N00000000000000000000   0000000000261 00500000000000000000   0000016764054N00000000000000000000   0000000000 00000000000000000000   00000000000000016764000000000000000000000MYR00000000000MYR00000000000MYR00000000000MYR000000000000000   3304999000
S11D 1B10202310170020800203G3978500 CSENS LIP MAT CREAMS 506 ASJP 1176 UNT                       000000000CN00000595059304KGM00011760000000UNT0000000029169400000343032N00000000000000000000   0000000000261 00500000000000000000   0000017152054N00000000000000000000   0000000000 00000000000000000000   00000000000000017152000000000000000000000MYR00000000000MYR00000000000MYR00000000000MYR000000000000000   3304100000
S11D 1B10202310170020800204G3522603 FIT ME CONCEAL 30 HONEY AS 1152 UNT                          000000000CN00000582915237KGM00011520000000UNT0000000021278500000245128N00000000000000000000   0000000000261 00500000000000000000   0000012256054N00000000000000000000   0000000000 00000000000000000000   00000000000000012256000000000000000000000MYR00000000000MYR00000000000MYR00000000000MYR000000000000000   3304999000
S11D 1B10202310170020800205G3485903 IAR ERASER 100 IVORY ASJPCN 1152 UNT                         000000000CN00000582915237KGM00011520000000UNT0000000041090000000473357N00000000000000000000   0000000000261 00500000000000000000   0000023668054N00000000000000000000   0000000000 00000000000000000000   00000000000000023668000000000000000000000MYR00000000000MYR00000000000MYR00000000000MYR000000000000000   3304200000
S11D 1B10202310170020800206G2902400 BLIPS LOVES BRIGHT BLS Peach AS 1008 UNT                     000000000CN00000510050832KGM00010080000000UNT0000000023904500000240957N00000000000000000000   0000000000261 00500000000000000000   0000012048054N00000000000000000000   0000000000 00000000000000000000   00000000000000012048000000000000000000000MYR00000000000MYR00000000000MYR00000000000MYR000000000000000   3304100000
S11D 1B10202310170020800207G2902200 BLIPS LOVES BRIGHT BLISTER 5 AS 864 UNT                      000000000CN00000437186427KGM00008640000000UNT0000000021408600000184970N00000000000000000000   0000000000261 00500000000000000000   0000009249054N00000000000000000000   0000000000 00000000000000000000   00000000000000009249000000000000000000000MYR00000000000MYR00000000000MYR00000000000MYR000000000000000   3304100000
S11R  B102023101700208002G3486003 IAR ERASER 122 SAND ASJPCN 1632 UNT                          G3694303 FIT ME CONCEAL 07 VANILLA AS 1584 UNT                        G3978500 CSENS LIP MAT CREAMS 506 ASJP 1176 UNT                       G3522603 FIT ME CONCEAL 30 HONEY AS 1152 UNT                          G3485903 IAR ERASER 100 IVORY ASJPCN 1152 UNT                         G2902400 BLIPS LOVES BRIGHT BLS Peach AS 1008 UNT                     G2902200 BLIPS LOVES BRIGHT BLISTER 5 AS 864 UNT                      
S11D 1B10202310170020800301G3749600 SUPERSTAY PWD 220 AS 864 UNT                                 000000000CN00000437186427KGM00008640000000UNT0000000054786500000473355N00000000000000000000   0000000000261 00500000000000000000   0000023668054N00000000000000000000   0000000000 00000000000000000000   00000000000000023668000000000000000000000MYR00000000000MYR00000000000MYR00000000000MYR000000000000000   3304910000
S11D 1B10202310170020800302G3694403 FIT ME CONCEAL 17 ALMOND AS 864 UNT                          000000000CN00000437186427KGM00008640000000UNT0000000021271100000183782N00000000000000000000   0000000000261 00500000000000000000   0000009189054N00000000000000000000   0000000000 00000000000000000000   00000000000000009189000000000000000000000MYR00000000000MYR00000000000MYR00000000000MYR000000000000000   3304200000
S11D 1B10202310170020800303G3777402 IAR ERASER 142 BUTTERSCOTCH ASJPCN 768 UNT                   000000000CN00000388610158KGM00007680000000UNT0000000041427100000318160N00000000000000000000   0000000000261 00500000000000000000   0000015908054N00000000000000000000   0000000000 00000000000000000000   00000000000000015908000000000000000000000MYR00000000000MYR00000000000MYR00000000000MYR000000000000000   3304200000
S11D 1B10202310170020800304G3485803 IAR ERASER 144 CARAMEL ASJPCN 768 UNT                        000000000CN00000388610158KGM00007680000000UNT0000000041418100000318091N00000000000000000000   0000000000261 00500000000000000000   0000015905054N00000000000000000000   0000000000 00000000000000000000   00000000000000015905000000000000000000000MYR00000000000MYR00000000000MYR00000000000MYR000000000000000   3304200000
S11D 1B10202310170020800305G3694503 FIT ME CONCEAL 36 GOLDEN AS 720 UNT                          000000000CN00000364322023KGM00007200000000UNT0000000021488100000154714N00000000000000000000   0000000000261 00500000000000000000   0000007736054N00000000000000000000   0000000000 00000000000000000000   00000000000000007736000000000000000000000MYR00000000000MYR00000000000MYR00000000000MYR000000000000000   3304999000
S11D 1B10202310170020800306G3392502 FIT ME PWD MAT PORE 220 ASJP 648 UNT                         000000000CN00000327889821KGM00006480000000UNT0000000047990100000310976N00000000000000000000   0000000000261 00500000000000000000   0000015549054N00000000000000000000   0000000000 00000000000000000000   00000000000000015549000000000000000000000MYR00000000000MYR00000000000MYR00000000000MYR000000000000000   3304999000
S11D 1B10202310170020800307G3749400 SUPERSTAY PWD 120 AS 576 UNT                                 000000000CN00000291457618KGM00005760000000UNT0000000054979500000316682N00000000000000000000   0000000000261 00500000000000000000   0000015834054N00000000000000000000   0000000000 00000000000000000000   00000000000000015834000000000000000000000MYR00000000000MYR00000000000MYR00000000000MYR000000000000000   3304910000
S11R  B102023101700208003G3749600 SUPERSTAY PWD 220 AS 864 UNT                                 G3694403 FIT ME CONCEAL 17 ALMOND AS 864 UNT                          G3777402 IAR ERASER 142 BUTTERSCOTCH ASJPCN 768 UNT                   G3485803 IAR ERASER 144 CARAMEL ASJPCN 768 UNT                        G3694503 FIT ME CONCEAL 36 GOLDEN AS 720 UNT                          G3392502 FIT ME PWD MAT PORE 220 ASJP 648 UNT                         G3749400 SUPERSTAY PWD 120 AS 576 UNT                                 
S11D 1B10202310170020800401G3522703 FIT ME CONCEAL 40 CARAMEL AS 576 UNT                         000000000CN00000291457618KGM00005760000000UNT0000000021258000000122446N00000000000000000000   0000000000261 00500000000000000000   0000006122054N00000000000000000000   0000000000 00000000000000000000   00000000000000006122000000000000000000000MYR00000000000MYR00000000000MYR00000000000MYR000000000000000   3304999000
S11D 1B10202310170020800402G3392302 FIT ME PWD MAT PORE 120 ASJP 504 UNT                         000000000CN00000255025416KGM00005040000000UNT0000000047847600000241152N00000000000000000000   0000000000261 00500000000000000000   0000012058054N00000000000000000000   0000000000 00000000000000000000   00000000000000012058000000000000000000000MYR00000000000MYR00000000000MYR00000000000MYR000000000000000   3304999000
S11D 1B10202310170020800403G0185005 DOUBLE EXT BEAUTY V4 AS 504 UNT                              000000000CN00000255025416KGM00005040000000UNT0000000053349400000268881N00000000000000000000   0000000000261 00500000000000000000   0000013444054N00000000000000000000   0000000000 00000000000000000000   00000000000000013444000000000000000000000MYR00000000000MYR00000000000MYR00000000000MYR000000000000000   3304200000
S11D 1B10202310170020800404G3706200 SUPERSTAY CRAYON 15 ASJP Z 504 UNT                           000000000CN00000255025416KGM00005040000000UNT0000000026877400000135462N00000000000000000000   0000000000261 00500000000000000000   0000006773054N00000000000000000000   0000000000 00000000000000000000   00000000000000006773000000000000000000000MYR00000000000MYR00000000000MYR00000000000MYR000000000000000   3304100000
S11D 1B10202310170020800405G3749300 SUPERSTAY PWD 115 AS 432 UNT                                 000000000CN00000218593214KGM00004320000000UNT0000000055046800000237802N00000000000000000000   0000000000261 00500000000000000000   0000011890054N00000000000000000000   0000000000 00000000000000000000   00000000000000011890000000000000000000000MYR00000000000MYR00000000000MYR00000000000MYR000000000000000   3304910000
S11D 1B10202310170020800406G3706300 SUPERSTAY CRAYON 20 ASJP Z 378 UNT                           000000000CN00000191269062KGM00003780000000UNT0000000026883600000101620N00000000000000000000   0000000000261 00500000000000000000   0000005081054N00000000000000000000   0000000000 00000000000000000000   00000000000000005081000000000000000000000MYR00000000000MYR00000000000MYR00000000000MYR000000000000000   3304100000
S11D 1B10202310170020800407G3392202 FIT ME PWD MAT PORE 110 ASJP 360 UNT                         000000000CN00000182161011KGM00003600000000UNT0000000047376400000170555N00000000000000000000   0000000000261 00500000000000000000   0000008528054N00000000000000000000   0000000000 00000000000000000000   00000000000000008528000000000000000000000MYR00000000000MYR00000000000MYR00000000000MYR000000000000000   3304999000
S11R  B102023101700208004G3522703 FIT ME CONCEAL 40 CARAMEL AS 576 UNT                         G3392302 FIT ME PWD MAT PORE 120 ASJP 504 UNT                         G0185005 DOUBLE EXT BEAUTY V4 AS 504 UNT                              G3706200 SUPERSTAY CRAYON 15 ASJP Z 504 UNT                           G3749300 SUPERSTAY PWD 115 AS 432 UNT                                 G3706300 SUPERSTAY CRAYON 20 ASJP Z 378 UNT                           G3392202 FIT ME PWD MAT PORE 110 ASJP 360 UNT                         
S11D 1B10202310170020800501G3749500 SUPERSTAY PWD 130 AS 360 UNT                                 000000000CN00000182161011KGM00003600000000UNT0000000055041700000198150N00000000000000000000   0000000000261 00500000000000000000   0000009908054N00000000000000000000   0000000000 00000000000000000000   00000000000000009908000000000000000000000MYR00000000000MYR00000000000MYR00000000000MYR000000000000000   3304910000
S11D 1B10202310170020800502G3392802 FIT ME PWD MAT PORE 235 ASJP 288 UNT                         000000000CN00000145728809KGM00002880000000UNT0000000048261500000138993N00000000000000000000   0000000000261 00500000000000000000   0000006950054N00000000000000000000   0000000000 00000000000000000000   00000000000000006950000000000000000000000MYR00000000000MYR00000000000MYR00000000000MYR000000000000000   3304999000
S11D 1B10202310170020800503G3392902 FIT ME PWD MAT PORE 310 ASJP 288 UNT                         000000000CN00000145728809KGM00002880000000UNT0000000048380600000139336N00000000000000000000   0000000000261 00500000000000000000   0000006967054N00000000000000000000   0000000000 00000000000000000000   00000000000000006967000000000000000000000MYR00000000000MYR00000000000MYR00000000000MYR000000000000000   3304999000
S11D 1B10202310170020800504G3392702 FIT ME PWD MAT PORE 230 ASJP 288 UNT                         000000000CN00000145728809KGM00002880000000UNT0000000048041700000138360N00000000000000000000   0000000000261 00500000000000000000   0000006918054N00000000000000000000   0000000000 00000000000000000000   00000000000000006918000000000000000000000MYR00000000000MYR00000000000MYR00000000000MYR000000000000000   3304999000
S11D 1B10202310170020800505G3706400 SUPERSTAY CRAYON 25 ASJP Z 252 UNT                           000000000CN00000127512708KGM00002520000000UNT0000000026975000000067977N00000000000000000000   0000000000261 00500000000000000000   0000003399054N00000000000000000000   0000000000 00000000000000000000   00000000000000003399000000000000000000000MYR00000000000MYR00000000000MYR00000000000MYR000000000000000   3304100000
S11D 1B10202310170020800506G3316200 TRUE MATCH TWC N2 AS 240 UNT                                 000000000CN00000121440674KGM00002400000000UNT0000000086491700000207580N00000000000000000000   0000000000261 00500000000000000000   0000010379054N00000000000000000000   0000000000 00000000000000000000   00000000000000010379000000000000000000000MYR00000000000MYR00000000000MYR00000000000MYR000000000000000   3304910000
S11D 1B10202310170020800507G3316300 TRUE MATCH TWC N4 AS 240 UNT                                 000000000CN00000121440674KGM00002400000000UNT0000000086306700000207136N00000000000000000000   0000000000261 00500000000000000000   0000010357054N00000000000000000000   0000000000 00000000000000000000   00000000000000010357000000000000000000000MYR00000000000MYR00000000000MYR00000000000MYR000000000000000   3304910000
S11R  B102023101700208005G3749500 SUPERSTAY PWD 130 AS 360 UNT                                 G3392802 FIT ME PWD MAT PORE 235 ASJP 288 UNT                         G3392902 FIT ME PWD MAT PORE 310 ASJP 288 UNT                         G3392702 FIT ME PWD MAT PORE 230 ASJP 288 UNT                         G3706400 SUPERSTAY CRAYON 25 ASJP Z 252 UNT                           G3316200 TRUE MATCH TWC N2 AS 240 UNT                                 G3316300 TRUE MATCH TWC N4 AS 240 UNT                                 
S11D 1B10202310170020800601G3316500 TRUE MATCH TWC R2 AS 240 UNT                                 000000000CN00000121440674KGM00002400000000UNT0000000086828300000208388N00000000000000000000   0000000000261 00500000000000000000   0000010419054N00000000000000000000   0000000000 00000000000000000000   00000000000000010419000000000000000000000MYR00000000000MYR00000000000MYR00000000000MYR000000000000000   3304910000
S11D 1B10202310170020800602G3394203 FIT ME CONCEAL 15 FAIR AS 288 UNT                            000000000CN00000145728809KGM00002880000000UNT0000000020908300000060216N00000000000000000000   0000000000261 00500000000000000000   0000003011054N00000000000000000000   0000000000 00000000000000000000   00000000000000003011000000000000000000000MYR00000000000MYR00000000000MYR00000000000MYR000000000000000   3304999000
S11D 1B10202310170020800603G3393102 FIT ME PWD MAT PORE 330 ASJP 216 UNT                         000000000CN00000109296607KGM00002160000000UNT0000000043741700000094482N00000000000000000000   0000000000261 00500000000000000000   0000004724054N00000000000000000000   0000000000 00000000000000000000   00000000000000004724000000000000000000000MYR00000000000MYR00000000000MYR00000000000MYR000000000000000   3304999000
S11D 1B10202310170020800604G3392402 FIT ME PWD MAT PORE 130 ASJP 216 UNT                         000000000CN00000109296607KGM00002160000000UNT0000000047875000000103410N00000000000000000000   0000000000261 00500000000000000000   0000005171054N00000000000000000000   0000000000 00000000000000000000   00000000000000005171000000000000000000000MYR00000000000MYR00000000000MYR00000000000MYR000000000000000   3304999000
S11D 1B10202310170020800605G3749700 SUPERSTAY PWD 312 AS 216 UNT                                 000000000CN00000109296607KGM00002160000000UNT0000000054658300000118062N00000000000000000000   0000000000261 00500000000000000000   0000005903054N00000000000000000000   0000000000 00000000000000000000   00000000000000005903000000000000000000000MYR00000000000MYR00000000000MYR00000000000MYR000000000000000   3304910000
S11D 1B10202310170020800606G3392602 FIT ME PWD MAT PORE 222 ASJP 216 UNT                         000000000CN00000109296607KGM00002160000000UNT0000000047956900000103587N00000000000000000000   0000000000261 00500000000000000000   0000005179054N00000000000000000000   0000000000 00000000000000000000   00000000000000005179000000000000000000000MYR00000000000MYR00000000000MYR00000000000MYR000000000000000   3304999000
S11D 1B10202310170020800607G3885200 SUPERSTAY CRAYON 85 ASJP Z 126 UNT                           000000000CN00000063756354KGM00001260000000UNT0000000026964300000033975N00000000000000000000   0000000000261 00500000000000000000   0000001699054N00000000000000000000   0000000000 00000000000000000000   00000000000000001699000000000000000000000MYR00000000000MYR00000000000MYR00000000000MYR000000000000000   3304100000
S11R  B102023101700208006G3316500 TRUE MATCH TWC R2 AS 240 UNT                                 G3394203 FIT ME CONCEAL 15 FAIR AS 288 UNT                            G3393102 FIT ME PWD MAT PORE 330 ASJP 216 UNT                         G3392402 FIT ME PWD MAT PORE 130 ASJP 216 UNT                         G3749700 SUPERSTAY PWD 312 AS 216 UNT                                 G3392602 FIT ME PWD MAT PORE 222 ASJP 216 UNT                         G3885200 SUPERSTAY CRAYON 85 ASJP Z 126 UNT                           
S11D 1B10202310170020800701G3316400 TRUE MATCH TWC N7 AS 120 UNT                                 000000000CN00000060720337KGM00001200000000UNT0000000086863300000104236N00000000000000000000   0000000000261 00500000000000000000   0000005212054N00000000000000000000   0000000000 00000000000000000000   00000000000000005212000000000000000000000MYR00000000000MYR00000000000MYR00000000000MYR000000000000000   3304910000
S11D 1B10202310170020800702G3806500 MATTE SGNATURE LINER 01 BLK AS 108 UNT                       000000000CN00000054648303KGM00001080000000UNT0000000041526900000044849N00000000000000000000   0000000000261 00500000000000000000   0000002242054N00000000000000000000   0000000000 00000000000000000000   00000000000000002242000000000000000000000MYR00000000000MYR00000000000MYR00000000000MYR000000000000000   3304200000
S11D 1B10202310170020800703G3187004 IAR ERASER 140 HONEY ASJPCN 96 UNT                           000000000CN00000048576270KGM00000960000000UNT0000000041216700000039568N00000000000000000000   0000000000261 00500000000000000000   0000001978054N00000000000000000000   0000000000 00000000000000000000   00000000000000001978000000000000000000000MYR00000000000MYR00000000000MYR00000000000MYR000000000000000   3304200000
S11D 1B10202310170020800704G2721903 TM FDT RENO G2 30ML MTS ASJP 36 UNT                          000000000CN00000018216101KGM00000360000000UNT0000000047794400000017206N00000000000000000000   0000000000261 00500000000000000000   0000000860054N00000000000000000000   0000000000 00000000000000000000   00000000000000000860000000000000000000000MYR00000000000MYR00000000000MYR00000000000MYR000000000000000   3304999000
S11D 1B10202310170020800705G2721803 TM FDT RENO G1 30ml ASJP 36 UNT                              000000000CN00000018216101KGM00000360000000UNT0000000047566700000017124N00000000000000000000   0000000000261 00500000000000000000   0000000856054N00000000000000000000   0000000000 00000000000000000000   00000000000000000856000000000000000000000MYR00000000000MYR00000000000MYR00000000000MYR000000000000000   3304999000
S11D 1B10202310170020800706G2721603 TM FDT RENO F2 30ML MTS ASJP 36 UNT                          000000000CN00000018216101KGM00000360000000UNT0000000047955600000017264N00000000000000000000   0000000000261 00500000000000000000   0000000863054N00000000000000000000   0000000000 00000000000000000000   00000000000000000863000000000000000000000MYR00000000000MYR00000000000MYR00000000000MYR000000000000000   3304999000
S11D 1B10202310170020800707G3707400 UNLIMITED MASCARA WTP ASCN 60 UNT                            000000000CN00000030360169KGM00000600000000UNT0000000053488300000032093N00000000000000000000   0000000000261 00500000000000000000   0000001605054N00000000000000000000   0000000000 00000000000000000000   00000000000000001605000000000000000000000MYR00000000000MYR00000000000MYR00000000000MYR000000000000000   3304200000
S11R  B102023101700208007G3316400 TRUE MATCH TWC N7 AS 120 UNT                                 G3806500 MATTE SGNATURE LINER 01 BLK AS 108 UNT                       G3187004 IAR ERASER 140 HONEY ASJPCN 96 UNT                           G2721903 TM FDT RENO G2 30ML MTS ASJP 36 UNT                          G2721803 TM FDT RENO G1 30ml ASJP 36 UNT                              G2721603 TM FDT RENO F2 30ML MTS ASJP 36 UNT                          G3707400 UNLIMITED MASCARA WTP ASCN 60 UNT                            
S11D 1B10202310170020800801G3706900 SUPERSTAY CRAYON 50 ASJP Z 630 UNT                           000000000CN00000318781770KGM00006300000000UNT0000000028105600000177065N00000000000000000000   0000000000261 00500000000000000000   0000008853054N00000000000000000000   0000000000 00000000000000000000   00000000000000008853000000000000000000000MYR00000000000MYR00000000000MYR00000000000MYR000000000000000   3304100000
S11D 1B10202310170020800802G4308800 FIT ME MONO BLUSH 10 BRAVE AS 360 UNT                        000000000CN00000182161011KGM00003600000000UNT0000000049330600000177590N00000000000000000000   0000000000261 00500000000000000000   0000008880054N00000000000000000000   0000000000 00000000000000000000   00000000000000008880000000000000000000000MYR00000000000MYR00000000000MYR00000000000MYR000000000000000   3304910000
S11D 1B10202310170020800803G4319700 FIT ME FRESH TINT SPF50 08 AS 2454 UNT                       000000000CN00001241730895KGM00024540000000UNT0000000038687500000949391N00000000000000000000   0000000000261 00500000000000000000   0000047470054N00000000000000000000   0000000000 00000000000000000000   00000000000000047470000000000000000000000MYR00000000000MYR00000000000MYR00000000000MYR000000000000000   3304999000
S11D 1B10202310170020800804G4319400 FIT ME FRESH TINT SPF50 05 AS 2448 UNT                       000000000CN00001238694878KGM00024480000000UNT0000000038182800000934715N00000000000000000000   0000000000261 00500000000000000000   0000046736054N00000000000000000000   0000000000 00000000000000000000   00000000000000046736000000000000000000000MYR00000000000MYR00000000000MYR00000000000MYR000000000000000   3304999000
S11D 1B10202310170020800805G3981000 CSENS LIP MAT CREAMS 660 ASJP 135 UNT                        000000000CN00000068310379KGM00001350000000UNT0000000029399300000039689N00000000000000000000   0000000000261 00500000000000000000   0000001984054N00000000000000000000   0000000000 00000000000000000000   00000000000000001984000000000000000000000MYR00000000000MYR00000000000MYR00000000000MYR000000000000000   3304100000
S11D 1B10202310170020800806G4309000 FIT ME MONO BLUSH 30 FIERCE AS 90 UNT                        000000000CN00000045540253KGM00000900000000UNT0000000043532200000039179N00000000000000000000   0000000000261 00500000000000000000   0000001959054N00000000000000000000   0000000000 00000000000000000000   00000000000000001959000000000000000000000MYR00000000000MYR00000000000MYR00000000000MYR000000000000000   3304910000
S11D 1B10202310170020800807G4377100 BABYLIPS LOVE Berry Crush 2022 AS 2016 UNT                   000000000CN00001020101664KGM00020160000000UNT0000000020827400000419880N00000000000000000000   0000000000261 00500000000000000000   0000020994054N00000000000000000000   0000000000 00000000000000000000   00000000000000020994000000000000000000000MYR00000000000MYR00000000000MYR00000000000MYR000000000000000   3304999000
S11R  B102023101700208008G3706900 SUPERSTAY CRAYON 50 ASJP Z 630 UNT                           G4308800 FIT ME MONO BLUSH 10 BRAVE AS 360 UNT                        G4319700 FIT ME FRESH TINT SPF50 08 AS 2454 UNT                       G4319400 FIT ME FRESH TINT SPF50 05 AS 2448 UNT                       G3981000 CSENS LIP MAT CREAMS 660 ASJP 135 UNT                        G4309000 FIT ME MONO BLUSH 30 FIERCE AS 90 UNT                        G4377100 BABYLIPS LOVE Berry Crush 2022 AS 2016 UNT                   
S11D 1B10202310170020800901G4319800 FIT ME FRESH TINT SPF50 09 AS 72 UNT                         000000000CN00000036432202KGM00000720000000UNT0000000039147200000028186N00000000000000000000   0000000000261 00500000000000000000   0000001409054N00000000000000000000   0000000000 00000000000000000000   00000000000000001409000000000000000000000MYR00000000000MYR00000000000MYR00000000000MYR000000000000000   3304999000
S11D 1B10202310170020800902G4209700 FIT ME ULTMT TWC SPF 120 AS 1638 UNT                         000000000CN00000828832602KGM00016380000000UNT0000000067499900001105648N00000000000000000000   0000000000261 00500000000000000000   0000055282054N00000000000000000000   0000000000 00000000000000000000   00000000000000055282000000000000000000000MYR00000000000MYR00000000000MYR00000000000MYR000000000000000   3304910000
S11D 1B10202310170020800903G4242400 SENS LIQ CUSH MAT SLV CM14 ASJP 828 UNT                      000000000CN00000418970326KGM00008280000000UNT0000000039476400000326865N00000000000000000000   0000000000261 00500000000000000000   0000016343054N00000000000000000000   0000000000 00000000000000000000   00000000000000016343000000000000000000000MYR00000000000MYR00000000000MYR00000000000MYR000000000000000   3304200000
S11D 1B10202310170020800904G4241900 SENS LIQ CUSH MAT SLV CM06 ASJP 1035 UNT                     000000000CN00000523712908KGM00010350000000UNT0000000039557400000409419N00000000000000000000   0000000000261 00500000000000000000   0000020471054N00000000000000000000   0000000000 00000000000000000000   00000000000000020471000000000000000000000MYR00000000000MYR00000000000MYR00000000000MYR000000000000000   3304200000
S11D 1B10202310170020800905G4222100 FIT ME PRIMER MATTE PORE SPF ASJP 984 UNT                    000000000CN00000497906765KGM00009840000000UNT0000000037783100000371786N00000000000000000000   0000000000261 00500000000000000000   0000018589054N00000000000000000000   0000000000 00000000000000000000   00000000000000018589000000000000000000000MYR00000000000MYR00000000000MYR00000000000MYR000000000000000   3304999000
S11D 1B10202310170020800906G4242300 SENS LIQ CUSH MAT SLV CM10 ASJP 897 UNT                      000000000CN00000453884520KGM00008970000000UNT0000000039576500000355001N00000000000000000000   0000000000261 00500000000000000000   0000017750054N00000000000000000000   0000000000 00000000000000000000   00000000000000017750000000000000000000000MYR00000000000MYR00000000000MYR00000000000MYR000000000000000   3304200000
S11D 1B10202310170020800907G4242000 SENS LIQ CUSH MAT SLV CM07 ASJP 897 UNT                      000000000CN00000453884520KGM00008970000000UNT0000000039811400000357108N00000000000000000000   0000000000261 00500000000000000000   0000017855054N00000000000000000000   0000000000 00000000000000000000   00000000000000017855000000000000000000000MYR00000000000MYR00000000000MYR00000000000MYR000000000000000   3304200000
S11R  B102023101700208009G4319800 FIT ME FRESH TINT SPF50 09 AS 72 UNT                         G4209700 FIT ME ULTMT TWC SPF 120 AS 1638 UNT                         G4242400 SENS LIQ CUSH MAT SLV CM14 ASJP 828 UNT                      G4241900 SENS LIQ CUSH MAT SLV CM06 ASJP 1035 UNT                     G4222100 FIT ME PRIMER MATTE PORE SPF ASJP 984 UNT                    G4242300 SENS LIQ CUSH MAT SLV CM10 ASJP 897 UNT                      G4242000 SENS LIQ CUSH MAT SLV CM07 ASJP 897 UNT                      
S11D 1B10202310170020801001G4242100 SENS LIQ CUSH MAT SLV CM08 ASJP 897 UNT                      000000000CN00000453884520KGM00008970000000UNT0000000039828800000357264N00000000000000000000   0000000000261 00500000000000000000   0000017863054N00000000000000000000   0000000000 00000000000000000000   00000000000000017863000000000000000000000MYR00000000000MYR00000000000MYR00000000000MYR000000000000000   3304200000
S11D 1B10202310170020801002G4309200 FIT ME MONO BLUSH 50 REVOL AS 807 UNT                        000000000CN00000408344267KGM00008070000000UNT0000000045802700000369628N00000000000000000000   0000000000261 00500000000000000000   0000018481054N00000000000000000000   0000000000 00000000000000000000   00000000000000018481000000000000000000000MYR00000000000MYR00000000000MYR00000000000MYR000000000000000   3304910000
S11D 1B10202310170020801003G4242500 SENS LIQ CUSH MAT SLV CM15 ASJP 759 UNT                      000000000CN00000384056132KGM00007590000000UNT0000000040026600000303802N00000000000000000000   0000000000261 00500000000000000000   0000015190054N00000000000000000000   0000000000 00000000000000000000   00000000000000015190000000000000000000000MYR00000000000MYR00000000000MYR00000000000MYR000000000000000   3304200000
S11D 1B10202310170020801004G4209901 FIT ME ULTMT TWC SPF 128 AS 702 UNT                          000000000CN00000355213972KGM00007020000000UNT0000000067326500000472632N00000000000000000000   0000000000261 00500000000000000000   0000023632054N00000000000000000000   0000000000 00000000000000000000   00000000000000023632000000000000000000000MYR00000000000MYR00000000000MYR00000000000MYR000000000000000   3304999000
S11D 1B10202310170020801005G4209500 FIT ME ULTMT TWC SPF 112 AS 702 UNT                          000000000CN00000355213972KGM00007020000000UNT0000000067786800000475863N00000000000000000000   0000000000261 00500000000000000000   0000023793054N00000000000000000000   0000000000 00000000000000000000   00000000000000023793000000000000000000000MYR00000000000MYR00000000000MYR00000000000MYR000000000000000   3304200000
S11D 1B10202310170020801006G4242600 SENS LIQ CUSH MAT SLV CM16 ASJP 690 UNT                      000000000CN00000349141939KGM00006900000000UNT0000000040161700000277116N00000000000000000000   0000000000261 00500000000000000000   0000013856054N00000000000000000000   0000000000 00000000000000000000   00000000000000013856000000000000000000000MYR00000000000MYR00000000000MYR00000000000MYR000000000000000   3304200000
S11D 1B10202310170020801007G3981200 CSENS LIP MAT CREAMS 671 ASJP 540 UNT                        000000000CN00000273241517KGM00005400000000UNT0000000029659600000160162N00000000000000000000   0000000000261 00500000000000000000   0000008008054N00000000000000000000   0000000000 00000000000000000000   00000000000000008008000000000000000000000MYR00000000000MYR00000000000MYR00000000000MYR000000000000000   3304100000
S11R  B102023101700208010G4242100 SENS LIQ CUSH MAT SLV CM08 ASJP 897 UNT                      G4309200 FIT ME MONO BLUSH 50 REVOL AS 807 UNT                        G4242500 SENS LIQ CUSH MAT SLV CM15 ASJP 759 UNT                      G4209901 FIT ME ULTMT TWC SPF 128 AS 702 UNT                          G4209500 FIT ME ULTMT TWC SPF 112 AS 702 UNT                          G4242600 SENS LIQ CUSH MAT SLV CM16 ASJP 690 UNT                      G3981200 CSENS LIP MAT CREAMS 671 ASJP 540 UNT                        
S11D 1B10202310170020801101G3982000 CSENS LIP MAT CREAMS 685 ASJP 405 UNT                        000000000CN00000204931138KGM00004050000000UNT0000000031554600000127796N00000000000000000000   0000000000261 00500000000000000000   0000006390054N00000000000000000000   0000000000 00000000000000000000   00000000000000006390000000000000000000000MYR00000000000MYR00000000000MYR00000000000MYR000000000000000   3304100000
S11D 1B10202310170020801102G3980800 CSENS LIP MAT CREAMS 656 ASJP 540 UNT                        000000000CN00000273241517KGM00005400000000UNT0000000029074800000157004N00000000000000000000   0000000000261 00500000000000000000   0000007850054N00000000000000000000   0000000000 00000000000000000000   00000000000000007850000000000000000000000MYR00000000000MYR00000000000MYR00000000000MYR000000000000000   3304100000
S11D 1B10202310170020801103G4377300 BABYLIPS LOVE Pink Lolita 2022 AS 576 UNT                    000000000CN00000291457618KGM00005760000000UNT0000000020835800000120014N00000000000000000000   0000000000261 00500000000000000000   0000006001054N00000000000000000000   0000000000 00000000000000000000   00000000000000006001000000000000000000000MYR00000000000MYR00000000000MYR00000000000MYR000000000000000   3304999000
S11D 1B10202310170020801104G3978600 CSENS LIP MAT CREAMS 507 ASJP 405 UNT                        000000000CN00000204931138KGM00004050000000UNT0000000029386200000119014N00000000000000000000   0000000000261 00500000000000000000   0000005951054N00000000000000000000   0000000000 00000000000000000000   00000000000000005951000000000000000000000MYR00000000000MYR00000000000MYR00000000000MYR000000000000000   3304100000
S11D 1B10202310170020801105G3980900 CSENS LIP MAT CREAMS 657 ASJP 405 UNT                        000000000CN00000204931138KGM00004050000000UNT0000000029233800000118397N00000000000000000000   0000000000261 00500000000000000000   0000005920054N00000000000000000000   0000000000 00000000000000000000   00000000000000005920000000000000000000000MYR00000000000MYR00000000000MYR00000000000MYR000000000000000   3304100000
S11D 1B10202310170020801106G3983300 CSENS LIP MAT CREAMS 807 ASJP 405 UNT                        000000000CN00000204931138KGM00004050000000UNT0000000029438000000119224N00000000000000000000   0000000000261 00500000000000000000   0000005961054N00000000000000000000   0000000000 00000000000000000000   00000000000000005961000000000000000000000MYR00000000000MYR00000000000MYR00000000000MYR000000000000000   3304100000
S11D 1B10202310170020801107G4210200 FIT ME ULTMT TWC SPF 228 AS 378 UNT                          000000000CN00000191269062KGM00003780000000UNT0000000067117500000253704N00000000000000000000   0000000000261 00500000000000000000   0000012685054N00000000000000000000   0000000000 00000000000000000000   00000000000000012685000000000000000000000MYR00000000000MYR00000000000MYR00000000000MYR000000000000000   3304999000
S11R  B102023101700208011G3982000 CSENS LIP MAT CREAMS 685 ASJP 405 UNT                        G3980800 CSENS LIP MAT CREAMS 656 ASJP 540 UNT                        G4377300 BABYLIPS LOVE Pink Lolita 2022 AS 576 UNT                    G3978600 CSENS LIP MAT CREAMS 507 ASJP 405 UNT                        G3980900 CSENS LIP MAT CREAMS 657 ASJP 405 UNT                        G3983300 CSENS LIP MAT CREAMS 807 ASJP 405 UNT                        G4210200 FIT ME ULTMT TWC SPF 228 AS 378 UNT                          
S11D 1B10202310170020801201G4239000 INF Lasting Powder 110 AS 216 UNT                            000000000CN00000109296607KGM00002160000000UNT0000000042922700000092713N00000000000000000000   0000000000261 00500000000000000000   0000004636054N00000000000000000000   0000000000 00000000000000000000   00000000000000004636000000000000000000000MYR00000000000MYR00000000000MYR00000000000MYR000000000000000   3304910000
S11D 1B10202310170020801202G4210500 FIT ME ULTMT TWC SPF 310 AS 378 UNT                          000000000CN00000191269062KGM00003780000000UNT0000000068486800000258880N00000000000000000000   0000000000261 00500000000000000000   0000012944054N00000000000000000000   0000000000 00000000000000000000   00000000000000012944000000000000000000000MYR00000000000MYR00000000000MYR00000000000MYR000000000000000   3304910000
S11D 1B10202310170020801203G3981900 CSENS LIP MAT CREAMS 680 ASJP 270 UNT                        000000000CN00000136620759KGM00002700000000UNT0000000030920400000083485N00000000000000000000   0000000000261 00500000000000000000   0000004174054N00000000000000000000   0000000000 00000000000000000000   00000000000000004174000000000000000000000MYR00000000000MYR00000000000MYR00000000000MYR000000000000000   3304100000
S11D 1B10202310170020801204G4239400 INF Lasting Powder 128 AS 288 UNT                            000000000CN00000145728809KGM00002880000000UNT0000000042769400000123176N00000000000000000000   0000000000261 00500000000000000000   0000006159054N00000000000000000000   0000000000 00000000000000000000   00000000000000006159000000000000000000000MYR00000000000MYR00000000000MYR00000000000MYR000000000000000   3304910000
S11D 1B10202310170020801205G4239800 INF Lasting Powder 95 AS 144 UNT                             000000000CN00000072864405KGM00001440000000UNT0000000042932600000061823N00000000000000000000   0000000000261 00500000000000000000   0000003091054N00000000000000000000   0000000000 00000000000000000000   00000000000000003091000000000000000000000MYR00000000000MYR00000000000MYR00000000000MYR000000000000000   3304910000
S11D 1B10202310170020801206G4239600 INF Lasting Powder 250 AS 144 UNT                            000000000CN00000072864405KGM00001440000000UNT0000000042847200000061700N00000000000000000000   0000000000261 00500000000000000000   0000003085054N00000000000000000000   0000000000 00000000000000000000   00000000000000003085000000000000000000000MYR00000000000MYR00000000000MYR00000000000MYR000000000000000   3304910000
S11D 1B10202310170020801207G4268400 FIT ME CUSHION M&P 220 AS 108 UNT                            000000000CN00000054648303KGM00001080000000UNT0000000121012000000130693N00000000000000000000   0000000000261 00500000000000000000   0000006535054N00000000000000000000   0000000000 00000000000000000000   00000000000000006535000000000000000000000MYR00000000000MYR00000000000MYR00000000000MYR000000000000000   3304999000
S11R  B102023101700208012G4239000 INF Lasting Powder 110 AS 216 UNT                            G4210500 FIT ME ULTMT TWC SPF 310 AS 378 UNT                          G3981900 CSENS LIP MAT CREAMS 680 ASJP 270 UNT                        G4239400 INF Lasting Powder 128 AS 288 UNT                            G4239800 INF Lasting Powder 95 AS 144 UNT                             G4239600 INF Lasting Powder 250 AS 144 UNT                            G4268400 FIT ME CUSHION M&P 220 AS 108 UNT                            
S11D 1B10202310170020801301G4192400 CS ULTIMATTE SLV 699 AS 117 UNT                              000000000CN00000059202329KGM00001170000000UNT0000000031229100000036538N00000000000000000000   0000000000261 00500000000000000000   0000001827054N00000000000000000000   0000000000 00000000000000000000   00000000000000001827000000000000000000000MYR00000000000MYR00000000000MYR00000000000MYR000000000000000   3304999000
S11D 1B10202310170020801302G4268700 FIT ME CUSHION M&P 120 AS 72 UNT                             000000000CN00000036432202KGM00000720000000UNT0000000121176400000087247N00000000000000000000   0000000000261 00500000000000000000   0000004362054N00000000000000000000   0000000000 00000000000000000000   00000000000000004362000000000000000000000MYR00000000000MYR00000000000MYR00000000000MYR000000000000000   3304999000
S11D 1B10202310170020801303G4268900 FIT ME CUSHION M&P 128 AS 72 UNT                             000000000CN00000036432202KGM00000720000000UNT0000000121248600000087299N00000000000000000000   0000000000261 00500000000000000000   0000004365054N00000000000000000000   0000000000 00000000000000000000   00000000000000004365000000000000000000000MYR00000000000MYR00000000000MYR00000000000MYR000000000000000   3304999000
S11D 1B10202310170020801304G4192500 CS ULTIMATTE SLV 799 AS 117 UNT                              000000000CN00000059202329KGM00001170000000UNT0000000031251300000036564N00000000000000000000   0000000000261 00500000000000000000   0000001828054N00000000000000000000   0000000000 00000000000000000000   00000000000000001828000000000000000000000MYR00000000000MYR00000000000MYR00000000000MYR000000000000000   3304999000
S11D 1B10202310170020801305G4216800 Chiffon Signature LIPGLS 225 ASJPCN 72 UNT                   000000000CN00000036432202KGM00000720000000UNT0000000055233300000039768N00000000000000000000   0000000000261 00500000000000000000   0000001988054N00000000000000000000   0000000000 00000000000000000000   00000000000000001988000000000000000000000MYR00000000000MYR00000000000MYR00000000000MYR000000000000000   3304100000
S11D 1B10202310170020801306G4291200 INF Primer ASCN 72 UNT                                       000000000CN00000036432202KGM00000720000000UNT0000000049484700000035629N00000000000000000000   0000000000261 00500000000000000000   0000001781054N00000000000000000000   0000000000 00000000000000000000   00000000000000001781000000000000000000000MYR00000000000MYR00000000000MYR00000000000MYR000000000000000   3304999000
