S11HDR001                    202302030039050000000               
S11H  B1020231017000430004D I SUZHOU SAMSUNG ELECTRONICS CO.,LTD NO.501 SUHONG EAST ROAD  SUZHOU JANGSU 215021 CHINA                                                      B629186D       SAMSUNG MALAYSIA ELECTRONICS S/B   SUITE E-09-01, LEVEL 9 EAST WING, ICON JLN TUN RAZAK NO.1, JLN 1/68F 50400 KUALA LUMPUR                                                           120230103FLR57673722DAAZHAPPY LUCKY             00000000                        PKGMYSGHCN                    00000000                                         0000              0000                     00000             CN0000000955100000000000000009668490000095506800000002230000027650000000001990000010000MYR20230104104620230103120020230109110220230103120000000080850000000000871009065462ALEXANDRA ONG MEI LI               ASST.MANAGER        Freight and Insurance value for Customs purposes only .                                                                                     5PACKAGE(S) STC:5PC OF COMPRESSOR, 3PC OF MOTOR FAN, 3PC OF WASHING MACHINE PARTS ( INV 9101343599 )                                           0000        KMTCSHAK123604 KS0322122019                         0000              0000                                            
S11D 1B10202310170004300101DS4GJ5080FVA                                                          000000000CN00001256800000UNT00001256800000UNT0000000704979100000886018N00000000000000000000   0000000000233 00000000000000000000   0000000000033N00000000000000000000   0000000000 00000000000000000000   00000000000000000000000000000000000000000MYR00000000000MYR00000000000MYR00000000000MYR000000000000000   8414309000
S11D 1B10202310170004300102DC97-22343A                                                           000000000CN00000251400000KGM00000251400000KGM0000000033100000000008321N00000000000000000000   0000000000233 01000000000000000000   0000000833033N00000000000000000000   0000000000 00000000000000000000   00000000000000000833000000000000000000000MYR00000000000MYR00000000000MYR00000000000MYR000000000000000   8450902000
S11D 1B10202310170004300103DC97-22343A                                                           000000000CN00000502700000KGM00000502700000KGM0000000033100000000016639N00000000000000000000   0000000000233 01000000000000000000   0000001664033N00000000000000000000   0000000000 00000000000000000000   00000000000000001664000000000000000000000MYR00000000000MYR00000000000MYR00000000000MYR000000000000000   8450902000
S11D 1B10202310170004300104DB31-00639A                                                           000000000CN00000754100000UNT00000754100000UNT0000000074100000000055879N00000000000000000000   0000000000233 01000000000000000000   0000005588033N00000000000000000000   0000000000 00000000000000000000   00000000000000005588000000000000000000000MYR00000000000MYR00000000000MYR00000000000MYR000000000000000   8501202900
S11R  B102023101700043001DS4GJ5080FVA                                                          DC97-22343A                                                           DC97-22343A                                                           DB31-00639A                                                                                                                                                                                                                                                                             
S11H  B1020231017000440029D I SUZHOU SAMSUNG ELECTRONICS CO.,LTD NO.501 SUHONG EAST ROAD  SUZHOU JANGSU 215021 CHINA                                                      B629186D       SAMSUNG MALAYSIA ELECTRONICS S/B   SUITE E-09-01, LEVEL 9 EAST WING, ICON JLN TUN RAZAK NO.1, JLN 1/68F 50400 KUALA LUMPUR                                                           120230103FLR57673722DAAZHAPPY LUCKY             00000000                        PKGMYSGHCN                    00000000                                         0000              0000                     00000             CN0000001851500000000000000018722760000185152300000002238000058800000000007390000010000MYR20230104105320230103120020230109110220230103120000003271300000000000871009065462ALEXANDRA ONG MEI LI               ASST.MANAGER        Freight and Insurance value for Customs purposes only .                                                                                     20PACKAGE(S) STC: PC OF AIR CONDITIONER PARTS, 5PC OF PIPE & ETC ( INV 9101357724 )                                                            0000        KMTCSHAK123604 KS0322122022                         0000              0000                                            
S11D 1B10202310170004400101DC97-14637D                                                           000000000CN00000143400000KGM00000143400000KGM0000000036715500000005265A03000000000000000000   0000001580285 01000000000000000000   0000000684057N00000000000000000000   0000000000 00000000000000000000   00000000000000002264000000000000000000000MYR00000000000MYR00000000000MYR00000000000MYR000000000000000   4009129000
S11D 1B10202310170004400102DB95-04329A                                                           000000000CN00000143400000KGM00000143400000KGM0000000029500000000004230A03000000000000000000   0000001269233 01000000000000000000   0000000550033N00000000000000000000   0000000000 00000000000000000000   00000000000000001819000000000000000000000MYR00000000000MYR00000000000MYR00000000000MYR000000000000000   8415904900
S11D 1B10202310170004400103DA63-07738A                                                           000000000CN00000372900000KGM00000372900000KGM0000000059200000000022076A03000000000000000000   0000006623233 01000000000000000000   0000002870033N00000000000000000000   0000000000 00000000000000000000   00000000000000009493000000000000000000000MYR00000000000MYR00000000000MYR00000000000MYR000000000000000   8418999000
S11D 1B10202310170004400104DA91-06059A                                                           000000000CN00000028700000KGM00000028700000KGM0000001623600000000046597A03000000000000000000   0000013979233 01000000000000000000   0000006058033N00000000000000000000   0000000000 00000000000000000000   00000000000000020037000000000000000000000MYR00000000000MYR00000000000MYR00000000000MYR000000000000000   8418999000
S11D 1B10202310170004400105DA63-07740A                                                           000000000CN00000172100000KGM00000172100000KGM0000000063600000000010946A03000000000000000000   0000003284233 01000000000000000000   0000001423033N00000000000000000000   0000000000 00000000000000000000   00000000000000004707000000000000000000000MYR00000000000MYR00000000000MYR00000000000MYR000000000000000   8418999000
S11D 1B10202310170004400106DC92-02898A                                                           000000000CN00000114700000KGM00000114700000KGM0000000549000000000062970N00000000000000000000   0000000000233 01000000000000000000   0000006297033N00000000000000000000   0000000000 00000000000000000000   00000000000000006297000000000000000000000MYR00000000000MYR00000000000MYR00000000000MYR000000000000000   8450902000
S11D 1B10202310170004400107DC97-16008B                                                           000000000CN00000143400000KGM00000143400000KGM0000000041500000000005951N00000000000000000000   0000000000233 01000000000000000000   0000000595033N00000000000000000000   0000000000 00000000000000000000   00000000000000000595000000000000000000000MYR00000000000MYR00000000000MYR00000000000MYR000000000000000   8450902000
S11R  B102023101700044001DC97-14637D                                                           DB95-04329A                                                           DA63-07738A                                                           DA91-06059A                                                           DA63-07740A                                                           DC92-02898A                                                           DC97-16008B                                                           
S11D 1B10202310170004400201DC97-22236A                                                           000000000CN00000028700000KGM00000028700000KGM0000000114400000000003283N00000000000000000000   0000000000233 01000000000000000000   0000000328033N00000000000000000000   0000000000 00000000000000000000   00000000000000000328000000000000000000000MYR00000000000MYR00000000000MYR00000000000MYR000000000000000   8450902000
S11D 1B10202310170004400202DC97-15963B                                                           000000000CN00000286800000KGM00000286800000KGM0000000124800000000035793N00000000000000000000   0000000000233 01000000000000000000   0000003579033N00000000000000000000   0000000000 00000000000000000000   00000000000000003579000000000000000000000MYR00000000000MYR00000000000MYR00000000000MYR000000000000000   8450902000
S11D 1B10202310170004400203DC61-04890B                                                           000000000CN00000143400000KGM00000143400000KGM0000000013300000000001907N00000000000000000000   0000000000233 01000000000000000000   0000000191033N00000000000000000000   0000000000 00000000000000000000   00000000000000000191000000000000000000000MYR00000000000MYR00000000000MYR00000000000MYR000000000000000   8450902000
S11D 1B10202310170004400204DC92-02709B                                                           000000000CN00000286800000KGM00000286800000KGM0000000535000000000153438N00000000000000000000   0000000000233 01000000000000000000   0000015344033N00000000000000000000   0000000000 00000000000000000000   00000000000000015344000000000000000000000MYR00000000000MYR00000000000MYR00000000000MYR000000000000000   8450902000
S11D 1B10202310170004400205DC92-02709B                                                           000000000CN00000057400000KGM00000057400000KGM0000000535000000000030709N00000000000000000000   0000000000233 01000000000000000000   0000003071033N00000000000000000000   0000000000 00000000000000000000   00000000000000003071000000000000000000000MYR00000000000MYR00000000000MYR00000000000MYR000000000000000   8450902000
S11D 1B10202310170004400206DC92-02870B                                                           000000000CN00000028700000KGM00000028700000KGM0000000480100000000013779N00000000000000000000   0000000000233 01000000000000000000   0000001378033N00000000000000000000   0000000000 00000000000000000000   00000000000000001378000000000000000000000MYR00000000000MYR00000000000MYR00000000000MYR000000000000000   8450902000
S11D 1B10202310170004400207DC97-14369G                                                           000000000CN00000200800000KGM00000200800000KGM0000000227900000000045762N00000000000000000000   0000000000233 01000000000000000000   0000004576033N00000000000000000000   0000000000 00000000000000000000   00000000000000004576000000000000000000000MYR00000000000MYR00000000000MYR00000000000MYR000000000000000   8450902000
S11R  B102023101700044002DC97-22236A                                                           DC97-15963B                                                           DC61-04890B                                                           DC92-02709B                                                           DC92-02709B                                                           DC92-02870B                                                           DC97-14369G                                                           
S11D 1B10202310170004400301DC97-14369G                                                           000000000CN00000229500000KGM00000229500000KGM0000000227900000000052303N00000000000000000000   0000000000233 01000000000000000000   0000005230033N00000000000000000000   0000000000 00000000000000000000   00000000000000005230000000000000000000000MYR00000000000MYR00000000000MYR00000000000MYR000000000000000   8450902000
S11D 1B10202310170004400302DC97-22264B                                                           000000000CN00000057400000KGM00000057400000KGM0000000138100000000007927N00000000000000000000   0000000000233 01000000000000000000   0000000793033N00000000000000000000   0000000000 00000000000000000000   00000000000000000793000000000000000000000MYR00000000000MYR00000000000MYR00000000000MYR000000000000000   8450902000
S11D 1B10202310170004400303DC97-16462C                                                           000000000CN00000344200000KGM00000344200000KGM0000000645400000000222147N00000000000000000000   0000000000233 01000000000000000000   0000022215033N00000000000000000000   0000000000 00000000000000000000   00000000000000022215000000000000000000000MYR00000000000MYR00000000000MYR00000000000MYR000000000000000   8450902000
S11D 1B10202310170004400304DC97-18524B                                                           000000000CN00000286800000KGM00000286800000KGM0000000041700000000011960N00000000000000000000   0000000000233 01000000000000000000   0000001196033N00000000000000000000   0000000000 00000000000000000000   00000000000000001196000000000000000000000MYR00000000000MYR00000000000MYR00000000000MYR000000000000000   8450902000
S11D 1B10202310170004400305DC97-16462C                                                           000000000CN00000430200000KGM00000430200000KGM0000000645400000000277651N00000000000000000000   0000000000233 01000000000000000000   0000027765033N00000000000000000000   0000000000 00000000000000000000   00000000000000027765000000000000000000000MYR00000000000MYR00000000000MYR00000000000MYR000000000000000   8450902000
S11D 1B10202310170004400306DC64-03235B                                                           000000000CN00000200800000KGM00000200800000KGM0000000162100000000032550N00000000000000000000   0000000000233 01000000000000000000   0000003255033N00000000000000000000   0000000000 00000000000000000000   00000000000000003255000000000000000000000MYR00000000000MYR00000000000MYR00000000000MYR000000000000000   8450902000
S11D 1B10202310170004400307DC97-15459K                                                           000000000CN00001118600000KGM00001118600000KGM0000000138900000000155374N00000000000000000000   0000000000233 01000000000000000000   0000015537033N00000000000000000000   0000000000 00000000000000000000   00000000000000015537000000000000000000000MYR00000000000MYR00000000000MYR00000000000MYR000000000000000   8481101900
S11R  B102023101700044003DC97-14369G                                                           DC97-22264B                                                           DC97-16462C                                                           DC97-18524B                                                           DC97-16462C                                                           DC64-03235B                                                           DC97-15459K                                                           
S11D 1B10202310170004400401DC92-01789B                                                           000000000CN00000430200000KGM00000430200000KGM0000000814900000000350570A01500000000000000000   0000052586253 01000000000000000000   0000040316057N00000000000000000000   0000000000 00000000000000000000   00000000000000092902000000000000000000000MYR00000000000MYR00000000000MYR00000000000MYR000000000000000   8537101300
S11D 1B10202310170004400402DC92-02665A                                                           000000000CN00000114700000KGM00000114700000KGM0000000215700000000024741A01500000000000000000   0000003711253 01000000000000000000   0000002845057N00000000000000000000   0000000000 00000000000000000000   00000000000000006556000000000000000000000MYR00000000000MYR00000000000MYR00000000000MYR000000000000000   8537101300
S11D 1B10202310170004400403DC92-02665A                                                           000000000CN00000086000000KGM00000086000000KGM0000000215700000000018550A01500000000000000000   0000002783253 01000000000000000000   0000002133057N00000000000000000000   0000000000 00000000000000000000   00000000000000004916000000000000000000000MYR00000000000MYR00000000000MYR00000000000MYR000000000000000   8537101300
S11D 1B10202310170004400404DC92-01787B                                                           000000000CN00000028700000KGM00000028700000KGM0000000277300000000007959A01500000000000000000   0000001194253 01000000000000000000   0000000915057N00000000000000000000   0000000000 00000000000000000000   00000000000000002109000000000000000000000MYR00000000000MYR00000000000MYR00000000000MYR000000000000000   8537101300
S11D 1B10202310170004400405DC92-01787B                                                           000000000CN00000028700000KGM00000028700000KGM0000000277300000000007959A01500000000000000000   0000001194253 01000000000000000000   0000000915057N00000000000000000000   0000000000 00000000000000000000   00000000000000002109000000000000000000000MYR00000000000MYR00000000000MYR00000000000MYR000000000000000   8537101300
S11D 1B10202310170004400406DC92-01789B                                                           000000000CN00000286800000KGM00000286800000KGM0000000814900000000233713A01500000000000000000   0000035057253 01000000000000000000   0000026877057N00000000000000000000   0000000000 00000000000000000000   00000000000000061934000000000000000000000MYR00000000000MYR00000000000MYR00000000000MYR000000000000000   8537101300
S11D 1B10202310170004400407DC92-01769C                                                           000000000CN00000028700000KGM00000028700000KGM0000000396900000000011391A01500000000000000000   0000001709253 01000000000000000000   0000001310057N00000000000000000000   0000000000 00000000000000000000   00000000000000003019000000000000000000000MYR00000000000MYR00000000000MYR00000000000MYR000000000000000   8537101300
S11R  B102023101700044004DC92-01789B                                                           DC92-02665A                                                           DC92-02665A                                                           DC92-01787B                                                           DC92-01787B                                                           DC92-01789B                                                           DC92-01769C                                                           
S11D 1B10202310170004400501DC92-02140A                                                           000000000CN00000057400000KGM00000057400000KGM0000000257400000000014775A01500000000000000000   0000002216253 01000000000000000000   0000001699057N00000000000000000000   0000000000 00000000000000000000   00000000000000003915000000000000000000000MYR00000000000MYR00000000000MYR00000000000MYR000000000000000   8537101300
S11R  B102023101700044005DC92-02140A                                                                                                                                                                                                                                                                                                                                                                                                                                                                                               
S11H  B1020231017000530002D I PT SAMSUNG ELECTRONICS INDONESIA   JABABEKA RAYA BLOK F 29-33,  CIKARANG BEKASI, WEST JAVA 17530 INDONESIA                                  B629186D       SAMSUNG MALAYSIA ELECTRONICS S/B   SUITE E-09-01, LEVEL 9 EAST WING, ICON JLN TUN RAZAK NO.1, JLN 1/68F 50400 KUALA LUMPUR                                                           120230103FCN09831322NCDCZHONG GU DA LIAN        00000000                        PKGMYJKTID                    00000000                                         0000              0000                     00000             ID0000257600000000000000002576000000024472000000010304000000224000000000005594000010000MYR20230104145220230103120020230109110220230103120000128800000000000000781229146337NOR NASRON BIN JIDIN               ASST.MANAGER        FREIGHT AND INSURANCES VALUE FOR CUSTOM PURPOSE ONLY                                                                                        1 X 40FT CONTR STC OF MOBILE ( INV 9101368430 ) PT OF                                                                                          0000        ARM0282187                                          0000              0000                                            
S11D 1B10202310170005300101MOBILE,SM-A135F/DS,BLACK,XME  SM-A135FZKHXME                          000000000ID00036000000000UNT00036000000000UNT0000004600000000165600000N00000000000000000000   0000000000231 00500000000000000000   0008280000056N00000000000000000000   0000000000 00000000000000000000   00000000000008280000000000000000000000000MYR00000000000MYR00000000000MYR00000000000MYR000000000000000   8517130000
S11D 1B10202310170005300102MOBILE,SM-A135F/DS,LIGHT B LUE,XME  SM-A135FLBHXME                    000000000ID00020000000000UNT00020000000000UNT0000004600000000092000000N00000000000000000000   0000000000231 00500000000000000000   0004600000056N00000000000000000000   0000000000 00000000000000000000   00000000000004600000000000000000000000000MYR00000000000MYR00000000000MYR00000000000MYR000000000000000   8517130000
S11R  B102023101700053001MOBILE,SM-A135F/DS,BLACK,XME  SM-A135FZKHXME                          MOBILE,SM-A135F/DS,LIGHT B LUE,XME  SM-A135FLBHXME                                                                                                                                                                                                                                                                                                                                                                                  
S11H  B1020231017000540002D I PT SAMSUNG ELECTRONICS INDONESIA   JABABEKA RAYA BLOK F 29-33,  CIKARANG BEKASI, WEST JAVA 17530 INDONESIA                                  B629186D       SAMSUNG MALAYSIA ELECTRONICS S/B   SUITE E-09-01, LEVEL 9 EAST WING, ICON JLN TUN RAZAK NO.1, JLN 1/68F 50400 KUALA LUMPUR                                                           120230103FCN09831322NCDCZHONG GU DA LIAN        00000000                        PKGMYJKTID                    00000000                                         0000              0000                     00000             ID0000593915000000000000005939150000056421925000023756600000478000000000011938000010000MYR20230104145620230103120020230109110220230103120000296957500000000000781229146337NOR NASRON BIN JIDIN               ASST.MANAGER        FREIGHT AND INSURANCES VALUE FOR CUSTOM PURPOSE ONLY                                                                                        1 X 40FT CONTR STC OF MOBILE ( INV 9101368430 ) PT OF                                                                                          0000        ARM0282187                                          0000              0000                                            
S11D 1B10202310170005400101MOBILE,SM-A135F/DS,BLACK,XME  SM-A135FZKJXME                          000000000ID00060000000000UNT00060000000000UNT0000004970000000298200000N00000000000000000000   0000000000231 00500000000000000000   0014910000056N00000000000000000000   0000000000 00000000000000000000   00000000000014910000000000000000000000000MYR00000000000MYR00000000000MYR00000000000MYR000000000000000   8517130000
S11D 1B10202310170005400102MOBILE,SM-A135F/DS,LIGHT B LUE,XME  SM-A135FLBJXME                    000000000ID00059500000000UNT00059500000000UNT0000004970000000295715000N00000000000000000000   0000000000231 00500000000000000000   0014785750056N00000000000000000000   0000000000 00000000000000000000   00000000000014785750000000000000000000000MYR00000000000MYR00000000000MYR00000000000MYR000000000000000   8517130000
S11R  B102023101700054001MOBILE,SM-A135F/DS,BLACK,XME  SM-A135FZKJXME                          MOBILE,SM-A135F/DS,LIGHT B LUE,XME  SM-A135FLBJXME                                                                                                                                                                                                                                                                                                                                                                                  
S11H  B1020231017000550002D I PT SAMSUNG ELECTRONICS INDONESIA   JABABEKA RAYA BLOK F 29-33,  CIKARANG BEKASI, WEST JAVA 17530 INDONESIA                                  B629186D       SAMSUNG MALAYSIA ELECTRONICS S/B   SUITE E-09-01, LEVEL 9 EAST WING, ICON JLN TUN RAZAK NO.1, JLN 1/68F 50400 KUALA LUMPUR                                                           120230103FCN09831322NCDCZHONG GU DA LIAN        00000000                        PKGMYJKTID                    00000000                                         0000              0000                     00000             ID0000131790000000000000001317900000012520050000005271600000094300000000002318000010000MYR20230104145820230103120020230109110220230103120000065895000000000000781229146337NOR NASRON BIN JIDIN               ASST.MANAGER        FREIGHT AND INSURANCES VALUE FOR CUSTOM PURPOSE ONLY                                                                                        1 X 40FT CONTR STC OF MOBILE ( INV 9101368430 ) PT OF                                                                                          0000        ARM0282187                                          0000              0000                                            
S11D 1B10202310170005500101MOBILE,SM-A235F/DS,BLACK,XME  SM-A235FZKGXME                          000000000ID00014000000000UNT00014000000000UNT0000005730000000080220000N00000000000000000000   0000000000231 00500000000000000000   0004011000056N00000000000000000000   0000000000 00000000000000000000   00000000000004011000000000000000000000000MYR00000000000MYR00000000000MYR00000000000MYR000000000000000   8517130000
S11D 1B10202310170005500102MOBILE,SM-A235F/DS,LIGHT B LUE,XME  SM-A235FLBGXME                    000000000ID00009000000000UNT00009000000000UNT0000005730000000051570000N00000000000000000000   0000000000231 00500000000000000000   0002578500056N00000000000000000000   0000000000 00000000000000000000   00000000000002578500000000000000000000000MYR00000000000MYR00000000000MYR00000000000MYR000000000000000   8517130000
S11R  B102023101700055001MOBILE,SM-A235F/DS,BLACK,XME  SM-A235FZKGXME                          MOBILE,SM-A235F/DS,LIGHT B LUE,XME  SM-A235FLBGXME                                                                                                                                                                                                                                                                                                                                                                                  
S11H  B1020231017000570001D S SAMSUNG ELECTRONICS HCMC CE COMPLEXCO. LTD. LO I-11, D2 ROAD, SAIGON HI-TECH PARK, TANG NHON PHU B WARD, DISTRICT 9, HO CHI MINH, VIETNAM   B629186D       SAMSUNG MALAYSIA ELECTRONICS S/B   SUITE E-09-01, LEVEL 9 EAST WING, ICON JLN TUN RAZAK NO.1, JLN 1/68F 50400 KUALA LUMPUR                                                           120230103FSG99286022NBUNWAN HAI 295             00000000                        PKGMYSGNVN                    00000000                                         0000              0000        3            00000             VN0000004636000000000000000046359600000440416200000185438000092400000000008651000010000MYR20230104152720230103120020230109110220230103120000004635950000000000840421085375LOH KAR KENG                       MANAGER             FREIGHT AND INSURANCE VALUE FOR CUSTOM PURPOSES ONLY                                                                                        1X40FT LED TV (INV: 9101374409) - PART OF                                                                                                      0000        039CX94724                                          0000              0000                                            
S11D 1B10202310170005700101UA43T6000AKXXM  COA: SJT161102026712022                               000000000VN00000840000000UNT00000840000000UNT0000005519000000004635960A00000000000000000000   0000000000227 01000000000000000000   0000463595027N00000000000000000000   0000000000 00000000000000000000   00000000000000463595000000000000000000000MYR00000000000MYR00000000000MYR00000000000MYR000000000000000   8528729200
S11R  B102023101700057001UA43T6000AKXXM  COA: SJT161102026712022                                                                                                                                                                                                                                                                                                                                                                                                                                                                   
S11H  B1020231017000580001D S SAMSUNG ELECTRONICS HCMC CE COMPLEXCO. LTD. LO I-11, D2 ROAD, SAIGON HI-TECH PARK, TANG NHON PHU B WARD, DISTRICT 9, HO CHI MINH, VIETNAM   B629186D       SAMSUNG MALAYSIA ELECTRONICS S/B   SUITE E-09-01, LEVEL 9 EAST WING, ICON JLN TUN RAZAK NO.1, JLN 1/68F 50400 KUALA LUMPUR                                                           120230103FSG99286022NBUNWAN HAI 295             00000000                        PKGMYSGNVN                    00000000                                         0000              0000        3            00000             VN0000022169000000000000000221689920002106054200000886760000497639990000049591000010000MYR20230104152820230103120020230109110220230103120000022169000000000000840421085375LOH KAR KENG                       MANAGER             FREIGHT AND INSURANCE VALUE FOR CUSTOM PURPOSES ONLY                                                                                        1X40FT LED TV (INV: 9101374409) - PART OF                                                                                                      0000        039CX94724                                          0000              0000                                            
S11D 1B10202310170005800101UA65AU7000KXXM  COA: SJT161109141162022                               000000000VN00001740000000UNT00001740000000UNT0000012740800000022168992A00000000000000000000   0000000000227 01000000000000000000   0002216900027N00000000000000000000   0000000000 00000000000000000000   00000000000002216900000000000000000000000MYR00000000000MYR00000000000MYR00000000000MYR000000000000000   8528729200
S11R  B102023101700058001UA65AU7000KXXM  COA: SJT161109141162022                                                                                                                                                                                                                                                                                                                                                                                                                                                                   
S11H  B1020231017000600003D I PT SAMSUNG ELECTRONICS INDONESIA   JABABEKA RAYA BLOK F 29-33,  CIKARANG BEKASI, WEST JAVA 17530 INDONESIA                                  B629186D       SAMSUNG MALAYSIA ELECTRONICS S/B   SUITE E-09-01, LEVEL 9 EAST WING, ICON JLN TUN RAZAK NO.1, JLN 1/68F 50400 KUALA LUMPUR                                                           120230103FCN09831322NCDCZHONG GU DA LIAN        00000000                        PKGMYJKTID                    00000000                                         0000              0000                     00000             ID0000182352000000000000001823520000017323440000007294080000157200000000003930000010000MYR20230104164620230103120020230109110220230103120000091176000000000000781229146337NOR NASRON BIN JIDIN               ASST.MANAGER        FREIGHT AND INSURANCES VALUE FOR CUSTOM PURPOSE ONLY                                                                                        1 X 20FT CONTR STC OF MOBILE ( INV 9101364759 ) PT OF                                                                                          0000        ARM0283338                                          0000              0000                                            
S11D 1B10202310170006000101MOBILE,SM-A135F/DS,BLACK,XME  SM-A135FZKJXME                          000000000ID00015000000000UNT00015000000000UNT0000004640000000069600000N00000000000000000000   0000000000231 00500000000000000000   0003480000056N00000000000000000000   0000000000 00000000000000000000   00000000000003480000000000000000000000000MYR00000000000MYR00000000000MYR00000000000MYR000000000000000   8517130000
S11D 1B10202310170006000102MOBILE,SM-A135F/DS,LIGHT B LUE,XME  SM-A135FLBJXME                    000000000ID00015000000000UNT00015000000000UNT0000004640000000069600000N00000000000000000000   0000000000231 00500000000000000000   0003480000056N00000000000000000000   0000000000 00000000000000000000   00000000000003480000000000000000000000000MYR00000000000MYR00000000000MYR00000000000MYR000000000000000   8517130000
S11D 1B10202310170006000103MOBILE,SM-A135F/DS,ORANGE,XME  SM-A135FZOJXME                         000000000ID00009300000000UNT00009300000000UNT0000004640000000043152000N00000000000000000000   0000000000231 00500000000000000000   0002157600056N00000000000000000000   0000000000 00000000000000000000   00000000000002157600000000000000000000000MYR00000000000MYR00000000000MYR00000000000MYR000000000000000   8517130000
S11R  B102023101700060001MOBILE,SM-A135F/DS,BLACK,XME  SM-A135FZKJXME                          MOBILE,SM-A135F/DS,LIGHT B LUE,XME  SM-A135FLBJXME                    MOBILE,SM-A135F/DS,ORANGE,XME  SM-A135FZOJXME                                                                                                                                                                                                                                                                                                                 
S11H  B1020231017000610004D I PT SAMSUNG ELECTRONICS INDONESIA   JABABEKA RAYA BLOK F 29-33,  CIKARANG BEKASI, WEST JAVA 17530 INDONESIA                                  B629186D       SAMSUNG MALAYSIA ELECTRONICS S/B   SUITE E-09-01, LEVEL 9 EAST WING, ICON JLN TUN RAZAK NO.1, JLN 1/68F 50400 KUALA LUMPUR                                                           120230103FCN09831322NCDCZHONG GU DA LIAN        00000000                        PKGMYJKTID                    00000000                                         0000              0000                     00000             ID0000276450000000000000002764500000026262750000011058000000198850000000004850000010000MYR20230104164920230103120020230109110220230103120000138225000000000000781229146337NOR NASRON BIN JIDIN               ASST.MANAGER        FREIGHT AND INSURANCES VALUE FOR CUSTOM PURPOSE ONLY                                                                                        1 X 20FT CONTR STC OF MOBILE ( INV 9101364759 ) PT OF                                                                                          0000        ARM0283338                                          0000              0000                                            
S11D 1B10202310170006100101MOBILE,SM-A235F/DS,BLACK,XME  SM-A235FZKHXME                          000000000ID00022100000000UNT00022100000000UNT0000005700000000125970000N00000000000000000000   0000000000231 00500000000000000000   0006298500056N00000000000000000000   0000000000 00000000000000000000   00000000000006298500000000000000000000000MYR00000000000MYR00000000000MYR00000000000MYR000000000000000   8517130000
S11D 1B10202310170006100102MOBILE,SM-A235F/DS,LIGHT B LUE,XME  SM-A235FLBHXME                    000000000ID00013800000000UNT00013800000000UNT0000005700000000078660000N00000000000000000000   0000000000231 00500000000000000000   0003933000056N00000000000000000000   0000000000 00000000000000000000   00000000000003933000000000000000000000000MYR00000000000MYR00000000000MYR00000000000MYR000000000000000   8517130000
S11D 1B10202310170006100103MOBILE,SM-A235F/DS,ORANGE,XME  SM-A235FZOHXME                         000000000ID00006000000000UNT00006000000000UNT0000005700000000034200000N00000000000000000000   0000000000231 00500000000000000000   0001710000056N00000000000000000000   0000000000 00000000000000000000   00000000000001710000000000000000000000000MYR00000000000MYR00000000000MYR00000000000MYR000000000000000   8517130000
S11D 1B10202310170006100104MOBILE,SM-A235F/DS,WHITE,XME  SM-A235FZWHXME                          000000000ID00006600000000UNT00006600000000UNT0000005700000000037620000N00000000000000000000   0000000000231 00500000000000000000   0001881000056N00000000000000000000   0000000000 00000000000000000000   00000000000001881000000000000000000000000MYR00000000000MYR00000000000MYR00000000000MYR000000000000000   8517130000
S11R  B102023101700061001MOBILE,SM-A235F/DS,BLACK,XME  SM-A235FZKHXME                          MOBILE,SM-A235F/DS,LIGHT B LUE,XME  SM-A235FLBHXME                    MOBILE,SM-A235F/DS,ORANGE,XME  SM-A235FZOHXME                         MOBILE,SM-A235F/DS,WHITE,XME  SM-A235FZWHXME                                                                                                                                                                                                                                            
S11H  B1020231017000800001D S SAMSUNG ELECTRONICS HCMC CE COMPLEXCO. LTD. LO I-11, D2 ROAD, SAIGON HI-TECH PARK, TANG NHON PHU B WARD, DISTRICT 9, HO CHI MINH, VIETNAM   B629186D       SAMSUNG MALAYSIA ELECTRONICS S/B   SUITE E-09-01, LEVEL 9 EAST WING, ICON JLN TUN RAZAK NO.1, JLN 1/68F 50400 KUALA LUMPUR                                                           120230103FSG99286022NBUNWAN HAI 295             00000000                        PKGMYSGNVN                    00000000                                         0000              0000        3            00000             VN0000009897000000000000000098970000000940215000000395880000060299900000006300000010000MYR20230105095020230103120020230109110220230103120000004948500000000000840421085375LOH KAR KENG                       MANAGER             FREIGHT AND INSURANCE VALUE FOR CUSTOM PURPOSES ONLY                                                                                        2X40FT LED MON & LED TV (INV: 9101371191) - PART OF                                                                                            0000        039CX91734                                          0000              0000                                            
S11D 1B10202310170008000101LS49A950UIEXXS                                                        000000000VN00000300000000UNT00000300000000UNT0000032990000000009897000A00000000000000000000   0000000000227 00500000000000000000   0000494850027N00000000000000000000   0000000000 00000000000000000000   00000000000000494850000000000000000000000MYR00000000000MYR00000000000MYR00000000000MYR000000000000000   8528591000
S11R  B102023101700080001LS49A950UIEXXS                                                                                                                                                                                                                                                                                                                                                                                                                                                                                            
S11H  B1020231017000810001D S SAMSUNG ELECTRONICS HCMC CE COMPLEXCO. LTD. LO I-11, D2 ROAD, SAIGON HI-TECH PARK, TANG NHON PHU B WARD, DISTRICT 9, HO CHI MINH, VIETNAM   B629186D       SAMSUNG MALAYSIA ELECTRONICS S/B   SUITE E-09-01, LEVEL 9 EAST WING, ICON JLN TUN RAZAK NO.1, JLN 1/68F 50400 KUALA LUMPUR                                                           120230103FSG99286022NBUNWAN HAI 295             00000000                        PKGMYSGNVN                    00000000                                         0000              0000        3            00000             VN0000064190900000000000000641908540006098131100002567634001119100100000106856000010000MYR20230105095220230103120020230109110220230103120000064190850000000000840421085375LOH KAR KENG                       MANAGER             FREIGHT AND INSURANCE VALUE FOR CUSTOM PURPOSES ONLY                                                                                        2X40FT LED MON & LED TV (INV: 9101371191) - PART OF                                                                                            0000        039CX91734                                          0000              0000                                            
S11D 1B10202310170008100101UA50AU7000KXXM  COA: SJT161101003722022                               000000000VN00007220000000UNT00007220000000UNT0000008890700000064190854A00000000000000000000   0000000000227 01000000000000000000   0006419085027N00000000000000000000   0000000000 00000000000000000000   00000000000006419085000000000000000000000MYR00000000000MYR00000000000MYR00000000000MYR000000000000000   8528729200
S11R  B102023101700081001UA50AU7000KXXM  COA: SJT161101003722022                                                                                                                                                                                                                                                                                                                                                                                                                                                                   
S11H  B1020231017000820001D S SAMSUNG ELECTRONICS HCMC CE COMPLEXCO. LTD. LO I-11, D2 ROAD, SAIGON HI-TECH PARK, TANG NHON PHU B WARD, DISTRICT 9, HO CHI MINH, VIETNAM   B629186D       SAMSUNG MALAYSIA ELECTRONICS S/B   SUITE E-09-01, LEVEL 9 EAST WING, ICON JLN TUN RAZAK NO.1, JLN 1/68F 50400 KUALA LUMPUR                                                           120230103FSG99286022NBUNWAN HAI 295             00000000                        PKGMYSGNVN                    00000000                                         0000              0000        3            00000             VN0000002765400000000000000027654000000262713000000110616000021000000000001620000010000MYR20230105095820230103120020230109110220230103120000001382700000000000840421085375LOH KAR KENG                       MANAGER             FREIGHT AND INSURANCE VALUE FOR CUSTOM PURPOSES ONLY                                                                                        4X40FT LED MON, LED TV, LFD & QLED TV (INV: 9101372799) - PART OF                                                                              0000        039CX90953                                          0000              0000                                            
S11D 1B10202310170008200101LS27BG400EEXXS                                                        000000000VN00000300000000UNT00000300000000UNT0000009218000000002765400A00000000000000000000   0000000000227 00500000000000000000   0000138270027N00000000000000000000   0000000000 00000000000000000000   00000000000000138270000000000000000000000MYR00000000000MYR00000000000MYR00000000000MYR000000000000000   8528591000
S11R  B102023101700082001LS27BG400EEXXS                                                                                                                                                                                                                                                                                                                                                                                                                                                                                            
S11H  B1020231017000830001D S SAMSUNG ELECTRONICS HCMC CE COMPLEXCO. LTD. LO I-11, D2 ROAD, SAIGON HI-TECH PARK, TANG NHON PHU B WARD, DISTRICT 9, HO CHI MINH, VIETNAM   B629186D       SAMSUNG MALAYSIA ELECTRONICS S/B   SUITE E-09-01, LEVEL 9 EAST WING, ICON JLN TUN RAZAK NO.1, JLN 1/68F 50400 KUALA LUMPUR                                                           120230103FSG99286022NBUNWAN HAI 295             00000000                        PKGMYSGNVN                    00000000                                         0000              0000        3            00000             VN0000004257400000000000000042574400000404456800000170298000048790000000003895000010000MYR20230105095920230103120020230109110220230103120000004257450000000000840421085375LOH KAR KENG                       MANAGER             FREIGHT AND INSURANCE VALUE FOR CUSTOM PURPOSES ONLY                                                                                        4X40FT LED MON, LED TV, LFD & QLED TV (INV: 9101372799) - PART OF                                                                              0000        039CX90953                                          0000              0000                                            
S11D 1B10202310170008300101HG43AU800AWXXM  COA: SJT161101011662022                               000000000VN00000410000000UNT00000410000000UNT0000010384000000004257440A00000000000000000000   0000000000227 01000000000000000000   0000425745027N00000000000000000000   0000000000 00000000000000000000   00000000000000425745000000000000000000000MYR00000000000MYR00000000000MYR00000000000MYR000000000000000   8528729200
S11R  B102023101700083001HG43AU800AWXXM  COA: SJT161101011662022                                                                                                                                                                                                                                                                                                                                                                                                                                                                   
S11H  B1020231017000840001D S SAMSUNG ELECTRONICS HCMC CE COMPLEXCO. LTD. LO I-11, D2 ROAD, SAIGON HI-TECH PARK, TANG NHON PHU B WARD, DISTRICT 9, HO CHI MINH, VIETNAM   B629186D       SAMSUNG MALAYSIA ELECTRONICS S/B   SUITE E-09-01, LEVEL 9 EAST WING, ICON JLN TUN RAZAK NO.1, JLN 1/68F 50400 KUALA LUMPUR                                                           120230103FSG99286022NBUNWAN HAI 295             00000000                        PKGMYSGNVN                    00000000                                         0000              0000        3            00000             VN0000012801200000000000000128012400001216117800000512050000205199900000018719000010000MYR20230105100120230103120020230109110220230103120000012801250000000000840421085375LOH KAR KENG                       MANAGER             FREIGHT AND INSURANCE VALUE FOR CUSTOM PURPOSES ONLY                                                                                        4X40FT LED MON, LED TV, LFD & QLED TV (INV: 9101372799) - PART OF                                                                              0000        039CX90953                                          0000              0000                                            
S11D 1B10202310170008400101UA43AU7000KXXM  COA: SJT161101003682022                               000000000VN00001800000000UNT00001800000000UNT0000007111800000012801240A00000000000000000000   0000000000227 01000000000000000000   0001280125027N00000000000000000000   0000000000 00000000000000000000   00000000000001280125000000000000000000000MYR00000000000MYR00000000000MYR00000000000MYR000000000000000   8528729200
S11R  B102023101700084001UA43AU7000KXXM  COA: SJT161101003682022                                                                                                                                                                                                                                                                                                                                                                                                                                                                   
S11H  B1020231017000850001D S SAMSUNG ELECTRONICS HCMC CE COMPLEXCO. LTD. LO I-11, D2 ROAD, SAIGON HI-TECH PARK, TANG NHON PHU B WARD, DISTRICT 9, HO CHI MINH, VIETNAM   B629186D       SAMSUNG MALAYSIA ELECTRONICS S/B   SUITE E-09-01, LEVEL 9 EAST WING, ICON JLN TUN RAZAK NO.1, JLN 1/68F 50400 KUALA LUMPUR                                                           120230103FSG99286022NBUNWAN HAI 295             00000000                        PKGMYSGNVN                    00000000                                         0000              0000        3            00000             VN0000001664400000000000000016643710000158115200000066575000027900000000002664000010000MYR20230105100220230103120020230109110220230103120000001664350000000000840421085375LOH KAR KENG                       MANAGER             FREIGHT AND INSURANCE VALUE FOR CUSTOM PURPOSES ONLY                                                                                        4X40FT LED MON, LED TV, LFD & QLED TV (INV: 9101372799) - PART OF                                                                              0000        039CX90953                                          0000              0000                                            
S11D 1B10202310170008500101UA50AU7700KXXM  COA: SJT161102026772022                               000000000VN00000180000000UNT00000180000000UNT0000009246500000001664370A00000000000000000000   0000000000227 01000000000000000000   0000166435027N00000000000000000000   0000000000 00000000000000000000   00000000000000166435000000000000000000000MYR00000000000MYR00000000000MYR00000000000MYR000000000000000   8528729200
S11R  B102023101700085001UA50AU7700KXXM  COA: SJT161102026772022                                                                                                                                                                                                                                                                                                                                                                                                                                                                   
S11H  B1020231017000860001D S SAMSUNG ELECTRONICS HCMC CE COMPLEXCO. LTD. LO I-11, D2 ROAD, SAIGON HI-TECH PARK, TANG NHON PHU B WARD, DISTRICT 9, HO CHI MINH, VIETNAM   B629186D       SAMSUNG MALAYSIA ELECTRONICS S/B   SUITE E-09-01, LEVEL 9 EAST WING, ICON JLN TUN RAZAK NO.1, JLN 1/68F 50400 KUALA LUMPUR                                                           120230103FSG99286022NBUNWAN HAI 295             00000000                        PKGMYSGNVN                    00000000                                         0000              0000        3            00000             VN0000001280300000000000000012803400000121632300000051214000025559900000002615000010000MYR20230105100520230103120020230109110220230103120000001280350000000000840421085375LOH KAR KENG                       MANAGER             FREIGHT AND INSURANCE VALUE FOR CUSTOM PURPOSES ONLY                                                                                        4X40FT LED MON, LED TV, LFD & QLED TV (INV: 9101372799) - PART OF                                                                              0000        039CX90953                                          0000              0000                                            
S11D 1B10202310170008600101UA58AU7000KXXM                                                        000000000VN00000120000000UNT00000120000000UNT0000010669500000001280340A00000000000000000000   0000000000227 01000000000000000000   0000128035027N00000000000000000000   0000000000 00000000000000000000   00000000000000128035000000000000000000000MYR00000000000MYR00000000000MYR00000000000MYR000000000000000   8528729200
S11R  B102023101700086001UA58AU7000KXXM                                                                                                                                                                                                                                                                                                                                                                                                                                                                                            
S11H  B1020231017000870001D S SAMSUNG ELECTRONICS HCMC CE COMPLEXCO. LTD. LO I-11, D2 ROAD, SAIGON HI-TECH PARK, TANG NHON PHU B WARD, DISTRICT 9, HO CHI MINH, VIETNAM   B629186D       SAMSUNG MALAYSIA ELECTRONICS S/B   SUITE E-09-01, LEVEL 9 EAST WING, ICON JLN TUN RAZAK NO.1, JLN 1/68F 50400 KUALA LUMPUR                                                           120230103FSG99286022NBUNWAN HAI 295             00000000                        PKGMYSGNVN                    00000000                                         0000              0000        3            00000             VN0000003822200000000000000038222400000363112800000152890000085800000000008550000010000MYR20230105100720230103120020230109110220230103120000003822250000000000840421085375LOH KAR KENG                       MANAGER             FREIGHT AND INSURANCE VALUE FOR CUSTOM PURPOSES ONLY                                                                                        4X40FT LED MON, LED TV, LFD & QLED TV (INV: 9101372799) - PART OF                                                                              0000        039CX90953                                          0000              0000                                            
S11D 1B10202310170008700101UA65AU7000KXXM  COA: SJT161109141162022                               000000000VN00000300000000UNT00000300000000UNT0000012740800000003822240A00000000000000000000   0000000000227 01000000000000000000   0000382225027N00000000000000000000   0000000000 00000000000000000000   00000000000000382225000000000000000000000MYR00000000000MYR00000000000MYR00000000000MYR000000000000000   8528729200
S11R  B102023101700087001UA65AU7000KXXM  COA: SJT161109141162022                                                                                                                                                                                                                                                                                                                                                                                                                                                                   
S11H  B1020231017000880001D S SAMSUNG ELECTRONICS HCMC CE COMPLEXCO. LTD. LO I-11, D2 ROAD, SAIGON HI-TECH PARK, TANG NHON PHU B WARD, DISTRICT 9, HO CHI MINH, VIETNAM   B629186D       SAMSUNG MALAYSIA ELECTRONICS S/B   SUITE E-09-01, LEVEL 9 EAST WING, ICON JLN TUN RAZAK NO.1, JLN 1/68F 50400 KUALA LUMPUR                                                           120230103FSG99286022NBUNWAN HAI 295             00000000                        PKGMYSGNVN                    00000000                                         0000              0000        3            00000             VN0000015124400000000000000151244380001436821600000604978000281260690000024603000010000MYR20230105100920230103120020230109110220230103120000015124450000000000840421085375LOH KAR KENG                       MANAGER             FREIGHT AND INSURANCE VALUE FOR CUSTOM PURPOSES ONLY                                                                                        4X40FT LED MON, LED TV, LFD & QLED TV (INV: 9101372799) - PART OF                                                                              0000        039CX90953                                          0000              0000                                            
S11D 1B10202310170008800101UA65BU8500KXXM  COA: SJT161101009002022                               000000000VN00000980000000UNT00000980000000UNT0000015433100000015124438A00000000000000000000   0000000000227 01000000000000000000   0001512445027N00000000000000000000   0000000000 00000000000000000000   00000000000001512445000000000000000000000MYR00000000000MYR00000000000MYR00000000000MYR000000000000000   8528729200
S11R  B102023101700088001UA65BU8500KXXM  COA: SJT161101009002022                                                                                                                                                                                                                                                                                                                                                                                                                                                                   
S11H  B1020231017000900001D S SAMSUNG ELECTRONICS HCMC CE COMPLEXCO. LTD. LO I-11, D2 ROAD, SAIGON HI-TECH PARK, TANG NHON PHU B WARD, DISTRICT 9, HO CHI MINH, VIETNAM   B629186D       SAMSUNG MALAYSIA ELECTRONICS S/B   SUITE E-09-01, LEVEL 9 EAST WING, ICON JLN TUN RAZAK NO.1, JLN 1/68F 50400 KUALA LUMPUR                                                           120230103FSG99286022NBUNWAN HAI 295             00000000                        PKGMYSGNVN                    00000000                                         0000              0000        3            00000             VN0000008536800000000000000085367520000810991400000341470000163200000000016464000010000MYR20230105101020230103120020230109110220230103120000008536750000000000840421085375LOH KAR KENG                       MANAGER             FREIGHT AND INSURANCE VALUE FOR CUSTOM PURPOSES ONLY                                                                                        4X40FT LED MON, LED TV, LFD & QLED TV (INV: 9101372799) - PART OF                                                                              0000        039CX90953                                          0000              0000                                            
S11D 1B10202310170009000101UA70AU7000KXXM  COA: SJT161109141172022                               000000000VN00000480000000UNT00000480000000UNT0000017784900000008536752A00000000000000000000   0000000000227 01000000000000000000   0000853675027N00000000000000000000   0000000000 00000000000000000000   00000000000000853675000000000000000000000MYR00000000000MYR00000000000MYR00000000000MYR000000000000000   8528729200
S11R  B102023101700090001UA70AU7000KXXM  COA: SJT161109141172022                                                                                                                                                                                                                                                                                                                                                                                                                                                                   
S11H  B1020231017000910001D S SAMSUNG ELECTRONICS HCMC CE COMPLEXCO. LTD. LO I-11, D2 ROAD, SAIGON HI-TECH PARK, TANG NHON PHU B WARD, DISTRICT 9, HO CHI MINH, VIETNAM   B629186D       SAMSUNG MALAYSIA ELECTRONICS S/B   SUITE E-09-01, LEVEL 9 EAST WING, ICON JLN TUN RAZAK NO.1, JLN 1/68F 50400 KUALA LUMPUR                                                           120230103FSG99286022NBUNWAN HAI 295             00000000                        PKGMYSGNVN                    00000000                                         0000              0000        3            00000             VN0000007626200000000000000076262040000724489400000305048000134640000000012348000010000MYR20230105101120230103120020230109110220230103120000007626200000000000840421085375LOH KAR KENG                       MANAGER             FREIGHT AND INSURANCE VALUE FOR CUSTOM PURPOSES ONLY                                                                                        4X40FT LED MON, LED TV, LFD & QLED TV (INV: 9101372799) - PART OF                                                                              0000        039CX90953                                          0000              0000                                            
S11D 1B10202310170009100101UA70BU8000KXXM  COA: SJT161102016782022                               000000000VN00000360000000UNT00000360000000UNT0000021183900000007626204A00000000000000000000   0000000000227 01000000000000000000   0000762620027N00000000000000000000   0000000000 00000000000000000000   00000000000000762620000000000000000000000MYR00000000000MYR00000000000MYR00000000000MYR000000000000000   8528729200
S11R  B102023101700091001UA70BU8000KXXM  COA: SJT161102016782022                                                                                                                                                                                                                                                                                                                                                                                                                                                                   
S11H  B1020231017000920001D S SAMSUNG ELECTRONICS HCMC CE COMPLEXCO. LTD. LO I-11, D2 ROAD, SAIGON HI-TECH PARK, TANG NHON PHU B WARD, DISTRICT 9, HO CHI MINH, VIETNAM   B629186D       SAMSUNG MALAYSIA ELECTRONICS S/B   SUITE E-09-01, LEVEL 9 EAST WING, ICON JLN TUN RAZAK NO.1, JLN 1/68F 50400 KUALA LUMPUR                                                           120230103FSG99286022NBUNWAN HAI 295             00000000                        PKGMYSGNVN                    00000000                                         0000              0000        3            00000             VN0000007843500000000000000078435000000745132500000313740000146649800000014245000010000MYR20230105101420230103120020230109110220230103120000007843500000000000840421085375LOH KAR KENG                       MANAGER             FREIGHT AND INSURANCE VALUE FOR CUSTOM PURPOSES ONLY                                                                                        4X40FT LED MON, LED TV, LFD & QLED TV (INV: 9101372799) - PART OF                                                                              0000        039CX90953                                          0000              0000                                            
S11D 1B10202310170009200101UA75AU7000KXXM  COA: SJT161112178692021                               000000000VN00000350000000UNT00000350000000UNT0000022410000000007843500A00000000000000000000   0000000000227 01000000000000000000   0000784350027N00000000000000000000   0000000000 00000000000000000000   00000000000000784350000000000000000000000MYR00000000000MYR00000000000MYR00000000000MYR000000000000000   8528729200
S11R  B102023101700092001UA75AU7000KXXM  COA: SJT161112178692021                                                                                                                                                                                                                                                                                                                                                                                                                                                                   
S11H  B1020231017000930001D S SAMSUNG ELECTRONICS HCMC CE COMPLEXCO. LTD. LO I-11, D2 ROAD, SAIGON HI-TECH PARK, TANG NHON PHU B WARD, DISTRICT 9, HO CHI MINH, VIETNAM   B629186D       SAMSUNG MALAYSIA ELECTRONICS S/B   SUITE E-09-01, LEVEL 9 EAST WING, ICON JLN TUN RAZAK NO.1, JLN 1/68F 50400 KUALA LUMPUR                                                           120230103FSG99286022NBUNWAN HAI 295             00000000                        PKGMYSGNVN                    00000000                                         0000              0000        3            00000             VN0000009106300000000000000091062800000865096600000364251000167600000000016280000010000MYR20230105101820230103120020230109110220230103120000009106300000000000840421085375LOH KAR KENG                       MANAGER             FREIGHT AND INSURANCE VALUE FOR CUSTOM PURPOSES ONLY                                                                                        4X40FT LED MON, LED TV, LFD & QLED TV (INV: 9101372799) - PART OF                                                                              0000        039CX90953                                          0000              0000                                            
S11D 1B10202310170009300101UA75AU7700KXXM  COA: SJT161101002762022                               000000000VN00000400000000UNT00000400000000UNT0000022765700000009106280A00000000000000000000   0000000000227 01000000000000000000   0000910630027N00000000000000000000   0000000000 00000000000000000000   00000000000000910630000000000000000000000MYR00000000000MYR00000000000MYR00000000000MYR000000000000000   8528729200
S11R  B102023101700093001UA75AU7700KXXM  COA: SJT161101002762022                                                                                                                                                                                                                                                                                                                                                                                                                                                                   
S11H  B1020231017000940001D S SAMSUNG ELECTRONICS HCMC CE COMPLEXCO. LTD. LO I-11, D2 ROAD, SAIGON HI-TECH PARK, TANG NHON PHU B WARD, DISTRICT 9, HO CHI MINH, VIETNAM   B629186D       SAMSUNG MALAYSIA ELECTRONICS S/B   SUITE E-09-01, LEVEL 9 EAST WING, ICON JLN TUN RAZAK NO.1, JLN 1/68F 50400 KUALA LUMPUR                                                           120230103FSG99286022NBUNWAN HAI 295             00000000                        PKGMYSGNVN                    00000000                                         0000              0000        3            00000             VN0000003631700000000000000036317400000345015300000145270000055300000000005680000010000MYR20230105102120230103120020230109110220230103120000003631750000000000840421085375LOH KAR KENG                       MANAGER             FREIGHT AND INSURANCE VALUE FOR CUSTOM PURPOSES ONLY                                                                                        4X40FT LED MON, LED TV, LFD & QLED TV (INV: 9101372799) - PART OF                                                                              0000        039CX90953                                          0000              0000                                            
S11D 1B10202310170009400101UA85BU8000KXXM  COA: SJT161112189112021                               000000000VN00000100000000UNT00000100000000UNT0000036317400000003631740A00000000000000000000   0000000000227 01000000000000000000   0000363175027N00000000000000000000   0000000000 00000000000000000000   00000000000000363175000000000000000000000MYR00000000000MYR00000000000MYR00000000000MYR000000000000000   8528729200
S11R  B102023101700094001UA85BU8000KXXM  COA: SJT161112189112021                                                                                                                                                                                                                                                                                                                                                                                                                                                                   
S11H  B1020231017000950001D S SAMSUNG ELECTRONICS HCMC CE COMPLEXCO. LTD. LO I-11, D2 ROAD, SAIGON HI-TECH PARK, TANG NHON PHU B WARD, DISTRICT 9, HO CHI MINH, VIETNAM   B629186D       SAMSUNG MALAYSIA ELECTRONICS S/B   SUITE E-09-01, LEVEL 9 EAST WING, ICON JLN TUN RAZAK NO.1, JLN 1/68F 50400 KUALA LUMPUR                                                           120230103FSG99286022NBUNWAN HAI 295             00000000                        PKGMYSGNVN                    00000000                                         0000              0000        3            00000             VN0000001680000000000000000016800000000159600000000067200000013000000000000828000010000MYR20230105102320230103120020230109110220230103120000000840000000000000840421085375LOH KAR KENG                       MANAGER             FREIGHT AND INSURANCE VALUE FOR CUSTOM PURPOSES ONLY                                                                                        4X40FT LED MON, LED TV, LFD & QLED TV (INV: 9101372799) - PART OF                                                                              0000        039CX90953                                          0000              0000                                            
S11D 1B10202310170009500101LH55QMBTBGCXXS                                                        000000000VN00000040000000UNT00000040000000UNT0000042000000000001680000A00000000000000000000   0000000000227 00500000000000000000   0000084000027N00000000000000000000   0000000000 00000000000000000000   00000000000000084000000000000000000000000MYR00000000000MYR00000000000MYR00000000000MYR000000000000000   8528591000
S11R  B102023101700095001LH55QMBTBGCXXS                                                                                                                                                                                                                                                                                                                                                                                                                                                                                            
S11H  B1020231017000970001D S SAMSUNG ELECTRONICS HCMC CE COMPLEXCO. LTD. LO I-11, D2 ROAD, SAIGON HI-TECH PARK, TANG NHON PHU B WARD, DISTRICT 9, HO CHI MINH, VIETNAM   B629186D       SAMSUNG MALAYSIA ELECTRONICS S/B   SUITE E-09-01, LEVEL 9 EAST WING, ICON JLN TUN RAZAK NO.1, JLN 1/68F 50400 KUALA LUMPUR                                                           120230103FSG99286022NBUNWAN HAI 295             00000000                        PKGMYSGNVN                    00000000                                         0000              0000        3            00000             VN0000000698800000000000000006988100000066387000000027952000007219900000000650000010000MYR20230105102820230103120020230109110220230103120000000349400000000000840421085375LOH KAR KENG                       MANAGER             FREIGHT AND INSURANCE VALUE FOR CUSTOM PURPOSES ONLY                                                                                        4X40FT LED MON, LED TV, LFD & QLED TV (INV: 9101372799) - PART OF                                                                              0000        039CX90953                                          0000              0000                                            
S11D 1B10202310170009700101LH75WMBWLGCXXS                                                        000000000VN00000010000000UNT00000010000000UNT0000069881000000000698810A00000000000000000000   0000000000227 00500000000000000000   0000034940027N00000000000000000000   0000000000 00000000000000000000   00000000000000034940000000000000000000000MYR00000000000MYR00000000000MYR00000000000MYR000000000000000   8528591000
S11R  B102023101700097001LH75WMBWLGCXXS                                                                                                                                                                                                                                                                                                                                                                                                                                                                                            
S11H  B1020231017000980001D S SAMSUNG ELECTRONICS HCMC CE COMPLEXCO. LTD. LO I-11, D2 ROAD, SAIGON HI-TECH PARK, TANG NHON PHU B WARD, DISTRICT 9, HO CHI MINH, VIETNAM   B629186D       SAMSUNG MALAYSIA ELECTRONICS S/B   SUITE E-09-01, LEVEL 9 EAST WING, ICON JLN TUN RAZAK NO.1, JLN 1/68F 50400 KUALA LUMPUR                                                           120230103FSG99286022NBUNWAN HAI 295             00000000                        PKGMYSGNVN                    00000000                                         0000              0000        3            00000             VN0000005126400000000000000051264000000487008000000205056000050960000000005423000010000MYR20230105102920230103120020230109110220230103120000002563200000000000840421085375LOH KAR KENG                       MANAGER             FREIGHT AND INSURANCE VALUE FOR CUSTOM PURPOSES ONLY                                                                                        4X40FT LED MON, LED TV, LFD & QLED TV (INV: 9101372799) - PART OF                                                                              0000        039CX90953                                          0000              0000                                            
S11D 1B10202310170009800101LH85QMRBBGCXXS                                                        000000000VN00000080000000UNT00000080000000UNT0000064080000000005126400A00000000000000000000   0000000000227 00500000000000000000   0000256320027N00000000000000000000   0000000000 00000000000000000000   00000000000000256320000000000000000000000MYR00000000000MYR00000000000MYR00000000000MYR000000000000000   8528591000
S11R  B102023101700098001LH85QMRBBGCXXS                                                                                                                                                                                                                                                                                                                                                                                                                                                                                            
S11H  B1020231017000990001D S SAMSUNG ELECTRONICS HCMC CE COMPLEXCO. LTD. LO I-11, D2 ROAD, SAIGON HI-TECH PARK, TANG NHON PHU B WARD, DISTRICT 9, HO CHI MINH, VIETNAM   B629186D       SAMSUNG MALAYSIA ELECTRONICS S/B   SUITE E-09-01, LEVEL 9 EAST WING, ICON JLN TUN RAZAK NO.1, JLN 1/68F 50400 KUALA LUMPUR                                                           120230103FSG99286022NBUNWAN HAI 295             00000000                        PKGMYSGNVN                    00000000                                         0000              0000        3            00000             VN0000002673300000000000000026733000000253963500000106932000027480000000002196000010000MYR20230105103120230103120020230109110220230103120000001336650000000000840421085375LOH KAR KENG                       MANAGER             FREIGHT AND INSURANCE VALUE FOR CUSTOM PURPOSES ONLY                                                                                        4X40FT LED MON, LED TV, LFD & QLED TV (INV: 9101372799) - PART OF                                                                              0000        039CX90953                                          0000              0000                                            
S11D 1B10202310170009900101LH85WMBWLGCXXS                                                        000000000VN00000030000000UNT00000030000000UNT0000089110000000002673300A00000000000000000000   0000000000227 00500000000000000000   0000133665027N00000000000000000000   0000000000 00000000000000000000   00000000000000133665000000000000000000000MYR00000000000MYR00000000000MYR00000000000MYR000000000000000   8528591000
S11R  B102023101700099001LH85WMBWLGCXXS                                                                                                                                                                                                                                                                                                                                                                                                                                                                                            
S11H  B1020231017001000001D S SAMSUNG ELECTRONICS HCMC CE COMPLEXCO. LTD. LO I-11, D2 ROAD, SAIGON HI-TECH PARK, TANG NHON PHU B WARD, DISTRICT 9, HO CHI MINH, VIETNAM   B629186D       SAMSUNG MALAYSIA ELECTRONICS S/B   SUITE E-09-01, LEVEL 9 EAST WING, ICON JLN TUN RAZAK NO.1, JLN 1/68F 50400 KUALA LUMPUR                                                           120230103FSG99286022NBUNWAN HAI 295             00000000                        PKGMYSGNVN                    00000000                                         0000              0000        3            00000             VN0000001821000000000000000018209760000172992700000072839000019040000000001520000010000MYR20230105103320230103120020230109110220230103120000001821000000000000840421085375LOH KAR KENG                       MANAGER             FREIGHT AND INSURANCE VALUE FOR CUSTOM PURPOSES ONLY                                                                                        4X40FT LED MON, LED TV, LFD & QLED TV (INV: 9101372799) - PART OF                                                                              0000        039CX90953                                          0000              0000                                            
S11D 1B10202310170010000101QA43Q65BAKXXM  COA: SJT161101009402022                                000000000VN00000160000000UNT00000160000000UNT0000011381100000001820976A00000000000000000000   0000000000227 01000000000000000000   0000182100027N00000000000000000000   0000000000 00000000000000000000   00000000000000182100000000000000000000000MYR00000000000MYR00000000000MYR00000000000MYR000000000000000   8528729200
S11R  B102023101700100001QA43Q65BAKXXM  COA: SJT161101009402022                                                                                                                                                                                                                                                                                                                                                                                                                                                                    
S11H  B1020231017001010001D S SAMSUNG ELECTRONICS HCMC CE COMPLEXCO. LTD. LO I-11, D2 ROAD, SAIGON HI-TECH PARK, TANG NHON PHU B WARD, DISTRICT 9, HO CHI MINH, VIETNAM   B629186D       SAMSUNG MALAYSIA ELECTRONICS S/B   SUITE E-09-01, LEVEL 9 EAST WING, ICON JLN TUN RAZAK NO.1, JLN 1/68F 50400 KUALA LUMPUR                                                           120230103FSG99286022NBUNWAN HAI 295             00000000                        PKGMYSGNVN                    00000000                                         0000              0000        3            00000             VN0000001553000000000000000015529690000147532000000062119000021180000000002315000010000MYR20230105103420230103120020230109110220230103120000001552950000000000840421085375LOH KAR KENG                       MANAGER             FREIGHT AND INSURANCE VALUE FOR CUSTOM PURPOSES ONLY                                                                                        4X40FT LED MON, LED TV, LFD & QLED TV (INV: 9101372799) - PART OF                                                                              0000        039CX90953                                          0000              0000                                            
S11D 1B10202310170010100101QA55LS01BAKXXM  COA: SJT161102025412022                               000000000VN00000060000000UNT00000060000000UNT0000025882800000001552968A00000000000000000000   0000000000227 01000000000000000000   0000155295027N00000000000000000000   0000000000 00000000000000000000   00000000000000155295000000000000000000000MYR00000000000MYR00000000000MYR00000000000MYR000000000000000   8528729200
S11R  B102023101700101001QA55LS01BAKXXM  COA: SJT161102025412022                                                                                                                                                                                                                                                                                                                                                                                                                                                                   
S11H  B1020231017001020001D S SAMSUNG ELECTRONICS HCMC CE COMPLEXCO. LTD. LO I-11, D2 ROAD, SAIGON HI-TECH PARK, TANG NHON PHU B WARD, DISTRICT 9, HO CHI MINH, VIETNAM   B629186D       SAMSUNG MALAYSIA ELECTRONICS S/B   SUITE E-09-01, LEVEL 9 EAST WING, ICON JLN TUN RAZAK NO.1, JLN 1/68F 50400 KUALA LUMPUR                                                           120230103FSG99286022NBUNWAN HAI 295             00000000                        PKGMYSGNVN                    00000000                                         0000              0000        3            00000             VN0000016391300000000000000163913040001557173900000655652000207360010000018072000010000MYR20230105103920230103120020230109110220230103120000016391300000000000840421085375LOH KAR KENG                       MANAGER             FREIGHT AND INSURANCE VALUE FOR CUSTOM PURPOSES ONLY                                                                                        4X40FT LED MON, LED TV, LFD & QLED TV (INV: 9101372799) - PART OF                                                                              0000        039CX90953                                          0000              0000                                            
S11D 1B10202310170010200101QA65Q65BAKXXM  COA: SJT161102025412022                                000000000VN00000720000000UNT00000720000000UNT0000022765700000016391304A00000000000000000000   0000000000227 01000000000000000000   0001639130027N00000000000000000000   0000000000 00000000000000000000   00000000000001639130000000000000000000000MYR00000000000MYR00000000000MYR00000000000MYR000000000000000   8528729200
S11R  B102023101700102001QA65Q65BAKXXM  COA: SJT161102025412022                                                                                                                                                                                                                                                                                                                                                                                                                                                                    
S11H  B1020231017001030001D S SAMSUNG ELECTRONICS HCMC CE COMPLEXCO. LTD. LO I-11, D2 ROAD, SAIGON HI-TECH PARK, TANG NHON PHU B WARD, DISTRICT 9, HO CHI MINH, VIETNAM   B629186D       SAMSUNG MALAYSIA ELECTRONICS S/B   SUITE E-09-01, LEVEL 9 EAST WING, ICON JLN TUN RAZAK NO.1, JLN 1/68F 50400 KUALA LUMPUR                                                           120230103FSG99286022NBUNWAN HAI 295             00000000                        PKGMYSGNVN                    00000000                                         0000              0000        3            00000             VN0000014534200000000000000145341750001380746600000581367000234750000000023700000010000MYR20230105104320230103120020230109110220230103120000014534200000000000840421085375LOH KAR KENG                       MANAGER             FREIGHT AND INSURANCE VALUE FOR CUSTOM PURPOSES ONLY                                                                                        4X40FT LED MON, LED TV, LFD & QLED TV (INV: 9101372799) - PART OF                                                                              0000        039CX90953                                          0000              0000                                            
S11D 1B10202310170010300101QA65Q70BAKXXM  COA: SJT161101009322022                                000000000VN00000750000000UNT00000750000000UNT0000019378900000014534175A00000000000000000000   0000000000227 01000000000000000000   0001453420027N00000000000000000000   0000000000 00000000000000000000   00000000000001453420000000000000000000000MYR00000000000MYR00000000000MYR00000000000MYR000000000000000   8528729200
S11R  B102023101700103001QA65Q70BAKXXM  COA: SJT161101009322022                                                                                                                                                                                                                                                                                                                                                                                                                                                                    
S11H  B1020231017001040001D S SAMSUNG ELECTRONICS HCMC CE COMPLEXCO. LTD. LO I-11, D2 ROAD, SAIGON HI-TECH PARK, TANG NHON PHU B WARD, DISTRICT 9, HO CHI MINH, VIETNAM   B629186D       SAMSUNG MALAYSIA ELECTRONICS S/B   SUITE E-09-01, LEVEL 9 EAST WING, ICON JLN TUN RAZAK NO.1, JLN 1/68F 50400 KUALA LUMPUR                                                           120230103FSG99286022NBUNWAN HAI 295             00000000                        PKGMYSGNVN                    00000000                                         0000              0000        3            00000             VN0000008800300000000000000088002910000836027600000352012000110100000000010050000010000MYR20230105104720230103120020230109110220230103120000008800300000000000840421085375LOH KAR KENG                       MANAGER             FREIGHT AND INSURANCE VALUE FOR CUSTOM PURPOSES ONLY                                                                                        4X40FT LED MON, LED TV, LFD & QLED TV (INV: 9101372799) - PART OF                                                                              0000        039CX90953                                          0000              0000                                            
S11D 1B10202310170010400101QA65Q80BAKXXM  COA: SJT161103040402022                                000000000VN00000300000000UNT00000300000000UNT0000029334300000008800290A00000000000000000000   0000000000227 01000000000000000000   0000880030027N00000000000000000000   0000000000 00000000000000000000   00000000000000880030000000000000000000000MYR00000000000MYR00000000000MYR00000000000MYR000000000000000   8528729200
S11R  B102023101700104001QA65Q80BAKXXM  COA: SJT161103040402022                                                                                                                                                                                                                                                                                                                                                                                                                                                                    
S11H  B1020231017001050001D S SAMSUNG ELECTRONICS HCMC CE COMPLEXCO. LTD. LO I-11, D2 ROAD, SAIGON HI-TECH PARK, TANG NHON PHU B WARD, DISTRICT 9, HO CHI MINH, VIETNAM   B629186D       SAMSUNG MALAYSIA ELECTRONICS S/B   SUITE E-09-01, LEVEL 9 EAST WING, ICON JLN TUN RAZAK NO.1, JLN 1/68F 50400 KUALA LUMPUR                                                           120230103FSG99286022NBUNWAN HAI 295             00000000                        PKGMYSGNVN                    00000000                                         0000              0000        3            00000             VN0000004689400000000000000046893840000445491500000187575000042239900000003480000010000MYR20230105104920230103120020230109110220230103120000004689400000000000840421085375LOH KAR KENG                       MANAGER             FREIGHT AND INSURANCE VALUE FOR CUSTOM PURPOSES ONLY                                                                                        4X40FT LED MON, LED TV, LFD & QLED TV (INV: 9101372799) - PART OF                                                                              0000        039CX90953                                          0000              0000                                            
S11D 1B10202310170010500101QA65QN85BAKXXM  COA: SJT161102016742022                               000000000VN00000120000000UNT00000120000000UNT0000039078200000004689384A00000000000000000000   0000000000227 01000000000000000000   0000468940027N00000000000000000000   0000000000 00000000000000000000   00000000000000468940000000000000000000000MYR00000000000MYR00000000000MYR00000000000MYR000000000000000   8528729200
S11R  B102023101700105001QA65QN85BAKXXM  COA: SJT161102016742022                                                                                                                                                                                                                                                                                                                                                                                                                                                                   
S11H  B1020231017001060001D S SAMSUNG ELECTRONICS HCMC CE COMPLEXCO. LTD. LO I-11, D2 ROAD, SAIGON HI-TECH PARK, TANG NHON PHU B WARD, DISTRICT 9, HO CHI MINH, VIETNAM   B629186D       SAMSUNG MALAYSIA ELECTRONICS S/B   SUITE E-09-01, LEVEL 9 EAST WING, ICON JLN TUN RAZAK NO.1, JLN 1/68F 50400 KUALA LUMPUR                                                           120230103FSG99286022NBUNWAN HAI 295             00000000                        PKGMYSGNVN                    00000000                                         0000              0000        3            00000             VN0000003982300000000000000039823400000378322300000159294000027850000000002100000010000MYR20230105105120230103120020230109110220230103120000003982350000000000840421085375LOH KAR KENG                       MANAGER             FREIGHT AND INSURANCE VALUE FOR CUSTOM PURPOSES ONLY                                                                                        4X40FT LED MON, LED TV, LFD & QLED TV (INV: 9101372799) - PART OF                                                                              0000        039CX90953                                          0000              0000                                            
S11D 1B10202310170010600101QA75QN800BKXXM  COA: SJT161102019262022                               000000000VN00000050000000UNT00000050000000UNT0000079646800000003982340A00000000000000000000   0000000000227 01000000000000000000   0000398235027N00000000000000000000   0000000000 00000000000000000000   00000000000000398235000000000000000000000MYR00000000000MYR00000000000MYR00000000000MYR000000000000000   8528729200
S11R  B102023101700106001QA75QN800BKXXM  COA: SJT161102019262022                                                                                                                                                                                                                                                                                                                                                                                                                                                                   
S11H  B1020231017001070001D S SAMSUNG ELECTRONICS HCMC CE COMPLEXCO. LTD. LO I-11, D2 ROAD, SAIGON HI-TECH PARK, TANG NHON PHU B WARD, DISTRICT 9, HO CHI MINH, VIETNAM   B629186D       SAMSUNG MALAYSIA ELECTRONICS S/B   SUITE E-09-01, LEVEL 9 EAST WING, ICON JLN TUN RAZAK NO.1, JLN 1/68F 50400 KUALA LUMPUR                                                           120230103FSG99286022NBUNWAN HAI 295             00000000                        PKGMYSGNVN                    00000000                                         0000              0000        3            00000             VN0000007737500000000000000077374660000735059200000309499000083850000000008580000010000MYR20230105105320230103120020230109110220230103120000007737450000000000840421085375LOH KAR KENG                       MANAGER             FREIGHT AND INSURANCE VALUE FOR CUSTOM PURPOSES ONLY                                                                                        4X40FT LED MON, LED TV, LFD & QLED TV (INV: 9101372799) - PART OF                                                                              0000        039CX90953                                          0000              0000                                            
S11D 1B10202310170010700101QA85Q60BAKXXM  COA: SJT161101015842022                                000000000VN00000150000000UNT00000150000000UNT0000051583100000007737465A00000000000000000000   0000000000227 01000000000000000000   0000773745027N00000000000000000000   0000000000 00000000000000000000   00000000000000773745000000000000000000000MYR00000000000MYR00000000000MYR00000000000MYR000000000000000   8528729200
S11R  B102023101700107001QA85Q60BAKXXM  COA: SJT161101015842022                                                                                                                                                                                                                                                                                                                                                                                                                                                                    
S11H  B1020231017001080001D S SAMSUNG ELECTRONICS HCMC CE COMPLEXCO. LTD. LO I-11, D2 ROAD, SAIGON HI-TECH PARK, TANG NHON PHU B WARD, DISTRICT 9, HO CHI MINH, VIETNAM   B629186D       SAMSUNG MALAYSIA ELECTRONICS S/B   SUITE E-09-01, LEVEL 9 EAST WING, ICON JLN TUN RAZAK NO.1, JLN 1/68F 50400 KUALA LUMPUR                                                           120230103FSG99286022NBUNWAN HAI 295             00000000                        PKGMYSGNVN                    00000000                                         0000              0000        3            00000             VN0000015581700000000000000155816710001480258700000623267000167700000000017160000010000MYR20230105105520230103120020230109110220230103120000015581650000000000840421085375LOH KAR KENG                       MANAGER             FREIGHT AND INSURANCE VALUE FOR CUSTOM PURPOSES ONLY                                                                                        4X40FT LED MON, LED TV, LFD & QLED TV (INV: 9101372799) - PART OF                                                                              0000        039CX90953                                          0000              0000                                            
S11D 1B10202310170010800101QA85Q65BAKXXM  COA: SJT161101015862022                                000000000VN00000300000000UNT00000300000000UNT0000051938900000015581670A00000000000000000000   0000000000227 01000000000000000000   0001558165027N00000000000000000000   0000000000 00000000000000000000   00000000000001558165000000000000000000000MYR00000000000MYR00000000000MYR00000000000MYR000000000000000   8528729200
S11R  B102023101700108001QA85Q65BAKXXM  COA: SJT161101015862022                                                                                                                                                                                                                                                                                                                                                                                                                                                                    
S11H  B1020231017001090001D S SAMSUNG ELECTRONICS HCMC CE COMPLEXCO. LTD. LO I-11, D2 ROAD, SAIGON HI-TECH PARK, TANG NHON PHU B WARD, DISTRICT 9, HO CHI MINH, VIETNAM   B629186D       SAMSUNG MALAYSIA ELECTRONICS S/B   SUITE E-09-01, LEVEL 9 EAST WING, ICON JLN TUN RAZAK NO.1, JLN 1/68F 50400 KUALA LUMPUR                                                           120230103FSG99286022NBUNWAN HAI 295             00000000                        PKGMYSGNVN                    00000000                                         0000              0000        3            00000             VN0000002181200000000000000021812110000207215100000087248000025480000000002652000010000MYR20230105105620230103120020230109110220230103120000002181200000000000840421085375LOH KAR KENG                       MANAGER             FREIGHT AND INSURANCE VALUE FOR CUSTOM PURPOSES ONLY                                                                                        4X40FT LED MON, LED TV, LFD & QLED TV (INV: 9101372799) - PART OF                                                                              0000        039CX90953                                          0000              0000                                            
S11D 1B10202310170010900101QA85Q70BAKXXM  COA: SJT161101015832022                                000000000VN00000040000000UNT00000040000000UNT0000054530300000002181212A00000000000000000000   0000000000227 01000000000000000000   0000218120027N00000000000000000000   0000000000 00000000000000000000   00000000000000218120000000000000000000000MYR00000000000MYR00000000000MYR00000000000MYR000000000000000   8528729200
S11R  B102023101700109001QA85Q70BAKXXM  COA: SJT161101015832022                                                                                                                                                                                                                                                                                                                                                                                                                                                                    
S11H  B1020231017001100001D S SAMSUNG ELECTRONICS HCMC CE COMPLEXCO. LTD. LO I-11, D2 ROAD, SAIGON HI-TECH PARK, TANG NHON PHU B WARD, DISTRICT 9, HO CHI MINH, VIETNAM   B629186D       SAMSUNG MALAYSIA ELECTRONICS S/B   SUITE E-09-01, LEVEL 9 EAST WING, ICON JLN TUN RAZAK NO.1, JLN 1/68F 50400 KUALA LUMPUR                                                           120230103FSG99286022NBUNWAN HAI 295             00000000                        PKGMYSGNVN                    00000000                                         0000              0000        3            00000             VN0000004348700000000000000043487300000413129400000173949000034999900000002974000010000MYR20230105105820230103120020230109110220230103120000004348750000000000840421085375LOH KAR KENG                       MANAGER             FREIGHT AND INSURANCE VALUE FOR CUSTOM PURPOSES ONLY                                                                                        4X40FT LED MON, LED TV, LFD & QLED TV (INV: 9101372799) - PART OF                                                                              0000        039CX90953                                          0000              0000                                            
S11D 1B10202310170011000101QA85QN90BAKXXM  COA: SJT161102019372022                               000000000VN00000050000000UNT00000050000000UNT0000086974600000004348730A00000000000000000000   0000000000227 01000000000000000000   0000434875027N00000000000000000000   0000000000 00000000000000000000   00000000000000434875000000000000000000000MYR00000000000MYR00000000000MYR00000000000MYR000000000000000   8528729200
