S11HDR001                    202302010034320000000               
S11H  B1020231017009410035D I ZALORA (HONG KONG) LIMITED         11/F EVER GAIN CENTER 43-57 WANG WO TSAI STREET TSUEN WAN HONG KONG                                      B973005A       JADE ESERVICES MALAYSIA SDN BHD    UNIT 13-1, LEVEL 13  MERCU 3, JALAN BANGSAR, KL ECO CITY 59200 KUALA LUMPUR                                                                       120230119FHK06268 22DASROOCL DALIAN S680        00000000                        PKGMYHKGHK                    00000000                                         0000              0000                     00000             HK0000002659100000000000000027920480000265909300000106364000011722000000001070000010000MYR20230127100520230119120020230130093120230119120000002774050000000000960310035486ANIS ATHIRAH BINTI ABDUL RAZAK     EXECUTIVE           ZSCM091351 - HK RTS                                                                                                                         FASHION PRODUCTS: ZSCM091351 USD 4.4459                                                                                                        0000        022C555502     HKG1037528                           0000              0000                                            
S11D  B10202310170094100101Backpacks                                                             420299900HK00000020000000KGM00000020000000KGM0000007181650000000143633N00000000000000000000   0000000000253 01000000000000000000   0000014362057N00000000000000000000   0000000000 00000000000000000000   00000000000000014362000000000000000000000MYR00000000000MYR00000000000MYR00000000000MYR000000000000000             
S11D  B10202310170094100102Bag sets                                                              950590000HK00000020000000KGM00000020000000KGM0000000334970000000006699N00000000000000000000   0000000000253 01000000000000000000   0000000670057N00000000000000000000   0000000000 00000000000000000000   00000000000000000670000000000000000000000MYR00000000000MYR00000000000MYR00000000000MYR000000000000000             
S11D  B10202310170094100103Ballerina & Flats                                                     640590000HK00000020000000PR 00000020000000PR 0000001401980000000028040N00000000000000000000   0000000000288 01000000000000000000   0000002804057N00000000000000000000   0000000000 00000000000000000000   00000000000000002804000000000000000000000MYR00000000000MYR00000000000MYR00000000000MYR000000000000000             
S11D  B10202310170094100104Blouses & Tunics                                                      620690000HK00000080000000UNT00000080000000UNT0000000812900000000065032N00000000000000000000   0000000000225 01000000000000000000   0000006503053N00000000000000000000   0000000000 00000000000000000000   00000000000000006503000000000000000000000MYR00000000000MYR00000000000MYR00000000000MYR000000000000000             
S11D  B10202310170094100105Cardigans & Knitwear                                                  611090000HK00000040000000UNT00000040000000UNT0000001313070000000052523N00000000000000000000   0000000000225 01000000000000000000   0000005252053N00000000000000000000   0000000000 00000000000000000000   00000000000000005252000000000000000000000MYR00000000000MYR00000000000MYR00000000000MYR000000000000000             
S11D  B10202310170094100106Dresses                                                               620449900HK00000260000000UNT00000260000000UNT0000001364370000000354736N00000000000000000000   0000000000225 01000000000000000000   0000035474053N00000000000000000000   0000000000 00000000000000000000   00000000000000035474000000000000000000000MYR00000000000MYR00000000000MYR00000000000MYR000000000000000             
S11D  B10202310170094100107Heels                                                                 640590000HK00000010000000PR 00000010000000PR 0000001001850000000010019N00000000000000000000   0000000000288 01000000000000000000   0000001002057N00000000000000000000   0000000000 00000000000000000000   00000000000000001002000000000000000000000MYR00000000000MYR00000000000MYR00000000000MYR000000000000000             
S11R  B102023101700941001Backpacks                                                             Bag sets                                                              Ballerina & Flats                                                     Blouses & Tunics                                                      Cardigans & Knitwear                                                  Dresses                                                               Heels                                                                 
S11D  B10202310170094100201Jackets & Coats                                                       620339000HK00000010000000UNT00000010000000UNT0000000868480000000008685N00000000000000000000   0000000000225 01000000000000000000   0000000869053N00000000000000000000   0000000000 00000000000000000000   00000000000000000869000000000000000000000MYR00000000000MYR00000000000MYR00000000000MYR000000000000000             
S11D  B10202310170094100202Jackets & Coats                                                       620439900HK00000080000000UNT00000080000000UNT0000002791330000000223306N00000000000000000000   0000000000225 01000000000000000000   0000022331053N00000000000000000000   0000000000 00000000000000000000   00000000000000022331000000000000000000000MYR00000000000MYR00000000000MYR00000000000MYR000000000000000             
S11D  B10202310170094100203Jeans                                                                 620349900HK00000010000000UNT00000010000000UNT0000001490900000000014909N00000000000000000000   0000000000225 01000000000000000000   0000001491053N00000000000000000000   0000000000 00000000000000000000   00000000000000001491000000000000000000000MYR00000000000MYR00000000000MYR00000000000MYR000000000000000             
S11D  B10202310170094100204Long Pants                                                            620469000HK00000030000000UNT00000030000000UNT0000001120410000000033612N00000000000000000000   0000000000225 01000000000000000000   0000003361053N00000000000000000000   0000000000 00000000000000000000   00000000000000003361000000000000000000000MYR00000000000MYR00000000000MYR00000000000MYR000000000000000             
S11D  B10202310170094100205Metal Earrings                                                        711719200HK00000010000000KGM00000010000000KGM0000001313070000000013131N00000000000000000000   0000000000253 01000000000000000000   0000001313057N00000000000000000000   0000000000 00000000000000000000   00000000000000001313000000000000000000000MYR00000000000MYR00000000000MYR00000000000MYR000000000000000             
S11D  B10202310170094100206Metal Necklaces & Chains                                              711719200HK00000010000000KGM00000010000000KGM0000012961320000000129613N00000000000000000000   0000000000253 01000000000000000000   0000012961057N00000000000000000000   0000000000 00000000000000000000   00000000000000012961000000000000000000000MYR00000000000MYR00000000000MYR00000000000MYR000000000000000             
S11D  B10202310170094100207Metal Necklaces & Chains                                              711790200HK00000010000000KGM00000010000000KGM0000000557260000000005573N00000000000000000000   0000000000253 01000000000000000000   0000000557057N00000000000000000000   0000000000 00000000000000000000   00000000000000000557000000000000000000000MYR00000000000MYR00000000000MYR00000000000MYR000000000000000             
S11R  B102023101700941002Jackets & Coats                                                       Jackets & Coats                                                       Jeans                                                                 Long Pants                                                            Metal Earrings                                                        Metal Necklaces & Chains                                              Metal Necklaces & Chains                                              
S11D  B10202310170094100301Metal Rings                                                           711719200HK00000010000000KGM00000010000000KGM0000007092740000000070927N00000000000000000000   0000000000253 01000000000000000000   0000007093057N00000000000000000000   0000000000 00000000000000000000   00000000000000007093000000000000000000000MYR00000000000MYR00000000000MYR00000000000MYR000000000000000             
S11D  B10202310170094100302Non-Metal Jewellery                                                   711790200HK00000060000000KGM00000060000000KGM0000001476080000000088565N00000000000000000000   0000000000253 01000000000000000000   0000008857057N00000000000000000000   0000000000 00000000000000000000   00000000000000008857000000000000000000000MYR00000000000MYR00000000000MYR00000000000MYR000000000000000             
S11D  B10202310170094100303Playsuits & Jumpsuits                                                 620469000HK00000020000000UNT00000020000000UNT0000000779560000000015591N00000000000000000000   0000000000225 01000000000000000000   0000001559053N00000000000000000000   0000000000 00000000000000000000   00000000000000001559000000000000000000000MYR00000000000MYR00000000000MYR00000000000MYR000000000000000             
S11D  B10202310170094100304Sandals & Flip Flops                                                  640590000HK00000060000000PR 00000060000000PR 0000000720280000000043217N00000000000000000000   0000000000288 01000000000000000000   0000004322057N00000000000000000000   0000000000 00000000000000000000   00000000000000004322000000000000000000000MYR00000000000MYR00000000000MYR00000000000MYR000000000000000             
S11D  B10202310170094100305Shirts                                                                620530900HK00000010000000UNT00000010000000UNT0000001357530000000013575N00000000000000000000   0000000000225 01000000000000000000   0000001358053N00000000000000000000   0000000000 00000000000000000000   00000000000000001358000000000000000000000MYR00000000000MYR00000000000MYR00000000000MYR000000000000000             
S11D  B10202310170094100306Shirts                                                                620690000HK00000010000000UNT00000010000000UNT0000000512800000000005128N00000000000000000000   0000000000225 01000000000000000000   0000000513053N00000000000000000000   0000000000 00000000000000000000   00000000000000000513000000000000000000000MYR00000000000MYR00000000000MYR00000000000MYR000000000000000             
S11D  B10202310170094100307Shorts                                                                620469000HK00000020000000UNT00000020000000UNT0000001357530000000027151N00000000000000000000   0000000000225 01000000000000000000   0000002715053N00000000000000000000   0000000000 00000000000000000000   00000000000000002715000000000000000000000MYR00000000000MYR00000000000MYR00000000000MYR000000000000000             
S11R  B102023101700941003Metal Rings                                                           Non-Metal Jewellery                                                   Playsuits & Jumpsuits                                                 Sandals & Flip Flops                                                  Shirts                                                                Shirts                                                                Shorts                                                                
S11D  B10202310170094100401Shoulder Bags                                                         420299900HK00000060000000KGM00000060000000KGM0000010516080000000630965N00000000000000000000   0000000000253 01000000000000000000   0000063097057N00000000000000000000   0000000000 00000000000000000000   00000000000000063097000000000000000000000MYR00000000000MYR00000000000MYR00000000000MYR000000000000000             
S11D  B10202310170094100402Skirts                                                                620452900HK00000020000000UNT00000020000000UNT0000000824020000000016480N00000000000000000000   0000000000225 01000000000000000000   0000001648053N00000000000000000000   0000000000 00000000000000000000   00000000000000001648000000000000000000000MYR00000000000MYR00000000000MYR00000000000MYR000000000000000             
S11D  B10202310170094100403Sling Bags                                                            420299900HK00000010000000KGM00000010000000KGM0000007359490000000073595N00000000000000000000   0000000000253 01000000000000000000   0000007360057N00000000000000000000   0000000000 00000000000000000000   00000000000000007360000000000000000000000MYR00000000000MYR00000000000MYR00000000000MYR000000000000000             
S11D  B10202310170094100404Sneakers                                                              640590000HK00000020000000PR 00000020000000PR 0000000912940000000018259N00000000000000000000   0000000000288 01000000000000000000   0000001826057N00000000000000000000   0000000000 00000000000000000000   00000000000000001826000000000000000000000MYR00000000000MYR00000000000MYR00000000000MYR000000000000000             
S11D  B10202310170094100405Sports Lifestyle Bottoms                                              620469000HK00000010000000UNT00000010000000UNT0000000512800000000005128N00000000000000000000   0000000000225 01000000000000000000   0000000513053N00000000000000000000   0000000000 00000000000000000000   00000000000000000513000000000000000000000MYR00000000000MYR00000000000MYR00000000000MYR000000000000000             
S11D  B10202310170094100406Sports Lifestyle Tops                                                 620690000HK00000060000000UNT00000060000000UNT0000000661000000000039660N00000000000000000000   0000000000225 01000000000000000000   0000003966053N00000000000000000000   0000000000 00000000000000000000   00000000000000003966000000000000000000000MYR00000000000MYR00000000000MYR00000000000MYR000000000000000             
S11D  B10202310170094100407Sports Performance Bottoms                                            620469000HK00000010000000UNT00000010000000UNT0000001624280000000016243N00000000000000000000   0000000000225 01000000000000000000   0000001624053N00000000000000000000   0000000000 00000000000000000000   00000000000000001624000000000000000000000MYR00000000000MYR00000000000MYR00000000000MYR000000000000000             
S11R  B102023101700941004Shoulder Bags                                                         Skirts                                                                Sling Bags                                                            Sneakers                                                              Sports Lifestyle Bottoms                                              Sports Lifestyle Tops                                                 Sports Performance Bottoms                                            
S11D  B10202310170094100501Sports Performance Tops                                               620530900HK00000020000000UNT00000020000000UNT0000000846250000000016925N00000000000000000000   0000000000225 01000000000000000000   0000001693053N00000000000000000000   0000000000 00000000000000000000   00000000000000001693000000000000000000000MYR00000000000MYR00000000000MYR00000000000MYR000000000000000             
S11D  B10202310170094100502Sports Performance Tops                                               620690000HK00000020000000UNT00000020000000UNT0000000579490000000011590N00000000000000000000   0000000000225 01000000000000000000   0000001159053N00000000000000000000   0000000000 00000000000000000000   00000000000000001159000000000000000000000MYR00000000000MYR00000000000MYR00000000000MYR000000000000000             
S11D  B10202310170094100503Top-handles                                                           420299900HK00000040000000KGM00000040000000KGM0000010227100000000409084N00000000000000000000   0000000000253 01000000000000000000   0000040908057N00000000000000000000   0000000000 00000000000000000000   00000000000000040908000000000000000000000MYR00000000000MYR00000000000MYR00000000000MYR000000000000000             
S11D  B10202310170094100504Travel Bags                                                           420212990HK00000010000000UNT00000010000000UNT0000000868480000000008685N00000000000000000000   0000000000253 01000000000000000000   0000000869057N00000000000000000000   0000000000 00000000000000000000   00000000000000000869000000000000000000000MYR00000000000MYR00000000000MYR00000000000MYR000000000000000             
S11D  B10202310170094100505T-Shirts                                                              620590990HK00000010000000UNT00000010000000UNT0000001490900000000014909N00000000000000000000   0000000000225 01000000000000000000   0000001491053N00000000000000000000   0000000000 00000000000000000000   00000000000000001491000000000000000000000MYR00000000000MYR00000000000MYR00000000000MYR000000000000000             
S11D  B10202310170094100506Wallets & Purses                                                      420239000HK00000080000000KGM00000080000000KGM0000001985510000000158841N00000000000000000000   0000000000253 01000000000000000000   0000015884057N00000000000000000000   0000000000 00000000000000000000   00000000000000015884000000000000000000000MYR00000000000MYR00000000000MYR00000000000MYR000000000000000             
S11D  B10202310170094100507Yoga Equipment                                                        950699900HK00000010000000UNT00000010000000UNT0000001802120000000018021N00000000000000000000   0000000000253 00000000000000000000   0000000000057N00000000000000000000   0000000000 00000000000000000000   00000000000000000000000000000000000000000MYR00000000000MYR00000000000MYR00000000000MYR000000000000000             
S11R  B102023101700941005Sports Performance Tops                                               Sports Performance Tops                                               Top-handles                                                           Travel Bags                                                           T-Shirts                                                              Wallets & Purses                                                      Yoga Equipment                                                        
S11HDR001                    202302010034320000001 *END OF DATA* 0000000279204800000002792050
